:020000040800F2
:100000006838002061020008CD480008C1390008A6
:10001000C9480008ED160008454C00080000000023
:10002000000000000000000000000000814A0008FD
:10003000F116000800000000D1480008C94A000875
:100040007B0200087B0200087B0200087B0200089C
:100050007B0200087B0200087B0200087B0200088C
:100060007B0200087B0200087B0200087B0200087C
:100070007B0200087B0200087B0200087B0200086C
:100080007B0200087B0200087B0200087B0200085C
:100090007B0200087B0200087B020008151700089D
:1000A0007B0200087B0200087B0200087B0200083C
:1000B0007B0200087B020008ED4A00087B02000872
:1000C0007B0200087B0200087B0200087B0200081C
:1000D0007B0200087B0200087B0200087B0200080C
:1000E000F51600087B0200087B02000800F002F809
:1000F00000F0A6F814A696E8000CB244B344DA4522
:1001000001D100F09DF8BAE80F000FA696E8300084
:10011000A5EB040504EB0607AAEB0704A7F101070A
:100120004FEA15154FEA3414A4F10104AC4201D38F
:1001300000F086F813F0010F18BFFB1A43F001031B
:1001400000F001F8DBE718478CA90000ACA900001B
:10015000103A24BF78C878C1FAD8520724BF30C8F3
:1001600030C144BF04680C60704700007047000055
:100170000023002400250026103A28BF78C1FBD8B0
:10018000520728BF30C148BF0B6070476E2900F08E
:100190001783702900F06F8666290AF008816529A7
:1001A0000AF0058167290AF0028161290AF00181BC
:1001B00003681B0A28BF41F08001692900F0C4824E
:1001C000642900F0C182752900F0BE826F2900F019
:1001D000FD85782900F03B86E92900F09785E42920
:1001E00000F09485F52900F09185EF2900F0FA855B
:1001F000F82900F03A860368DB0928BF41F0800146
:10020000632901F00181732901F00681E32901F0DE
:100210001181F32901F01681002070471FB500F00D
:1002200089FE04000020002109F010FB401C6060E2
:100230000020002109F0F4FAE0601FBD10B510BDE8
:1002400001F0A7F91146FFF7E9FF04F081FE01F084
:10025000CDF903B4FFF7F2FF03BC00F065FE000028
:100260000948804709480047FEE7FEE7FEE7FEE74A
:10027000FEE7FEE7FEE7FEE7FEE7FEE70448054986
:10028000054A064B70470000E94A0008ED000008E7
:10029000683200206838002068340020683400206C
:1002A0007CB51D4616460C00009007D04142A14285
:1002B00002D32044401E01E04FF0FF30064B7B4448
:1002C0002A4669460190304600F0A1FC002C02D07D
:1002D000009A002111707CBD7D0900000FB41CB58F
:1002E000084B06AA7B4469460090059800F08FFCF5
:1002F00004460020694600F09DFC20461CBC5DF8C9
:1003000014FB00004D09000070B5044685690068C3
:10031000C10601D5302600E02026C00707D070BDF9
:10032000D4E9012130469047206A401C20626D1EAE
:10033000F6D570BD70B5044685690078C00707D151
:1003400070BDD4E9012120209047206A401C206222
:100350006D1EF6D570BD00002DE9F05F894604469C
:100360004FF0000ADFF874B1FB44C0F820A020462B
:10037000E1688847002874D0252806D0D4E90121F7
:100380009047206A401C2062F1E700265F46204625
:10039000E16888472028054607DB312D05D278190A
:1003A00010F8200C08B10643F1E7B00701D526F09C
:1003B0000406C4F81CA00027C4F818A02A2D09D0F0
:1003C000284609F025FA38B304EB8708303DC8F811
:1003D000185019E059F8041B204604EB870291617C
:1003E000E1688847012F054618D1E069002820DA26
:1003F00026F020061DE0D8F8180000EB800005EB81
:1004000040003038C8F818002046E16888470546A3
:1004100009F0FEF90028EED1012F0AD02E2D08D1C7
:100420002046E16888477F1C0546022F46F02006DB
:10043000C4DBA069002803DA404246F00106A0614F
:10044000F00701D026F010066C2D0BD0682D09D0D6
:100450004C2D39D06A2D35D0742D35D07A2D33D02E
:1004600016E038E0E1682F4620468847B842054646
:1004700009D16C2F26D04FF48060E16806432046F6
:100480008847054604E06C2F1AD04FF4807006436D
:100490000DB3A5F14100192802D8203546F40066B5
:1004A0004A462946204626604E46FFF76FFE80B139
:1004B00001280BD0F61D26F0070000F1080956E7C9
:1004C0004020E4E78020D8E70020D6E706F10409C1
:1004D0004DE7284652E7206ABDE8F09F4AA0000099
:1004E0000EB5054614460E4613A000F0DAFC284669
:1004F00000F0D7FC16A000F0D4FC304600F0D1FC90
:1005000015A000F0CEFC00218DF80B100A210DF192
:100510000A008DF80A1008E094FBF1F201FB124288
:1005200094FBF1F4303200F8012D002CF4DC00F0E3
:10053000B8FC00F0ABFC00002A2A2A206173736526
:100540007274696F6E206661696C65643A200000A0
:100550002C2066696C6520002C206C696E6520007B
:1005600010B5431C02E010F8011B71B18107FAD1EC
:100570004FF0013202C88C1A8C4314EAC211F9D030
:10058000C01A0A0603D0C01E10BDC01A10BD0A044E
:1005900001D0801E10BD0902FCD0401E10BD032AF0
:1005A00040F2308010F0030C00F0158011F8013B90
:1005B000BCF1020F624498BF11F801CB00F8013B77
:1005C00038BF11F8013BA2F1040298BF00F801CB3B
:1005D00038BF00F8013B11F0030300F06C84083AC7
:1005E000C0F0088051F8043B083A51F804CBA0E869
:1005F0000810F5E7121D5CBF51F8043B40F8043BBE
:10060000AFF30080D20724BF11F8013B11F801CBF2
:1006100048BF11F8012B24BF00F8013B00F801CBC3
:1006200048BF00F8012B704702F0FF0343EA0322A2
:1006300042EA024200F024B84FF000020429C0F060
:10064000128010F0030C00F01B80CCF1040CBCF104
:10065000020F18BF00F8012BA8BF20F8022BA1EB56
:100660000C0100F00DB85FEAC17C24BF00F8012B3B
:1006700000F8012B48BF00F8012B70474FF0000233
:1006800000B5134694469646203922BFA0E80C5088
:10069000A0E80C50B1F12001BFF4F7AF090728BF63
:1006A000A0E80C5048BF0CC05DF804EB890028BFDF
:1006B00040F8042B08BF704748BF20F8022B11F008
:1006C000804F18BF00F8012B704770477047704784
:1006D00009684A0501D540B27047C905FCD500B28A
:1006E000704709684A0501D5C0B27047C905FCD5F5
:1006F00080B2704770B50C460546012A05D02878AF
:10070000800600D5EA69002302E0012305E05B1CB6
:10071000934202D2E05C0028F9D1A869E618C01A19
:10072000A861286A184428622846FFF7EDFD04E016
:10073000D5E9012114F8010B9047B442F8D32846BB
:10074000FFF7F8FD70BD00002DE9F04106460024DA
:1007500010687529314616A510D0FFF7B9FF00289B
:1007600002DA404213A507E031688A0701D512A5D5
:1007700002E0490704D511A5012401E0FFF7B1FF0C
:1007800000210A2206F1240709E0B0FBF2FCB0FBCD
:10079000F2F302FB1C00303078541846491C002844
:1007A000F3D123462A463046BDE8F04100F00BBCA9
:1007B000000000002D0000002B00000020000000C1
:1007C00011680268006A530501D508700AE0D30574
:1007D00001D5088006E0130603D5C217C1E900025F
:1007E00000E00860012070472DE9FF4F0C461E46CF
:1007F0004FF0FF378BB0D2E90001DDF860800A903E
:100800008A46C1F30A5505B93D46002108464FF016
:100810000000BAF1000F00F4400005DA00EB8000A0
:100820004FF4400101EA50004FEA9059B9F1010F2D
:1008300000DDB9460A9850EA4A000ED044F610503E
:10084000A5F2FF3545432F14B8F1000F1ED07542B5
:10085000291E1EDDC9F100021CE0B8F1010F4FF0A6
:10086000000001D0302103E0F24305E02154401C98
:10087000B042FBDB30460022002121540B99C1F825
:100880000880C1E900200FB0BDE8F08FBD1B6D1CD2
:10089000DEE74A4600DA694206A800F0D7FD06AB5B
:1008A00093E8070003AB83E8070050460A9908F075
:1008B000D3FB8DE80700A0F500501F380090039887
:1008C000002D0ADD42F21F014A460844002303A915
:1008D0000390684608F03CFE09E0A0F500504A4647
:1008E0001F38002303A90390684608F046FE8DE8F0
:1008F00007000004000C03D04FF0FF30410800E077
:100900001046B8F1000F03D00022009215461EE0F9
:10091000751E05D400F012FB303262556D1EF9D5FC
:10092000B3460122084302D000227F1C04E0207855
:10093000302801D100227F1E002A099784D01DE0B3
:10094000112D07DA00F0FAFA303262556D1C50EAC8
:100950000102F5D1084302D00098C8B10EE0002191
:10096000681E05E0235C625C63542254401E491CEF
:100970008142F7DBAB46A81B401E0990002004F81B
:100980000B000B98099AC0F80880C0E9002B7AE7A1
:1009900011264FF0000857E72DE9F04F884604462E
:1009A000D21D22F0070191B0D1E90001CDE90A0181
:1009B00008F01AFF02460B98C00F01D02D2007E067
:1009C0002068810701D52B2002E0202101EAC00028
:1009D000032A099001D0072A05DB03464146204639
:1009E00000F0C8FC0BE12078800601D5E06900E04A
:1009F0000620B8F1650F814606D0B8F1660F18D011
:100A0000B8F1670F70D131E00020B9F1110F0090FB
:100A100001DB112301E009F101030AAA01A90CA8D5
:100A2000FFF7E2FEDDE90C70002609F101058346BF
:100A300047E001204B4600904FF000470AAA01A969
:100A40000CA8FFF7D1FEDDE90DB00C995D4600263C
:100A500010B909F101000D18B9EB050003D4C0F17C
:100A6000FF3609F10105A5EB09002BE0B9F1010FF3
:100A700001DA4FF001090020B9F1110F009048464A
:100A800001DD112300E003460AAA01A90CA8FFF723
:100A9000ABFEDDE90C704D4600268346207800074A
:100AA0000AD4AB4500DA5D4601A8012D04DD4119E9
:100AB00011F8011C302907D04F4502DA17F1040F55
:100AC00004DA012082460FE06D1EEEE7002F02DC03
:100AD000ED1B3E4403E0781CA84200DD7D1CB81BE2
:100AE00000F1010A4FF000472078000703D4AA451F
:100AF00001DB4FF0FF3A0021B7F1004F0DF1430841
:100B00008DF8431024D002202B23002F01DA7F42DE
:100B10002D230A21021EA0F1010000DC5FB197FB2A
:100B2000F1FC97FBF1F201FB1C7C17460CF1300C39
:100B300008F801CDEEE7A8F101000370218809054E
:100B400001D5452100E06521A0F1010800F8011C54
:100B500009980FA9A1EB0807FF1D00B10120411959
:100B600001EBEA70A1693844081A401EA0612078A0
:100B7000C00602D42046FFF7C7FB099828B1D4E984
:100B800001219047206A401C20622078C00622D5AF
:100B90002046FFF7B9FB1EE0002E04DBB34502DD63
:100BA00001A8805D00E03020D4E901219047206A4F
:100BB000401C2062761CAAF101005FEA000A0AD1FB
:100BC00000F0B8F9C0680168405CD4E901219047A1
:100BD000206A401C2062281EA5F10105DCDC07E02C
:100BE000D4E9012118F8010B9047206A401C2062CB
:100BF000381EA7F10107F3DC2046FFF79BFB03201B
:100C000011B041E601694A1C02610878704700B5DD
:100C10008FB0CDE901310021059105497944CDE935
:100C2000031011466846FFF797FB0FB000BD0000A8
:100C3000E5FFFFFF0A6802F8010B0A607047D1E97F
:100C400000239A4202D2531C0B60107070470000C0
:100C50002DE9FF5F15468A460446DFF8AC80F8446C
:100C60000027D8E900103E46CDE9001010E03AF820
:100C700016106A4602A800F05BFC411C07D02178E0
:100C8000890603D5E269391891420DD80744761CCC
:100C90002078800602D5E069B84205DDAE42E6DB89
:100CA0003AF816000028E2D1A069C01BA0612046D6
:100CB000FFF72AFBD8E90010CDE90010002017E06B
:100CC0003AF818106A4602A800F032FCB0F1FF3F73
:100CD00081460BD000250DF1080B05E0D4E9012178
:100CE0001BF8050090476D1C4D45F7D308F1010036
:100CF000B0428046E4DB206A384420622046FFF799
:100D000019FBBDE8FF9F0000669700002DE9F04148
:100D10008046D21D22F007020025D2E90002F52903
:100D200015A614D0011E72F1000106DA0023D0EBE3
:100D3000030063EB020211A608E0D8F800108B074D
:100D400001D50FA602E0490701D50EA601251146DF
:100D5000002408F1240704E000F0F0F830323A559E
:100D6000641C50EA0102F7D12B4632462146404628
:100D7000BDE8F04100F027B9000000002D000000A0
:100D80002B0000002000000030B4002100F12404FA
:100D900008E002F00705D208303542EA4372DB086A
:100DA0006554491C52EA0305F3D10468002310A2DC
:100DB000250708D504F020040C4304D0C46901239E
:100DC0000CA2641EC46130BC00F0FDB810B504462E
:100DD00021461068FFF785FC02462046BDE810401A
:100DE0000023D1E7D21D22F00701D1E90023CBE790
:100DF0000000000030000000F0B40D460188090535
:100E000002D5214C7C4402E01F4C7C440E3400216E
:100E100000F1240608E002F00F071209E75D42EA3C
:100E200003721B097754491C52EA0307F3D1027875
:100E30000023120704D5702D06D009B10223113406
:100E40002246F0BC00F0BFB801231034F8E770B5BB
:100E500004460D4621461068FFF743FC024629462A
:100E60002046BDE870400023C6E7D21D22F00703EC
:100E7000D3E90023C0E70368126843F0200303604E
:100E80000823C3610023B7E7C895000010B5002010
:100E900000F072FBFFF7D2F9BDE81040012000F02E
:100EA00043B810B5044602E0641C00F036F8207820
:100EB0000028F9D110BD10B5203AC0F00B80B1E880
:100EC0001850A0E81850B1E81850A0E81850203A7F
:100ED000BFF4F5AF5FEA027C24BFB1E81850A0E888
:100EE000185044BF18C918C0BDE810405FEA827CA2
:100EF00024BF51F8043B40F8043B08BF7047D207B9
:100F000028BF31F8023B48BF11F8012B28BF20F859
:100F1000023B48BF00F8012B704708B569468DF8C1
:100F200000000320ABBE08BD01491820ABBEFEE7A0
:100F300026000200004870474000002030B5B0F1A4
:100F40000A0271F100034FEA900E4EEA817EB0EB87
:100F50000E0061EB91014FEA101E4EEA017E10EB8C
:100F60000E0041EB11114FEA102E4EEA016E10EB0C
:100F70000E0041EB11214FEA104E4EEA014E10EBEC
:100F80000E0041EB1141401841F100014FEAD00041
:100F900040EA41704FEAD1014FEA810444EA90747B
:100FA00010EB800544EB01046D1944EB0404521B63
:100FB000A3414FF0000348BF0A3200D530BD401CAA
:100FC00041F1000130BD2DE9F0470D4699469246AA
:100FD000044600F124080168880604D5E06921F080
:100FE0001001216000E00120A84201DD471B00E064
:100FF0000027A1697A1902EB0900081AA06120787C
:10100000C00602D42046FFF77FF9002608E0D4E9A5
:1010100001211AF806009047206A401C761C2062C5
:101020004E45F4DB2078C0060AD52046FFF76CF960
:1010300006E0D4E9012130209047206A401C20625C
:10104000381EA7F10107F4DC07E0D4E9012118F804
:1010500005009047206A401C2062281EA5F101056A
:10106000F3DC2046FFF766F92078000602D502205F
:10107000BDE8F0870120FBE72DE9F04F04460D465F
:10108000D21D22F0070089B0D0E9009748463946C2
:1010900008F0AAFB0246F80F01D02D2307E02068D4
:1010A000810701D52B2302E0202101EAC0038DF83E
:1010B00020300BB1012000E00020032A824601D03D
:1010C000072A04DB2946204600F054F93FE1207846
:1010D000800601D40D2500E0E569C7F30A560D2D01
:1010E00049DA00214FEA175B08464FF00000002F55
:1010F00000F4400007DA00EB80004FF4400100EB01
:10110000D07001EA60008115012901DD4FF0FF3147
:1011100000224FEA850CBCF1180F06D31346ACF140
:1011200018004FF08052C24003E04FF4801323FABE
:101130000CF30CF10C0CBCF1200F04D3ACF1200C1F
:1011400009FA0CF001E007FA0CF000294FF0004812
:1011500001DD18B90FE00ED140450CD319EB02099F
:101160005F4121B9404502D19F4329EA0209BBEB07
:10117000175F00D0761C2088000502D57B48784494
:1011800002E07A487844193808AA302302F80A3075
:10119000037C0AF10101002E0AF1020A53546A4647
:1011A00002DC4FF0300101E04FF031014FF0010857
:1011B0008DF8001002D0A6F2FF3603E059EA47018D
:1011C00000D06B4E002D02DC2178090704D54FF0CA
:1011D00002082E218DF80110C44600210BE0C7F350
:1011E00003433F01C35C491C6D1E02F8083005290A
:1011F00008F1010801DA002DF1DC00210CE000EB20
:101200001973491C1B786D1E082902F808304FEA33
:10121000091908F1010801DA002DF0DC21688B06BC
:1012200002D516E0A8F10108E04505DD02EB080350
:1012300013F8013C302BF5D0B8F1000F09DD02EBBB
:10124000080313F8013C2E2B03D1090701D4A8F1A0
:101250000108002D05DD3E2102F808106D1E08F181
:101260000108407C002E02F8080008F1010804DAA9
:101270002D20764202F8080002E02B2002F8080038
:101280000A214FF47A70864208F101080BDB96FBC5
:10129000F0F3303302F8083096FBF0F308F1010860
:1012A00000FB136601E0642E0CDB642096FBF0F378
:1012B000303302F8083096FBF0F308F1010800FB28
:1012C000136601E00A2E06DB96FBF1F0303002F8DF
:1012D000080008F1010896FBF1F001FB10603030C6
:1012E00002F80800A16908F1010808EB050202EB09
:1012F0000A00081AA0612078C00602D42046FFF731
:1013000003F8216A08AE01EB0A00206204E0D4E988
:10131000012116F8010B9047BAF1010AF7D22078A3
:10132000C00602D52046FEF7EFFF6E4609E016F82C
:10133000010B3E280FD0D4E901219047206A401CC0
:101340002062B8F10108F2D22046FEF7F3FF09B09F
:101350000320BDE8F08F206A2844206203E0D4E92E
:101360000121302090476D1EEBD3F8E789920000F1
:1013700002FCFFFF2DE9F0411F46044603260168E9
:10138000072A01F4006004DB08B116A505E016A5E4
:1013900003E008B115A500E015A521F010002060BC
:1013A000A069C01EA0610FB1401EA0612046FEF7DB
:1013B000ABFF4FB1D4E9012138469047206A401C69
:1013C0002062C01C206206E0206AFAE7D4E901210D
:1013D00015F8010B9047761EF8D22046FEF7AAFFBB
:1013E000BDE8F0814E414E006E616E00494E4600F0
:1013F000696E660010B5436913B1AFF3008001E078
:10140000FFF778F9012010BD127800F124010A706D
:1014100000224A700122EDE711684FF0FF32E9E740
:1014200010B5436913B1AFF3008001E0FFF710FC82
:10143000012010BD128800F1240182840022C284A0
:101440000122EDE711684FF0FF32E9E72DE9F0479F
:10145000814616468AB0354878440DC88DE80D009F
:1014600032487844801C03AC0DC884E80D0041F676
:101470009B300844372190FBF1F290FBF1F5A5F188
:10148000800501FB12041B3C02D56442012000E0F0
:101490000020DFF898A080460027FA44AAF1BE0A8F
:1014A0000EE0E0070AD03246684607EB4701012309
:1014B0000AEB810108F061F88DE8070064107F1CD9
:1014C000002CEED1194F7F44AE3F19E0E80715D04C
:1014D00007EB04100DF1180A90E80E008AE80E00E0
:1014E000C068F04201D1981908903246012306A93C
:1014F00003A808F042F803AB83E807006D10641CF2
:10150000002DE3D14FF0010332466946B8F1000FD8
:1015100003A802D008F01CF801E008F02EF8C9E991
:101520000001C9F808200AB0BDE8F087409000002B
:101530002DE9F04116460C46054600F04FF80368C9
:1015400093F80101012807D0FF2C12D8185D80B153
:1015500001202C70BDE8F081D3F807013246214606
:1015600003F20713C7182846BC46BDE8F041002324
:1015700060474FF0FF30EDE710B500F045F8BDE8EB
:10158000104000F03CB800000048704720000020E8
:1015900070477546FFF7F8FFAE46050069465346AB
:1015A00020F00700854618B020B5FEF767FEBDE8BD
:1015B00020404FF000064FF000074FF000084FF0BA
:1015C000000BAC46ACE8C009ACE8C009ACE8C00907
:1015D000ACE8C00921F007018D46704710B5FFF750
:1015E000A9FC001D10BD00BF6582000010B50446B7
:1015F000AFF300802046BDE81040FEF72ABE002869
:1016000001D0FFF791BC704710B5002102A000F097
:1016100053F8012010BD0000534947414252543A4B
:101620002041626E6F726D616C207465726D696EBF
:101630006174696F6E0000004FF0013C50F8042B9C
:1016400051F8043B9A4221D1A2EB0C03934313EAD5
:10165000CC1317D150F8042B51F8043B9A4215D102
:10166000A2EB0C03934313EACC130BD150F8042BD9
:1016700051F8043B9A4209D1A2EB0C03934313EABD
:10168000CC13DBD04FF00000704700BFD01A01BA76
:10169000B1FA81F101F0180122FA01F0CB40DBB27E
:1016A000C0B2C01AC1F120012CFA01F3D11A914342
:1016B00011EAC311E6D1704770B505460C460A2001
:1016C00000E06D1CFFF729FC35B128780028F8D11F
:1016D00002E0641CFFF721FC14B120780028F8D147
:1016E000BDE870400A20FFF718BC0000FEE70000CC
:1016F0007047000080B54FF4005000F0DBF84FF465
:10170000804000F0D7F84FF40040BDE8804000F082
:10171000D1B800004FF4807000F0CCB8EFF3108027
:1017200072B600BFFEE70000B0B5044600F0DCF979
:10173000054640F21500C2F200000078611C18BF97
:10174000044400BF00F0D0F9401BA042FAD3B0BD62
:10175000002908BF70472DE9F04F81B040F20049E1
:1017600041F20042C4F20109C4F2010290424FF07A
:1017700004024FF000046FF01F05A9F57E7708BF43
:10178000032200921BE000BF0246BBF5807F24BF0E
:101790000432AA4616680F2303FA0AF326EA030363
:1017A000042606FA0AF633431360C26822EA0B02E3
:1017B000C260013431FA04F205F1040554D001226B
:1017C00002FA04F616EA010BF3D024F0030640F601
:1017D000000257F806C0C4F20102904213D040F64E
:1017E0000042C4F2010290420AD041F20002C4F267
:1017F0000102DDF80080904208BF4FF0020804E0CB
:101800004FF0010801E04FF0000805F1200A0AF04E
:101810000C060F2202FA06FE0CEA0E0208FA06F681
:10182000B242B1D1D9F8002040F20C4322EA0B02B7
:10183000C9F80020D9F80420C4F2010322EA0B02FF
:10184000C9F804201A68A60822EA0B021A60D9F81F
:10185000082022EA0B02C9F8082057F8262022EABD
:101860000E0247F826208FE701B0BDE8F04F704721
:10187000B0F5804F06DAB0F5807F0CD0B0F5005F90
:1018800007D07047B0F5004F03D0B0F5804F18BFB8
:101890007047282000E0172080B500F0C5FF40F217
:1018A000C400C2F2000000680121BDE8804003F0DE
:1018B0009BBC000040F21441C4F201010A680242DC
:1018C00014BF08607047FFF7D3BF00002DE9F04F49
:1018D00082B00E68002E00F0F78041F20042C4F2A0
:1018E0000102042340F2004E904208BF03234FF64A
:1018F000FF7CC4F2010E009300240123C1F2100CFE
:101900004FF0000A4FF000094AE041F20002C4F231
:101910000102009F904208BF022704F00C030F222F
:101920009A402BEA020207FA03F34FEA9A051A4398
:1019300046F825204E6840F20C45F202DEF80820F9
:1019400054BF22EA080242EA0802C4F20105CEF8B6
:1019500008202A68B30254BF22EA080242EA0802B9
:101960002A60B303DEF8042054BF22EA080242EAE8
:101970000802F303CEF80420DEF800204FF0010344
:1019800054BF22EA080242EA0802CEF800200E689C
:101990000AF1010A36FA0AF204F1040400F0948014
:1019A00003FA0AFB16EA0B08F1D04E68664511DC13
:1019B000122E51D8DFE806F0340A494650505050F4
:1019C000505050505050505050424D00D1F80C9053
:1019D00042E000BF4FF6FF72C1F2210296420FDCD7
:1019E0000022C1F2110296421AD00022C1F2120264
:1019F000964215D00022C1F22102964210D02BE06F
:101A00000022C1F2220296420AD00022C1F2310223
:101A1000964205D00022C1F2320296421CD100BF8C
:101A20008A6842B1012A14BFC0F814B0C0F810B0DF
:101A30004FF0080910E04FF004090DE0CA6802F108
:101A4000040909E04FF0000906E0CA6802F108093C
:101A500002E0CA6802F10C0902462646B8F5807F0A
:101A600024BF0432203E17680F25B54027EA05053C
:101A700009FA06F635431560CA79D2067FF587AFB5
:101A800041F21803C4F202031A68AEF57E7642F002
:101A900001021A601A6802F001020192019A2AF00A
:101AA000030256F802B040F60002C4F2010290426E
:101AB00008D040F60042C4F2010290427FF425AF04
:101AC00001272AE7002728E702B0BDE8F08F0000D1
:101AD0008068084018BF012070470000002A08BF36
:101AE000090401617047000042F68C50C2F2000008
:101AF00000687047002804BF0120704710B52421FA
:101B000080F83D10016804460A6822F001020A606C
:101B100000F05AFD0020206484F83D00206384F822
:101B20003E0084F83C0010BD002804BF012070472F
:101B3000F0B581B0044690F83D0028B9002084F843
:101B40003C00204600F06EFD242084F83D00206813
:101B5000016821F001010160016841F40041016068
:101B6000016821F40041016000F0BAFF636848F2A7
:101B7000A16CC0F2010C40F60011C0F23D016345BA
:101B80003CBF48F28041C0F21E01884202D20120CF
:101B900001B0F0BD4DF68361C4F21B31A0FB011210
:101BA0002168970CD1F804E04FF496762EF03F05AB
:101BB00045EA92454D60774348F638160D6AC0F203
:101BC0004106A7FB067625F03F07634538BF960C14
:101BD000721C3A430A62CA6948F2A0664CF6FF7763
:101BE000C0F20106B34222EA070C0AD801385A00B3
:101BF000B0FBF2F001306FF31F30042898BF0420CF
:101C000020E0A2681927002A08BF032701385F4394
:101C1000B0FBF7F701373F0509D052B119225A43FB
:101C2000B0FBF2F00422013062F31F3008E0012023
:101C300008E003EB4302B0FBF2F001306FF31F301A
:101C400040F4004040EA0C00C8610868D4E907236A
:101C500020F0C000104318430860886848F2FF3243
:101C600004F10C0790438CCF18431043A669886099
:101C7000C86820F0FF0038433043C860086840F06F
:101C80000100086000202021206484F83D102063BA
:101C900084F83E0001B0F0BD2DE9F04782B09946CE
:101CA000924688460446FFF71FFF94F83D1020290E
:101CB00009D105462068806910F0020008D194F827
:101CC0003C00012828D10226304602B0BDE8F0874A
:101CD000012686EA500706E02068806910F00200BD
:101CE00086EA5007EBD0FFF7FFFE401B1A28F3D31C
:101CF000206880698007EFD500202021206384F8C8
:101D00003D1084F83E00216C41F020012164F90768
:101D100084F83C00D3D1D6E70121206884F83C1038
:101D20000168C90703D1016841F001010160016840
:101D300021F400610160212184F83D10102184F814
:101D40003E1000212164C4F824A0A4F82A90618DDB
:101D500021850021CFF6FF71E162E16A11F5803F34
:101D600018BF012924D1016841F4807101604069E4
:101D7000DDF8289010F0010037D180F0010609F15C
:101D800001070AE020684169C90717D02068406947
:101D900010F0010080F0010627D1002FF6D0FFF7E8
:101DA000A3FEB9F1000FEDD0401B4845EED9E9E79D
:101DB0000829D8D0216B1229D5D0D8E700212022BC
:101DC000216384F83D2084F83E10226C42F020020A
:101DD0002264F20784F83C1007D000680126C00591
:101DE00044BF4FF4007020646EE72069B0F5804F67
:101DF00001D1FE2125E0062000EAD8112068F0314B
:101E00000161416909071BD4416949053BD409F1C6
:101E1000010600BF66B1FFF767FEB9F1000F02D0FF
:101E2000401B484504D920684069000740F1D18033
:101E300020684169090703D441694905EAD522E0D0
:101E4000FF21206801EA080101614169890730D456
:101E50004169490517D409F1010600BF66B1FFF7D2
:101E600043FEB9F1000F02D0401B484504D9206859
:101E70004069800740F1AD8020684169890718D426
:101E800041694905EAD5016841F4007101606FF4C8
:101E90008061416100202021206384F83D1084F896
:101EA0003E00216C41F00401216484F83C000126CD
:101EB0000AE7002601962068416901918069019036
:101EC0000198208D002859D009F1010704E000BFD6
:101ED00020684069000663D5206850F8141F090681
:101EE0000DD40168490556D4002FF5D0FFF7FCFD4D
:101EF000B9F1000FECD0401B4845EDD9E8E7D4F824
:101F000024E02268704610F8013B13616062608D26
:101F100001386085B4F828C01046ACF10103238570
:101F200050F8141F49070DD519040BD09EF8011065
:101F300011610EF102016162618D01396185ACF1BF
:101F400002012185016806E020684069400727D525
:101F5000206850F8141F49070DD4016849051AD4A8
:101F6000002FF5D0FFF7C0FDB9F1000FECD0401BFA
:101F70004845EDD9E8E7208D0028ADD120680168FB
:101F800041F400710160202084F83D0084F83E6037
:101F900084F83C6098E66FF480610160042000E002
:101FA000202000212022216384F83D2084F83E1067
:101FB000226C1043206484F83C10206C042806D165
:101FC00020680126016841F4007101607CE6012669
:101FD0007AE600202021206384F83D1084F83E003A
:101FE000216C41F020015FE72DE9F04F85B00446F8
:101FF0000020984692468B460490FFF775FD94F8B2
:102000003D10202909D105462068806910F00200A2
:1020100007D194F83C00012828D1022005B0BDE882
:10202000F08F012686EA500707E000BF206880692C
:1020300010F0020086EA5007EBD0FFF755FD401B79
:102040001A28F3D3206880698007EFD5002020216B
:10205000206384F83D1084F83E00216C41F020019B
:102060002164F90784F83C00D3D1D6E70121226826
:1020700084F83C101368DDE90F090E99DB0703D1E2
:10208000136843F001031360136823F400631360C3
:10209000222284F83D20402284F83E20002222643F
:1020A00061626085608D594620850020CFF6FF7003
:1020B000E062204652464346CDE9009501F086FC99
:1020C00018B1012005B0BDE8F08F208D022826D080
:1020D00001280ED0002838D10020039020684169E3
:1020E0000391816903910399016841F400710160D2
:1020F00037E02068016821F480610160EFF310800F
:1021000072B60020039020684169039181690391B0
:102110000399016841F40071016062B621E0206812
:10212000016841F400610160EFF3108072B6002095
:1021300003902068416903918169039103990168C3
:1021400021F48061016062B60BE02068016841F40F
:1021500080610160002103914169039180690390CE
:102160000398218D002900F0218140F210064FF0E4
:10217000010A09F10107C2F200064FF023082068A6
:10218000032950F8142F1ED8022952D001296CD1EE
:1021900051060BD5F9E020684069400640F12681E0
:1021A000206850F8141F490600F1EF800168C90645
:1021B00000F10381FFF798FCB9F1000FEBD0401B51
:1021C0004845EDD9E7E7510626D52068616A0069E0
:1021D0000870606A228D0130013A606222852168B0
:1021E000638D013B63854B695B0740F1DB8092B2F5
:1021F000032A03D10A6822F480620A600969017027
:10220000C7E000BF20684069400640F1EF802068C9
:1022100050F8141F4906D8D40168C90600F1CD80D2
:10222000FFF762FCB9F1000FECD0401B4845EED936
:10223000E8E712F0040046D18AEA900B0AE0206831
:10224000406940072ED52068406910F004008AEAF2
:10225000900B38D1002FF6D0FFF746FCB9F1000FF4
:10226000EDD0401B4845EED9E9E7B34612F0040033
:102270004FD18AEA90060AE020684069400738D5C5
:102280002068406910F004008AEA900641D1002FCE
:10229000F6D0FFF729FCB9F1000FEDD0401B4845FF
:1022A000EED9E9E700212020216384F83D0084F87D
:1022B0003E10206C40F0200020645FEACB7084F870
:1022C0003C107FF4FEAEEFF3108072B62068616AB6
:1022D000026842F40072026000690870606A218D31
:1022E00001306062481E2085608D0138608562B6CD
:1022F0004BE000212020216384F83D0084F83E104B
:10230000206C40F020002064F00784F83C107FF43B
:10231000D8AE20684BF289520168C1F2F84221F42C
:1023200080610160EFF3108072B62068616A006915
:102330005E460870606A218D013001396062218536
:10234000618D01396185DBF80010C908A1FB02121B
:10235000110A01FB08F104910499013904910499CF
:10236000B9B321684A695207F6D50A6842F4007287
:102370000A6009690170606A218D01306062481E3F
:102380002085608D0138608562B62068616A0069C9
:102390000870606A218D01306062481E2085608D62
:1023A00001386085218D00297FF4E9AE202084F872
:1023B0003D00002084F83E0024E06FF01001016031
:1023C00000202021206384F83D1084F83E00206C1A
:1023D00016E000202021206384F83D1084F83E00A0
:1023E000206C40F02000206462B60AE0002020212A
:1023F000206384F83D1084F83E00206C40F02000FB
:1024000020640120002184F83C1005B0BDE8F08F65
:102410002DE9F04F83B0994692468B460446FFF76C
:1024200063FB94F83D10202909D105462068806996
:1024300010F0020007D194F83C00012828D10220B6
:1024400003B0BDE8F08F012787EA500607E000BF20
:102450002068806910F0020087EA5006EBD0FFF791
:1024600043FB401B1A28F3D3206880698007EFD50F
:1024700000202021206384F83D1084F83E00216C68
:1024800041F020012164F10784F83C00D3D1D6E764
:102490000121226884F83C101368DDE90D080C99CD
:1024A000DB0703D1136843F001031360136823F4BF
:1024B00000631360212284F83D20402284F83E20EE
:1024C0000022226461626085608D5946208500206B
:1024D000CFF6FF70E062204652464B46CDE90085BC
:1024E00001F0ACFB00286AD1208DC0B308F10106D1
:1024F00004E000BF2068406900064BD5206850F812
:10250000141F09060DD4016849053ED4002EF5D0EC
:10251000FFF7EAFAB8F1000FECD0401B4045EDD9C7
:10252000E8E7606A2168034613F8012B0A61228DEF
:102530006362531E2385678D013F67854F697F075F
:102540000AD51B0408D0437802300B616062901EEC
:102550002085608D01386085208D0028CED12046F1
:1025600041462A4601F090FC08BB2068016841F40E
:1025700000710160202084F83D00002084F83E00B6
:1025800084F83C0003B0BDE8F08F6FF48061016017
:10259000042000E0202000212022216384F83D2037
:1025A00084F83E10226C1043206484F83C10206CA8
:1025B000042804D12068016841F400710160012001
:1025C00003B0BDE8F08F0000B0B5006845F20041EF
:1025D000C4F2000188420DD045F60001C4F20001AA
:1025E000884218BFB0BD4FF400644FF480616FF4AF
:1025F000800003E0802440216FF4001041F21C02AF
:10260000C4F20202136840F600451840C4F2010506
:1026100010602846FFF79CF828462146BDE8B040E8
:10262000FFF796B810B586B0006845F60001C4F211
:10263000000188424FF00001CDE90411CDE90211FB
:1026400027D045F20041C4F20001884245D141F251
:102650001804C4F20204206802A940F008002060B7
:10266000206800F0080001900198C020029012201C
:1026700003900320059040F60040C4F20100FFF7EC
:1026800025F9606840F400106060606800F4001094
:1026900021E041F21804C4F20204206802A940F0CB
:1026A00008002060206800F00800019001984FF4B5
:1026B00040600290122003900320059040F60040F5
:1026C000C4F20100FFF702F9606840F48000606026
:1026D000606800F480000190019806B010BD000011
:1026E00040F2150042F68C51C2F20000C2F2000125
:1026F00000780A68104408607047000080B542F214
:102700000000C4F20200016841F0100101600320E2
:1027100000F0DAF80F2000F005F800F05DF8002076
:1027200080BD0000B0B586B041F21C01C4F20201C8
:102730000A68044642F004020A60096801A801F030
:10274000040101910199694600F0A8F9049D002D4A
:1027500018BF012500F0C4F94DF68361A840C4F20A
:102760001B31A0FB01014FF0FF3000EB914140F223
:10277000502040F60002C2F20000C4F2000240F213
:10278000E7330025C0E90021C0E9025305618561F6
:1027900000F0ACFB08B106B0B0BD40F25020C2F270
:1027A000000000F02FFC0028F5D105461E2000F0A7
:1027B0004DF80F2C0CD81E202146002200F058F8AE
:1027C00040F21800C2F200000460284606B0B0BD16
:1027D000012006B0B0BD000080B582B041F2180003
:1027E000C4F202000168002241F0010101600168A9
:1027F00001F0010101910199416841F0805141606E
:1028000040680F2100F08050009000986FF00100A8
:1028100000F02EF80420C4F201000168022262F3E5
:102820001A61016002B080BD002848BF704700F007
:102830001F01012202FA01F11C2202EAD0004EF22D
:102840008022CEF20002815070470000002848BF6D
:10285000704700F01F01012202FA01F11C2202EA76
:10286000D0004EF20012CEF20002815070470000FC
:1028700010B54EF60C5CCEF2000CDCF80030C3F361
:10288000022E8EF00704042C28BF0424BEF103039B
:102890004FF0FF3E0EFA04F438BF0023A1439940E5
:1028A0000EFA03F39A43114300F1604200F00F0364
:1028B000090102F56442043B6344002848BF03F168
:1028C0000C02117010BD00004EF60C51CEF200014A
:1028D0000A684FF6FF031A4060F30A2242F0806054
:1028E00040F0FD7008607047002804BF0120704769
:1028F0002DE9F04381B042F20008C4F20208044618
:10290000D8F800000D4600F0070081420CD9D8F835
:10291000000020F007002843C8F80000D8F80000A5
:1029200000F00700A8426BD1206841F2040981073A
:10293000C4F2020917D5410705D5D9F8001041F4B2
:10294000E061C9F80010010705D5D9F8001041F47D
:102950006051C9F80010D9F80010A26821F0F00108
:102960001143C9F80010C00741D1D8F8000000F0A9
:10297000070085420CD2D8F8000020F00700284359
:10298000C8F80000D8F8000000F00700A84237D1CE
:102990002068410707D5D9F80010E26821F4E0610A
:1029A0001143C9F80010000708D5D9F800002169C3
:1029B00020F4605040EAC100C9F80000D9F80020B6
:1029C00002F00C00082841F20020C0F27A0049D140
:1029D0004AF23853C2F38341C0F60003595CD20374
:1029E00034D440F60010C0F23D0048433AE060683D
:1029F00059F8041C022807D0012824D1890305D4E2
:102A0000012001B0BDE8F0838901F9D5D9F80010A3
:102A100021F003010843C9F80000FFF765F80646F6
:102A200041F28837D9F80000616800F00C00B0EB83
:102A3000810F9AD0FFF758F8801BB842F2D90320D3
:102A400001B0BDE8F0838907DAD5DFE7D9F80020C7
:102A50004AF2CC43C2F34042C0F600039A5C4843BA
:102A6000B0FBF2F0D9F800104AF2B442C1F30311FE
:102A7000C0F60002515C40F2100220FA01F140F26F
:102A80001800C2F200000068C2F200021160FFF7F5
:102A900049FE002001B0BDE8F08300000F22026073
:102AA00041F20402C4F20202136803F0030343601C
:102AB000136803F0F0038360136803F4E063C360FA
:102AC00012684FF4E06303EAD202026142F20000AE
:102AD000C4F20200006800F00700086070470000C0
:102AE00040F2100041F20401C2F20000C4F20201FF
:102AF000006809684AF2C442C1F30221C0F600022C
:102B0000515CC8407047000040F2100041F20401DF
:102B1000C2F20000C4F20201006809684AF2C4422D
:102B2000C1F3C221C0F60002515CC84070470000EA
:102B3000002804BF012070472DE9F04182B004460F
:102B4000007841F20006C007C4F2020647D0706860
:102B500000F00C00042808D1306880033FD560687D
:102B6000E8BB012002B0BDE8F081706800F00C0005
:102B7000082802D17068C003EED4656830682DB1B2
:102B8000B5F5A02F09D0B5F5803F0AD020F48030EC
:102B90003060306820F4802005E040F48020306010
:102BA000306840F480303060FEF79EFF002D05460F
:102BB00012D000BF3068800311D4FEF795FF401B90
:102BC0006428F7D916E100BFFEF78EFF401B64288A
:102BD0004FF0030000F2D88030688003F4D42078EE
:102BE000800719D5706810F00C0F07D0706800F0DE
:102BF0000C00082827D17068C00324D430688007EF
:102C000003D52069012840F0A6803068616920F072
:102C1000F80040EAC1003060207800074ED5A06976
:102C200038B30020C4F242200121C0F88014FEF71E
:102C30005BFF0546706A80072DD4FEF755FF401BE9
:102C40000228F7D9D6E02069002840F20000C4F23B
:102C5000422000F0A88001210160FEF745FF0546F3
:102C600030688007D1D4FEF73FFF401B0228F7D918
:102C7000C0E00020C4F242200021C0F88014FEF71A
:102C800033FF0546706A800718D5FEF72DFF401BFD
:102C90000228F7D9AEE040F21000C2F2000000684E
:102CA00044F6D351C1F26201A0FB0101480A019030
:102CB00000BF0198411E00280191F9D120784007FA
:102CC00017D4E5698DB1706800F00C00082846D172
:102CD000012D40D07068216A00F480328A423AD1D6
:102CE000616A00F47010884235D1002002B0BDE85E
:102CF000F081F0695FEAC00808D4F06940F08050C4
:102D0000F061F06900F080500090009847F20007F1
:102D1000C4F200073868C0050FD4386840F48070EA
:102D20003860FEF7E1FE05463868C00505D4FEF7B9
:102D3000DBFE401B6428F7D95CE0E568306A1DB112
:102D4000052D41D0012D43D020F001003062306AC2
:102D500020F004003EE0012002B0BDE8F081002731
:102D6000C4F2422700203866FEF7BEFE022D05465B
:102D70000ED100BF3068800153D5FEF7B5FE401B71
:102D800002284FF00300F5D902B0BDE8F08100BF82
:102D900030688001A9D5FEF7A7FE401B02284FF03E
:102DA0000300F5D9F0E700210160FEF79DFE05461E
:102DB000306880077FF530AFFEF796FE401B022893
:102DC0004FF00300F4D9DFE740F004003062306ACE
:102DD00040F001003062FEF787FE002D054641F20B
:102DE000883712D0306A800712D4FEF77DFE401B70
:102DF000B842F7D9032002B0BDE8F081FEF774FEB7
:102E0000401BB8424FF00300BED8306A8007F5D4AB
:102E1000B8F1000F3FF555AFF06920F08050F06138
:102E20004FE7206AB0F5803F05D17168A26821F4B0
:102E30000031114371607168626A21F474111143A9
:102E40000843706001203866FEF74EFE044600BF5E
:102E5000306880013FF549AFFEF746FE001B0228AF
:102E60004FF00300F4D98FE770470000704700006F
:102E700090F83C20012A4FF0020234D010B5012313
:102E800080F83C3080F83D200268D2F804E0D2F8A7
:102E900008C00C682EF07003234340F2FF74C4F2A4
:102EA0000004A242536005DCB2F1804F0ED040F224
:102EB000004307E042F60043C4F201039A4205D002
:102EC00040F60003C4F200039A4204D149682CF092
:102ED0008003194391600121002280F83D1080F8A1
:102EE0003C20BDE81040104670470000002804BF99
:102EF0000120704710B590F83D1031B9002180F8DD
:102F00003C10044600F066F82046022180F83D108F
:102F1000016840F2FF740B68C4F2000442F6004CF2
:102F2000A142C4F2010C05DCB1F1804F0AD040F29D
:102F3000004203E0614505D040F60002C4F2000201
:102F4000914203D1826823F070031343A14205DC50
:102F5000B1F1804F0AD040F2004203E0614505D054
:102F600040F60002C4F20002914203D1026923F448
:102F700040731343846923F08002D0F804E0C368EF
:102F8000224361450A60CB62C1F828E002D1426960
:102F9000CCF8302001224A610B69DB0703D00B69B2
:102FA00023F001030B6180F8462080F83E2080F872
:102FB0003F2080F8402080F8412080F8422080F8AF
:102FC000432080F8442080F8452080F83D200020F0
:102FD00010BD0000006842F60041C4F201018842C1
:102FE00018BF704781B041F21800C4F202000168B6
:102FF00041F400610160006800F4006000900098F6
:1030000001B0704790F83D1001291CBF01207047A6
:10301000022180F83D10006840F2FF72C168C4F2DE
:103020000002904241F00101C16005DCB0F1804F27
:103030000ED040F2004107E042F60041C4F2010127
:10304000884205D040F60001C4F20001884206D152
:10305000816801F00701062904BF0020704701685C
:1030600041F00101016000207047000090F83C2011
:10307000012A4FF002026ED080B5012380F83C3067
:1030800080F83D20D0F800C04FF67772DCF80830A9
:1030900023EA0202CCF808200B684F2B28DC1F2BF8
:1030A00044DD202B45D0302B43D0402B40F0AC806A
:1030B000D1F804E0C968DCF82030DCF8202022F0E8
:1030C0000102CCF82020DCF8182022F0F00242EABD
:1030D000011123F00A0242EA0E02CCF81810CCF8D3
:1030E0002020DCF8081041F0470121F0300127E0F2
:1030F0006F2B32DDB3F5005F73D0B3F5805F21D065
:10310000702B40F08180D1E901E3C968DCF8082028
:1031100043EA0E0322F47F4243EA01211143CCF833
:103120000810DCF8081041F0770109E00BB1102B12
:103130006AD1DCF8081021F07001194341F0070151
:10314000CCF808100022012180F83D10002180F801
:103150003C10BDE8804010467047502B21D0602BBA
:1031600052D1D1F804E0C968DCF82030DCF8202026
:1031700022F01002CCF82020DCF8182022F4704253
:1031800042EA013123F0A00242EA0E12CCF81810F4
:10319000CCF82020DCF8081041F0670121F0100184
:1031A000CEE7D1F804E0C968DCF82030DCF8202054
:1031B00022F00102CCF82020DCF8182022F0F002E6
:1031C00042EA011123F00A0242EA0E02CCF818107A
:1031D000CCF82020DCF8081041F0570121F0200144
:1031E000AEE7D1E901E3C968DCF8082043EA0E0341
:1031F00022F47F4243EA01211143CCF80810DCF8A5
:10320000081041F480419BE701229CE770470000D1
:1032100070B504460068C5680669B10716D515F093
:10322000020113D06FF00201016101212177806951
:10323000800703D02046FFF7E9FF05E0204600F0B5
:103240008DF8204600F02AFA00202077700718D564
:1032500015F0040015D020686FF00401016102210F
:103260002177806910F4407F03D02046FFF7CEFF1E
:1032700005E0204600F072F8204600F00FFA00202A
:103280002077300717D515F0080014D020686FF0AC
:103290000801016104212177C069800703D020461D
:1032A000FFF7B4FF05E0204600F058F8204600F094
:1032B000F5F900202077F00618D515F0100015D08C
:1032C00020686FF01001016108212177C06910F4B6
:1032D000407F03D02046FFF799FF05E0204600F02D
:1032E0003DF8204600F0DAF900202077F00718BFFB
:1032F00015F0010002D1300609D412E020686FF009
:1033000001010161204600F027FA300609D515F0C9
:10331000800006D020686FF0800101612046FFF731
:10332000A3FD700609D515F0400006D020686FF0A7
:1033300040010161204600F019FAB00658BF70BD87
:1033400015F0200008D021686FF0200220460A61A5
:10335000BDE87040FFF78ABD70BD000070470000F7
:1033600090F83C30012B04BF022070474FEAB202B4
:103370000123032A80F83C3000F2EC802DE9F04173
:10338000DFE802F002A63B76036842F600451C6ABD
:103390001A6AC4F2010522F001021A621A46D3F831
:1033A00004C052F818EF8E6824F00204AB4244EADD
:1033B000060405D1CE6824F00C0426F0040634433C
:1033C0000E68AB4206D1D1E905582CF440772F4363
:1033D00047EA080C2EF073073743C3F804C09F6117
:1033E0004F6809695F631C629F6947F008079F6126
:1033F0009F6927F004079F61A6E0036842F6004535
:103400001C6A1A6AC4F2010522F480721A621A4612
:10341000D3F804C052F81CEF8E6824F40074AB4259
:1034200044EA062407D1CE6840F2FF47360224F46E
:103430004064BE4334430E68AB4206D1D1E9055720
:103440002CF4405C3D434CEA051C2EF073073743D7
:10345000C3F804C0DF614F680969DF631C62DF697C
:1034600047F00807DF61DF6927F00407DF616BE0E1
:10347000036842F60047D3F820C01A6AC4F2010775
:1034800022F480521A621A465C6852F81C5FD1F826
:1034900000E08E68BB4204D14F6924F4804444EAC2
:1034A00087142CF4005747EA063725F4E64646EA27
:1034B0000E265C60DE614E6809691E641F62DF696A
:1034C00047F40067DF61DF6927F48067DF613AE076
:1034D000036842F600451C6A1A6AC4F2010522F02C
:1034E00010021A621A46D3F804C052F818EF8E6818
:1034F00024F02004AB4244EA061407D1CE686FF0F2
:10350000400724F0C00407EA061634430E68AB42B5
:1035100006D1D1E905572CF4406C3D434CEA850CAB
:103520002EF4E64747EA0627C3F804C09F614F68B8
:1035300009699F631C629F6947F400679F619F69E7
:1035400027F480679F610902136819430023116003
:10355000BDE8F041002180F83C101846704700009B
:10356000002804BF0120704710B590F83D1031B914
:10357000002180F83C10044600F066F82046022145
:1035800080F83D10016840F2FF740B68C4F200043B
:1035900042F6004CA142C4F2010C05DCB1F1804FAF
:1035A0000AD040F2004203E0614505D040F6000237
:1035B000C4F20002914203D1826823F070031343E6
:1035C000A14205DCB1F1804F0AD040F2004203E095
:1035D000614505D040F60002C4F20002914203D1D9
:1035E000026923F440731343846923F08002D0F806
:1035F00004E0C368224361450A60CB62C1F828E059
:1036000002D14269CCF8302001224A610B69DB0704
:1036100003D00B6923F001030B6180F8462080F88A
:103620003E2080F83F2080F8402080F8412080F83C
:10363000422080F8432080F8442080F8452080F81C
:103640003D20002010BD000082B0006840F2004123
:10365000C4F20001884211D0B0F1804F1BD141F279
:103660001C00C4F20200016841F001010160006821
:1036700000F001000190019802B0704741F21C0077
:10368000C4F20200016841F002010160006800F02C
:1036900002000090009802B07047000070470000E0
:1036A0004122082908BF4022042908BF3F220029DF
:1036B00008BF3E22825C012A1CBF01207047022203
:1036C00041B1082909D0042914BF80F8412080F8AD
:1036D0003F2004E080F83E2001E080F840200068B0
:1036E00001F01F010122036A8A4023EA02010162FC
:1036F000036A42F64441C4F201011A43A1F14403B2
:103700009842026203D10A6842F400420A6040F221
:10371000FF71C4F20001884205DCB0F1804F0ED089
:1037200040F2004107E042F60041C4F20101884244
:1037300005D040F60001C4F20001884206D181683C
:1037400001F00701062904BF00207047016841F01D
:103750000101016000207047006840F60001C4F2DA
:103760000001884218BF7047FEF7BABF70470000DB
:10377000002804BF0120704710B5044690F84100AE
:1037800028B9002084F84000204600F061F8242089
:1037900084F841002068D4E90212C36823F400537E
:1037A000C360036923F440531A430261D4E904233C
:1037B0001143C268194341F20C639A431143C1603B
:1037C0004169A26921F44071114343F60002C4F239
:1037D00001029042416102D0FFF782F901E0FFF758
:1037E00093F9D4E90023192148439900B0FBF1F083
:1037F00048F21F5CC5F2EB1CA0FB0C314FF69C732A
:103800004909C0F6FF7301FB0300322303EB0010EC
:10381000A0FB0C03F02000EA531000EB0110C3F3EF
:103820004311084490601069202120F490401061F9
:10383000506920F02A005061D06840F40050D060F8
:103840000020606484F8411084F84210606310BD69
:1038500070B586B040F60004C4F201040068A4F517
:103860004441002688420596CDE90366029601D0C0
:1038700006B070BD41F21800C4F20200416802AD0A
:1038800041F400314160416801F400310191019936
:10389000016841F0040101600068294600F004005D
:1038A00001900198042002900220039003200590CB
:1038B0002046FEF70BF80820CDE9020620462946EF
:1038C0000496FEF703F806B070BD00002DE9F04342
:1038D00081B0044690F84100202809D1884600298B
:1038E0004FF0010018BF002A06D101B0BDE8F083F7
:1038F000022001B0BDE8F0830020606421201D4655
:1039000084F841001646FEF7EFF8A684E684A16825
:103910000646B1F5805F02D1206900284DD0C1462E
:103920004FF00008E08C40B36F1C0BE0B9F1000FC2
:103930001AD019F8010B21684860E08C0138E08446
:10394000E08CD0B1206800680006EFD4002FF9D0D9
:10395000FEF7CAF801464FF0030045B3891BA942A0
:1039600025D82068C068EDE738F8020B21686FF3AE
:103970005F2048604FF00009DFE7206800684006DC
:1039800014D46F1C04E000BF2068006840060DD40A
:10399000002FF9D0FEF7A8F801464FF0030035B12B
:1039A000891BA94203D82068C068EDE700202021C8
:1039B00084F8411001B0BDE8F0834FF00009B1E791
:1039C000FEE70000012000F031BA00002DE9F04FC1
:1039D00083B004460068DDF834B00C9E0768994651
:1039E00047F4806707600768904647F48073036078
:1039F00040698A4610F001002AD180F00107751C49
:103A00000BE000BF20684069C00711D02068406902
:103A100010F0010080F001071AD1002DF6D0FEF75A
:103A200063F8002EEED0A0EB0B00B042EED9E9E730
:103A300000202021206384F83D1084F83E00216C92
:103A400041F020012164F90784F83C0040F0B78080
:103A500020680AF0FE0AC0F810A0416989072CD43A
:103A60004169490514D4771C5FB1FEF73DF81EB1DA
:103A7000A0EB0B00B04204D920684069800740F1F8
:103A8000D18020684169890717D441694905EBD580
:103A9000016841F4007101606FF4806141610020B0
:103AA0002021206384F83D1084F83E00216C41F011
:103AB0000401216484F83C00B0E0002002902068FA
:103AC00050F8141F02914168029102990168090699
:103AD0001AD4771C0AE000BF20684069000640F154
:103AE0008880206850F8141F09060DD40168490524
:103AF00051D4002FF5D0FDF7F7FF002EECD0A0EB4E
:103B00000B00B042EDD9E7E72068B9F1010F21D0F1
:103B10004FEA1821016150F8141F090619D4771CC7
:103B200009E000BF20684069000662D5206850F8AF
:103B3000141F09060DD4016849052CD4002FF5D0B7
:103B4000FDF7D2FF002EEDD0A0EB0B00B042EDD977
:103B5000E8E720685FFA88F10161206850F8141FD7
:103B600009061DD4771C08E020684069000640D58E
:103B7000206850F8141F090612D4016849050AD4B8
:103B8000002FF5D0FDF7B0FF002EEDD0A0EB0B001D
:103B9000B042EDD9E8E76FF480610160042029E0CC
:103BA000206800220168334641F48071016020469C
:103BB0004FF00111CDF800B000F0A0F950B120682D
:103BC0000068C00544BF4FF400702064032003B0B8
:103BD000BDE8F08F25684AF001070221C0F201011B
:103BE000204632465B462F6103B0BDE8F04F00F03F
:103BF000C9B9202000212022216384F83D2084F8C7
:103C00003E10226C1043206484F83C10206C042881
:103C100004D12068016841F400710160012003B003
:103C2000BDE8F08F00202021206384F83D1084F847
:103C30003E00216C41F020013BE700002DE9F04FF0
:103C400081B00446006890460268DDF82CA042F47A
:103C50008072026040690A9E994610F001008B460E
:103C600034D180F00105771C0BE000BF206840696B
:103C7000C00711D02068406910F0010080F00105F4
:103C800024D1002FF6D0FDF72FFF002EEED0A0EBB1
:103C90000A00B042EED9E9E700202021206384F831
:103CA0003D1084F83E00216C41F020012164E907B9
:103CB00084F83C000AD020680068C00544BF4FF477
:103CC00000702064032001B0BDE8F08F20680BF085
:103CD000FE010161416989072DD44169490515D467
:103CE000751C00BF5DB1FDF7FFFE1EB1A0EB0A0021
:103CF000B04204D920684069800740F18C80206878
:103D00004169890717D441694905EBD5016841F438
:103D1000007101606FF48061416100202021206307
:103D200084F83D1084F83E00216C41F004012164C8
:103D300084F83C006BE000200090206850F8141FCD
:103D400000914168009100990168090619D4751C19
:103D500009E000BF20684069000643D5206850F89C
:103D6000141F09060DD4016849052ED4002DF5D085
:103D7000FDF7BAFE002EEDD0A0EB0A00B042EDD95F
:103D8000E8E72068B9F1010F25D04FEA1821016159
:103D900050F8141F09061DD4751C08E020684069FE
:103DA00000061FD5206850F8141F090612D40168B8
:103DB00049050AD4002DF5D0FDF796FE002EEDD072
:103DC000A0EB0A00B042EDD9E8E76FF48061016032
:103DD000042008E020685FFA88F10161002001B04A
:103DE000BDE8F08F202000212022216384F83D20AF
:103DF00084F83E10226C1043206484F83C10206C40
:103E0000042804D12068016841F400710160012098
:103E100001B0BDE8F08F00202021206384F83D1020
:103E200084F83E00216C41F0200180E710B50128A4
:103E30000CD0C8B940F65804C2F20004206810B192
:103E400000F04CF990B14FF0FF3010BD40F224105B
:103E5000C2F20000FDF74EFE4FF480604FF40061A7
:103E600000F0D2F800F0BEFB002010BD2068FDF786
:103E700041FE4020802100F0C7F800F091FB00F0E7
:103E800087F9002010BD0000F0B581B0044600683D
:103E9000154650F8143F5A0718D40E464F1C08E038
:103EA00020684069400719D5206850F8141F490759
:103EB0000CD4016849050CD4002FF5D0FDF714FE91
:103EC000002EEDD0401BB042EED9E9E7002001B052
:103ED000F0BD6FF480610160042000E0202000212B
:103EE0002022216384F83D2084F83E10226C104388
:103EF000206484F83C10012001B0F0BD2DE9F047AA
:103F0000DDF8208099461646044601F47F00182704
:103F10008DB203F1010AB0F5803F08BF142708E015
:103F20002068C0592840401BB0FA80F04009864202
:103F300018D02068C0592840401BB0FA80F04009D2
:103F400086420CD1BAF1000FF3D0FDF7CDFDB9F1E7
:103F5000000FE5D0A0EB08004845EAD9E0E70020D3
:103F6000BDE8F08700202021206384F83D1084F80C
:103F70003E00216C41F02001216484F83C000120C6
:103F8000BDE8F0872DE9F041044600689846436992
:103F90008FB203EA0701B94202D10020BDE8F081E7
:103FA0004169490517D41646551C00BF5DB1FDF7A0
:103FB0009BFD1EB1A0EB0800B04204D92068406907
:103FC0003840B8421ED1206841693940B942E4D036
:103FD00041694905EAD5016841F4007101606FF457
:103FE00080614161042000212022216384F83D206A
:103FF00084F83E10226C10432064012084F83C10A9
:10400000BDE8F0812020EEE7F0B585B0064611202E
:1040100040F6004502900120C4F201050390022001
:1040200001AF0C460490284639460196FDF74EFC38
:10403000284639460194FDF749FC284621460122CD
:10404000FDF74CFD092700BF284631460022FDF749
:1040500045FD0120FDF768FB284631460122FDF7AA
:104060003DFD0120FDF760FB013FEDD128462146D3
:1040700000220027FDF732FD00970098092805DC93
:1040800000980130009000980A28F9DB2846314654
:104090000122FDF723FD00970098092806DC00BFE8
:1040A00000980130009000980A28F9DB2846214644
:1040B0000122FDF713FD002000900098092805DC7F
:1040C00000980130009000980A28F9DB05B0F0BD97
:1040D00040F65801C2F200010860704740F28000CB
:1040E000C2F200000068002804BF0020704780B5BD
:1040F0000A2100F0F5FF002818BF4FF0FF3080BD07
:104100002DE9F04184B0012836D840F65807C2F2B4
:1041100000073C6884B320B10520C0B204B0BDE8FC
:10412000F081002B4FF00400F7D00A9F002FF4D04D
:104130001D460E469046FFF7D1FF08B10120ECE77F
:104140004FF0050C2046314642460123CDE9005789
:10415000CDF808C0FDF748FF044600F019F8032C1D
:1041600008D8E00040F20021C0B2C0F2011121FAEB
:1041700000F0D2E70220D0E74AF248604AF25761E5
:10418000C0F60000C0F600013A22FCF7A9F90000D1
:1041900040F28000C2F200000068002808BF7047AB
:1041A00001F004B82DE9F04184B0012836D840F67A
:1041B0005807C2F200073C6884B320B10520C0B2A2
:1041C00004B0BDE8F081002B4FF00400F7D00A9F47
:1041D000002FF4D01D460E469046FFF77FFF08B132
:1041E0000120ECE74FF0050C204631464246012302
:1041F000CDE90057CDF808C0FEF70AF90446FFF7ED
:10420000C7FF032C08D8E00040F20021C0B2C0F282
:10421000011121FA00F0D2E70220D0E74AF248600B
:104220004AF25761C0F60000C0F600011B22FCF7FD
:1042300057F90000B0B582B004460020ADF8060082
:10424000080A8DF806008DF8071002250DF1060307
:104250002046802105220095FFF7A4FF08B102B097
:10426000B0BD42F24170ADF806000DF106032046E4
:10427000802100220095FFF795FF02B0B0BD00003D
:10428000F0B583B0064600204FF00407ADF80A00F1
:10429000E2B10D4608460021144605F05DFEA8B9BE
:1042A00002270DF10A033046802104220097FFF710
:1042B00027FF074650B9BDF80A00C0BA05F0B6FEA0
:1042C0000146284605F032FF00272060384603B03B
:1042D000F0BD0000F0B583B0064600204FF00407A3
:1042E000ADF80A00E2B10D4608460021144605F07B
:1042F00033FEA8B902270DF10A03304680210222BD
:104300000097FFF7FDFE074650B9BDF80A00C0BA96
:1043100005F08CFE0146284605F008FF00272060C6
:10432000384603B0F0BD000000061CBF02207047F5
:1043300010B540F21400C2F2000000210224017006
:10434000002040F2AA61FFF775FF012803D1002C7D
:10435000A4F10104F4D1002818BF012010BD000011
:1043600070B50C4605460226002029462246FFF776
:1043700087FF012803D1002EA6F10106F4D1002801
:1043800018BF012070BD000070B50C46054602261E
:10439000002029462246FFF79DFF012803D1002E69
:1043A000A6F10106F4D1002818BF012070BD00005D
:1043B00080B54AF20450C0F6000000F0B3FE40F2AF
:1043C000C001C2F2000108604AF2D040C0F600000D
:1043D00000F0A8FE40F28001C2F2000108604AF23B
:1043E0006C50C0F6000000F09DFE40F2CC01C2F21D
:1043F0000001086044F6C1204AF24852C0F60000AD
:10440000C0F60002002100F08BFF40F2C801C2F2AA
:104410000001086044F6A5504AF21452C0F60000AC
:10442000C0F60002002100F07BFF40F2C401C2F29E
:104430000001086044F649404AF2E042C0F600003C
:10444000C0F60002002100F06BFF40F28C01C2F2C6
:104450000001086045F661704AF2A052C0F6000003
:10446000C0F60002002100F05BFF40F66001C2F2DE
:104470000001086046F249104AF2C452C0F600003A
:10448000C0F60002002100F04BFF40F66401C2F2CA
:104490000001086045F6A5504AF27C52C0F60000C3
:1044A000C0F60002002100F03BFF40F65C01C2F2C2
:1044B0000001086080BD00002DE9F04786B04FF094
:1044C000000841F21800CDE90488CDE90288C4F261
:1044D0000200016840F6000441F01001016001682B
:1044E000C4F2010401F0100101910199016804F581
:1044F000006641F0200101600168012201F0200105
:104500000191019901684FF4005541F004010160E7
:104510000168012701F0040101910199016841F04E
:104520000801016000684FF4005100F0080001909C
:1045300001983046FDF7D2FA20464FF40071002270
:104540004FF40079FDF7CAFA02A880E8A00102AD95
:104550004FF0020A30462946CDF814A0FDF7B6F90F
:104560004FF4604000260290C1F2210604F58060FD
:104570002946CDE90367FDF7A9F94FF4807002A938
:10458000C1C120462946FDF7A1F920462946CDE9BB
:104590000297CDE9048AFDF799F906B0BDE8F087E6
:1045A00080B540F2D00045F20041C2F20000C4F2F2
:1045B000000148F2A06200234FF4804CC0F20102D7
:1045C00080E80E00C0E9033CC0E90533C0E90733C9
:1045D000FDF7AAFA002808BF80BDBDE88040FDF7BE
:1045E0009DB8000080B540F2241045F60001C2F2EB
:1045F0000000C4F2000148F2A06200234FF4804C96
:10460000C0F2010280E80E00C0E9033CC0E90533B6
:10461000C0E90733FDF788FA002808BF80BDBDE870
:104620008040FDF77BB8000080B586B040F278107E
:1046300042F600420021C2F20000C4F20102472308
:104640004FF6FF7CCDE90411CDE90211CDE900114F
:10465000C0E90023C0E9021CC0E904118161FEF732
:1046600045FC002818BFFDF759F84FF48050029020
:1046700040F27810C2F2000002A9FEF7F7FC002811
:1046800018BFFDF74BF80020CDE9000040F278108C
:10469000C2F200006946FEF7EBFB002818BFFDF7E9
:1046A0003DF806B080BD0000B0B590B040F2C0103B
:1046B0000024C2F200004FF0804140F2E733099439
:1046C000CDE90744CDE90544CDE90344CDE90144F2
:1046D000032280E81600C0E903348461FEF740FF3E
:1046E000002818BFFDF71AF840F2C010C2F200000F
:1046F00008A9CDE90844FEF7BBFB002818BFFDF769
:104700000DF8602040F2C014019040F2A930C2F2CE
:1047100000040290002501A920460022039505957A
:10472000FEF71EFE002818BFFCF7F8FF206840F2D5
:104730000041C4F2000188420F95CDE90D550C955A
:1047400011D0B0F1804F27D141F21800C4F202001D
:10475000016841F004010160006800F004000B9062
:104760000B9801200DE041F21800C4F2020001682C
:1047700041F004010160006800F004000B900B9808
:1047800040200C9002200D900F9040F60000C4F2E3
:1047900001000CA9FDF79AF810B0B0BD70B590B04B
:1047A00040F2004540F20820C4F200050024C2F2A5
:1047B0000000032140F2E7320994CDE90744CDE936
:1047C0000544CDE90344CDE90144C0E90051C0E905
:1047D000024204618461FEF7C3FE002818BFFCF7A3
:1047E0009DFF40F20820C2F2000008A9CDE908446C
:1047F000FEF73EFB002818BFFCF790FF602040F258
:10480000082401904FF4A270C2F200040290002626
:1048100001A92046002203960596FEF7A1FD002877
:1048200018BFFCF77BFF2068CDE90E66A8420D9605
:104830000C9611D0B0F1804F25D141F21800C4F28E
:104840000200016841F004010160006800F004000A
:104850000B900B9801200DE041F21800C4F2020009
:10486000016841F004010160006800F004000B9051
:104870000B9840200C9002200D900F9005F582308F
:104880000CA9FDF723F810B070BD000080B540F210
:10489000982044F20041C2F20000C4F2000100235B
:1048A0004FF00C0C4FF4E13280E80E00C0E9033306
:1048B000C0E905C3C361FEF75BFF002808BF80BDE8
:1048C000BDE88040FCF72ABFFEE70000FEE70000DD
:1048D000EFF30980BFF36F8F0D4B1A6820E9F00FDB
:1048E00010602DE908404FF0500080F3118803F06C
:1048F0008FF94FF0000080F31188BDE80840196877
:104900000868B0E8F00F80F30988BFF36F8F704735
:10491000E003002070B5022832D205460E46084654
:104920004FF07E51144605F01EFB88BB0021C4F2F7
:104930007811304605F017FB50B32046002105F0F2
:104940000BFB68BB0021C4F22011204605F004FBDC
:1049500030B340F29001C2F200010020C1E9020030
:10496000C1E90400C1E906004FF0013001220862EC
:104970000020C1E90A52C1E9006481F8242070BD19
:104980004AF275610AA0C0F600011622FBF7A8FDE5
:104990004AF2756112A0C0F600011722FBF7A0FDD4
:1049A0004AF2756118A0C0F600011822FBF798FDC5
:1049B0005F656E5F737461203D3D205057525F45C7
:1049C0004E5F4F4646207C7C205F656E5F7374614E
:1049D000203D3D205057525F454E5F4F4E00000036
:1049E0005F7365745F766F6C203E3D20312E3066BC
:1049F000202626205F7365745F766F6C203C203123
:104A0000352E3566000000005F7365745F63757254
:104A1000203E20302E3066202626205F7365745F8E
:104A2000637572203C3D2031302E3066000000005E
:104A300040F2C000C2F200000068002804BF00205D
:104A4000704780B5052100F04BFB002818BF4FF0E0
:104A5000FF3080BD40F2C000C2F2000000680028B4
:104A600004BF0020704780B500F0A0FB002818BFED
:104A70004FF0FF3080BD000000000000000000008B
:104A8000074B19680868B0E8F00F80F30988BFF396
:104A90006F8F4FF0000080F311884EF00D0E7047BD
:104AA000E003002080B540F2D000C2F20000FFF722
:104AB0000FFB002080BD00000020FFF7B7B9000009
:104AC000012000F0CBFAFBE780B54EF21000CEF2E9
:104AD0000000006803F0C2FF012808BF80BDBDE8E8
:104AE000804003F04BB900007047000040F25020B6
:104AF000C2F20000FEF78CBBB0B582B00022ADF868
:104B0000062051B10D4602240DF1060390210094B8
:104B1000FFF7F6FA20B102B0B0BD042002B0B0BD7C
:104B2000BDF8060000BA001505F080FA4FF0765186
:104B300005F0FCFA0021CCF22021044605F013FA1E
:104B400000284FF00300E6D10021C4F2483120468E
:104B500005F0F4F901460320002904BF2C60002071
:104B600002B0B0BDB0B50446022500BF002021460A
:104B7000FFF7C2FF012803D1002DA5F10105F5D1F2
:104B8000002818BF0120B0BD40F27811C2F2000128
:104B9000096800224A620A6842F001020A6000BF06
:104BA0004A6A8242FCD3086A41F21112104200D0D4
:104BB0007047086A40F24442104218BF70470868C4
:104BC00020F001000860704783B0B0B5A1B0844602
:104BD00025A801AC0EC025AB20468021624600937B
:104BE000FBF75EFB05462046FBF7BAFC82B20120CC
:104BF0002146142300F086F9002818BF4FF0FF3536
:104C0000284621B0BDE8B04003B0704740F2CC0068
:104C1000C2F200000068002804BF0020704780B581
:104C2000052100F05DFA002818BF4FF0FF3080BD6D
:104C300040F2CC00C2F200000068002808BF7047B4
:104C400000F0B4BAFEE7000082B003F01BFF0024BE
:104C500040F2C00B40F29006C4F2C0044FF4FA7563
:104C6000C2F2000BC2F200060FF220190DF1040A85
:104C7000019012E040A00021FFF7A6FF40F28C0057
:104C8000C2F20000006802F0F9FB01464846FFF757
:104C90009BFF5046322102F0E1FDDBF8000068B1D5
:104CA000052100F01DFA002818BF4FF0FF3040B179
:104CB0004FF00008B8F1000FDCD045E000200028DC
:104CC000F6D1B06A01280ED140F2E0204FF0000882
:104CD000C2F20000C0F8008040F2E820C2F20000FA
:104CE000C0F8008001E04FF00108B76800213846A5
:104CF00005F02BF968B940F2E0204FF00008C2F24D
:104D00000000C0F8008040F2E820C2F20000C0F8C5
:104D1000008096F82100346868B940F2E0204FF036
:104D20000008C2F20000C0F8008040F2E820C2F2A1
:104D30000000C0F80080DBF80000002818BF00F079
:104D400035FAB8F1000F95D02046394600F048FBFF
:104D5000284485B240F20820C2F20000B5F5487F31
:104D600028BF4FF448750068B5F5967F98BF4FF49B
:104D7000967545637EE700BF766F6C746167655F0B
:104D80007069643A25640D0A00000000766F6C7447
:104D90006167655F7069645F737461636B3A256412
:104DA0000D0A000040F60004C4F2010440F2C00500
:104DB00040F2900B40F2000840F20009C2F20005F8
:104DC000C2F2000B04F5006A04F58066CBF6807829
:104DD000C4F270190BE000BF20464FF40071FCF7DD
:104DE00077FE2868052100F07BF9002851D0782053
:104DF00000F034F9012000214FF0FF3200F032FAC8
:104E0000142000F02BF920464FF48071FCF760FE6F
:104E10000028E1D030464FF40051FCF759FE3046EF
:104E20004FF48041FCF754FE00BB2868002849D0AD
:104E3000052100F055F9002818BF4FF0FF30A8B940
:104E4000DBF80000414605F009F84FF07E510746B7
:104E500005F089F8002818BF4FF07E572868CBF876
:104E60000070002818BF00F0A1F900BF30464FF4D1
:104E70000041FCF72DFE0028B9D1286830B3052188
:104E800000F02EF9002818BF4FF0FF300028AED1F7
:104E900020E0DBF828204FF40071B2FA82F04709D5
:104EA0002046002A18BF0122FCF718FE50464FF496
:104EB00000513A46FCF712FE2868CBF8287000F043
:104EC00075F994E700200028D0D1B9E70020002828
:104ED0007FF48DAFDBF800004FF07E5104F0BEFF91
:104EE0004946074605F02AF800281CBF0027C4F2EF
:104EF00070172868CBF8007000283FF478AF00F0F6
:104F000055F974E770B51C4615460E46FFF77EFE50
:104F100010B10120C0B270BD40F29820C2F2000072
:104F200031462A462346FEF7D1FC0446FFF780FEB1
:104F3000032C09D8E00040F20021C0B2C0F20111F8
:104F400021FA00F0C0B270BD0220C0B270BD0000F6
:104F500090B0FDF7D3FB06AC20462821FBF78EFB73
:104F6000012006900A904FF4E01000254FF48031A4
:104F700002260F9020460595CDE90355CDE9015550
:104F8000CDE90715CDE90D61FDF7D2FD18B1EFF3BD
:104F9000108072B6FEE70F20CDE901064FF4806065
:104FA000CDE9040501A802210395FDF79DFC20B180
:104FB000EFF3108072B600BFFEE7FFF77DFAFFF750
:104FC000EFFAFFF771FBFFF7E9FBFFF75FFCFFF775
:104FD00009FBFFF729FB172005210022FDF748FCFC
:104FE0001720FDF733FC282005210022FDF740FCA7
:104FF0002820FDF72BFCFFF755FD40F66800C2F2B4
:10500000000001F099F940F2C010C2F20000002146
:10501000FEF746FB40F20820C2F200000021FEF736
:105020003FFB00210022C4F2C001C4F22012012083
:10503000FFF770FC05A0FFF7C7FD00F01FF8FFF7B2
:10504000B7F900F02FF800BFFEE700BF6D61696E91
:105050002073746172740D0A00000000EFF3058183
:1050600000291CBF6FF005007047002804BF002016
:10507000704780B502F09CFB002080BDEFF30580F7
:1050800000281CBF6FF00500704740F28800C2F294
:1050900000000168002911BF4FF0FF3001210160BD
:1050A00000207047EFF3058000281CBF6FF005005B
:1050B000704740F28800C2F20000016801291CBF5D
:1050C0004FF0FF30704780B54EF61F51CEF2000111
:1050D00000220A700221016002F040FD002080BD24
:1050E000EFF30582002A1CBF6FF0050070470246EF
:1050F00030F0010004BF6FF00300704710B50C469C
:10510000D20702D103F04AF901E003F033FA012893
:1051100004BF002010BD6FF00100002C08BF6FF02D
:10512000020010BD70B5EFF30581D1B9002814BF9E
:1051300045680025290714D4A8B1D0E90212B1B1FD
:105140004F2A4FF000024FF0000188BF0122A2B9A0
:1051500059B10646E8070CBF0120042002F026FEE4
:1051600013E0002070BD012104E000240FE0B2FA3A
:1051700082F149090022002AEAD081680646E80740
:105180000CBF0120042002F049FE0446304634B131
:10519000002814BF01680021204602F0D1FAE80778
:1051A0001CBF002C44F00104204670BDEFF30581C4
:1051B00000291CBF6FF005007047014630F0010068
:1051C00004BF6FF00300704780B5C90705D1002107
:1051D0000022002302F0E2FE01E002F0E9FF0138C4
:1051E00018BF6FF0020080BDB0B584B040B3B1F11C
:1051F000FF3F25DD4FF0FF320392EFF305821AB334
:1052000000250DF1080C0122002302950446CDF87B
:1052100000C003F07DFB03AB204600210022009577
:1052200003F076FB0298D0B14EF60450CEF20000A7
:105230004FF080510160BFF34F8FBFF36F8F0EE0CF
:105240006FF0030003900AE001220023044603F0FC
:10525000D9FA03AB20460021002203F0D3FA0398C9
:1052600004B0B0BD2DE9F04F83B09246EFF3058254
:105270002AB16FF00506304603B0BDE8F08F054651
:10528000002840D44FF0000B880758BFAB460C46AF
:1052900003F0F8FB6FF001084FEAC479544600268A
:1052A0000190BAF1000F08BF6FF0020803E000BFE1
:1052B0004646002FDFD00020594602AA234603F0BD
:1052C0009FFC07460128F3D1029806EA050140EA4F
:1052D0000106B9F1000F06EA050005D1D8B9BAF107
:1052E000000F06D117E000BFA84218BFBAF1000FA7
:1052F0000CD003F0C7FB0199401A241A4FF00000AC
:1053000038BF0446D5E76FF00306B4E7A84218BFDC
:105310006FF00206AFE7002808BF6FF00206AAE7A9
:1053200070B584B00B46002100280391EFF305818E
:1053300050D000294ED142B3D2F818E0BEF1000F90
:1053400008BF4FF0180EBEF1380F1BD81179C907EE
:1053500018D15569946811684FEA950C002D08BF63
:105360004FF0400C44B1D6685C2E04D31669002E71
:1053700018BF002D20D10CB9D468C4B10025002479
:105380005DB91DE0002004B070BD012400214FF084
:10539000180E4FF0400C002595B1946812690294E4
:1053A000CDE900E2624603F0B7F9039012E0146918
:1053B000B4FA84F46409EEE700240125002DECD151
:1053C00044B103AC1FFA8CF2CDE900E403F036F9E6
:1053D000012802D1039804B070BD0020E5E7000069
:1053E0002DE9F04F81B004F06DFF834640F20800D4
:1053F000C2F20000D0F8008040F20C00C2F20000BF
:105400002BF000454CF6CD410668C3F64C512846BA
:1054100004F0A2FD40F2E024C2F2000420B92168A9
:10542000584604F01BFD206000272068C4F2FA37BC
:10543000394604F091FD002808BF27600027206846
:10544000CCF2FA37394604F080FD002828464FF0A8
:105450007E5108BF276004F071FD002840F2E8206B
:10546000C2F200000168584618BF464604F02AFF01
:1054700040F20401C2F200010A6821688246104627
:1054800004F054FE07463046594604F04FFE3946B4
:1054900004F0E4FC04F0B6FC804640F20000C2F2E6
:1054A0000000026889465046114604F03FFE04F0B1
:1054B000A9FC064640F2E420C2F2000000680F4654
:1054C00004F0A0FC4CF6CD424CF6CC43CCF6CC42DA
:1054D000C3F6EC7304F0AAFA49F69A1249F6991346
:1054E00005460C46C9F69912C3F6B97330463946DB
:1054F00004F09CFA2A46234604F0F0F942464B4653
:1055000004F0ECF904F0B8F940F2E421C2F2000131
:10551000C1F800A040F2E821C2F20001C1F800B0D9
:1055200004F068FD01B0BDE8F08F00002DE9F04700
:10553000044602F011F842F69050C2F200000168F1
:1055400040F2E03701310160C2F20007396843F2EE
:10555000242A40F2F836C2F2000AC2F2000651B123
:10556000DAF8000000283ED13868E16AC06A884253
:1055700098BF3C6037E03C600068012833D10025CB
:10558000701901F0ADFF1435B5F58C6FF8D143F209
:105590008818C2F20008404601F0A2FF43F29C19AD
:1055A000C2F20009484601F09BFF43F2D010C2F25C
:1055B000000001F095FF43F24420C2F2000001F028
:1055C0008FFF43F23020C2F2000001F089FF40F269
:1055D000E830C2F20000C0F8008040F2F030C2F2C1
:1055E0000000C0F8009042F69C50C2F20000016832
:1055F00001310160616442F6A051C2F20001E06A2B
:105600000A68904288BF086000EB800006EB8000CB
:10561000211D01F093FF01F0C3FFDAF8000088B10B
:105620003868E16AC06A884228BFBDE8F0874EF654
:105630000450CEF200004FF080510160BFF34F8F55
:10564000BFF36F8FBDE8F08770B582B001F084FFC3
:1056500043F25C26C2F20006306850BB43F25C1491
:10566000C2F20004204601F03BFF43F27015C2F283
:105670000005284601F034FF40F2E430C2F2000099
:10568000046040F2F430C2F2000040F2EC2240F23A
:105690008C3305600025C2F20002C2F200030A202A
:1056A0001021009502F00CFC306010B103A102F053
:1056B00047F802B0BDE8704001F072BF546D7251FE
:1056C0000000000042F6945540F2F83A4EF60458B5
:1056D00043F2442742F69056C2F20005C2F2000A95
:1056E000CEF200084FF08059C2F20007C2F2000665
:1056F00003E000BF204601F06BFF2868C8B101F04D
:105700002BFFF868C468201D01F0A6FE3068013840
:10571000306028680138286001F042FF94F8590091
:105720000228EAD00128E5D070B9206B01F050FFC3
:10573000E0E7DAF800000228DFD3C8F80090BFF3F2
:105740004F8FBFF36F8FD8E74FF0500080F3118871
:10575000BFF36F8FBFF34F8FFEE70000064800686E
:10576000006880F3088862B661B6BFF34F8FBFF35D
:105770006F8F00DF00BF000008ED00E02DE9F04F63
:1057800085B0824603F07EF940F2DC39C2F20009AE
:10579000D9F800100546884249D240F2E434C2F2FA
:1057A000000420680168002943D043F25C2BC2F258
:1057B000000B08E07860206831463F6101F0A0FEF0
:1057C00020680168A9B3C068C768D0F800803E1D92
:1057D000304601F041FE396A3846884797F828007C
:1057E0004007EDD5B86940444045E3D88FB3DBF8B6
:1057F000000078B10020CDE90108039703F02EF9ED
:10580000DBF8000001A90022002302F0C7FB0028FA
:10581000D6D102E000200028D2D14FF0500080F312
:105820001188BFF36F8FBFF34F8F00BFFEE70020DB
:1058300007E040F2F431C2F200010A68086001207A
:105840002260CAF800002846C9F8005005B0BDE83B
:10585000F08F4FF0500080F31188BFF36F8FBFF3CC
:105860004F8F00BFFEE7000081B00020009040F2A3
:105870001C00C2F2000000684FF0500181F3118853
:10588000BFF36F8FBFF34F8F013001D0FEE700BF32
:1058900000980028FCD001B0704700008AB040F2A8
:1058A000E43B40F2F43A43F25C25C2F2000B02AC56
:1058B000C2F2000AC2F200050DF10409DBF8000093
:1058C00007681FB1C068D0F8008001E04FF0000801
:1058D00002F096F92046FFF751FF029911B103F04B
:1058E000E7FA83E0E7B180451AD85646824603F0CE
:1058F000DFFADBF80000C068C76807F1040B584600
:1059000001F0AAFD97F8280041070CD440F2E43BCF
:1059100000F0FA00C2F2000B87F82800B2465CE003
:10592000B7B100221AE0B9693F6101EB08005045A8
:10593000786029D9C24501D2404533D240F2E432E1
:10594000C2F2000210685946934601F0D9FDE5E71E
:10595000DAF800100968B1FA81F14A092B68A8EB5E
:105960000001184601F000FF03F0A2FA00283DD123
:105970004EF60450CEF200004FF080510160BFF3AC
:105980004F8FBFF36F8F31E0AAEB0800884209D236
:1059900030685946B24601F0B3FD40F2E43BC2F232
:1059A000000B1AE0002F00F0C2802868B24660B1F8
:1059B0000020CDE90608089703F050F8286806A9EA
:1059C0000022002302F0EAFA00E0002040F2E43B6B
:1059D000C2F2000B002800F0B480396A38468847CC
:1059E00004E0DBF8000001F08BFD00BF28682146D1
:1059F000002202F0FFFB00283FF460AF0298B0F1F4
:105A0000FF3F03DCDDE90320059990470298002859
:105A1000ECD4049F786910B1381D01F01DFD484693
:105A2000FFF7ACFE02990929E0D8DFE801F005058F
:105A3000054F395605054F3997F82810039ABE6966
:105A400041F0010187F82810B318394641F8043FA6
:105A500083423F6104D99042C3D2934203D2C0E74C
:105A6000801AB0422DD3396A3846884797F8280003
:105A70004007BBD5002F50D02868B0B30398B96950
:105A8000089708440021CDE9061002F0E7FF2868D6
:105A900006A90022002302F081FA0028A6D128E0FE
:105AA00097F8281041F00102039987F82820B9617E
:105AB00049B30A18394641F8042F82423F613FF644
:105AC00090AFDAF8000001F01BFD8FE797F828008F
:105AD00000F0FE0087F8280088E797F82800810783
