:020000040800F2
:1000000090210020210200088B2900085F1F0008B2
:10001000892900086B040008992E000800000000E0
:10002000000000000000000000000000890100083E
:10003000A904000800000000CD010008092A0008FA
:100040003B0200083B0200083B0200083B0200089C
:100050003B0200083B0200083B0200083B0200088C
:100060003B0200083B0200083B0200083B0200087C
:100070003B0200083B0200083B0200083B0200086C
:100080003B0200083B0200083B0200083B0200085C
:100090003B0200083B0200083B020008C9040008BC
:1000A0003B0200083B0200083B0200083B0200083C
:1000B0003B0200083B020008852A00083B020008BA
:1000C0003B0200083B0200083B0200083B0200081C
:1000D0003B0200083B0200083B0200083B0200080C
:1000E000AB0400083B0200083B02000800F002F8E5
:1000F00000F03AF80AA090E8000C82448344AAF188
:100100000107DA4501D100F02FF8AFF2090EBAE885
:100110000F0013F0010F18BFFB1A43F0010318473B
:100120009C5B0000BC5B0000103A24BF78C878C11B
:10013000FAD8520724BF30C830C144BF04680C60ED
:10014000704700000023002400250026103A28BF35
:1001500078C1FBD8520728BF30C148BF0B60704739
:100160001FB51FBD10B510BD00F045F91146FFF7D2
:10017000F7FF02F07DFF00F063F903B4FFF7F2FF31
:1001800003BC00F06BF90000224B19680868B0E866
:10019000F00F80F30988BFF36F8F4FF0000080F3FA
:1001A00011884EF00D0E70470000000006480068F0
:1001B000006880F3088862B661B6BFF34F8FBFF363
:1001C0006F8F00DF00BF00BF08ED00E0EFF3098094
:1001D000BFF36F8F0F4B1A6820E9F00F106008B55E
:1001E0004FF0500080F31188BFF34F8FBFF36F8F34
:1001F00004F0F8F94FF0000080F31188BDE80840E2
:1002000019680868B0E8F00F80F30988BFF36F8FB2
:10021000704700BF48000020EFF3058070470000E2
:100220000948804709480047FEE7FEE7FEE7FEE78A
:10023000FEE7FEE7FEE7FEE7FEE7FEE704480549C6
:10024000054A064B70470000812A0008ED000008AF
:10025000901B002090210020901D0020901D002068
:10026000032A40F2308010F0030C00F0158011F8E2
:10027000013BBCF1020F624498BF11F801CB00F8BA
:10028000013B38BF11F8013BA2F1040298BF00F80E
:1002900001CB38BF00F8013B11F0030300F0578099
:1002A000083AC0F0088051F8043B083A51F804CBF2
:1002B000A0E80810F5E7121D5CBF51F8043B40F8B8
:1002C000043BAFF30080D20724BF11F8013B11F8C3
:1002D00001CB48BF11F8012B24BF00F8013B00F807
:1002E00001CB48BF00F8012B704702F0FF0343EA3F
:1002F000032242EA024200F05EB84FF0000200B56D
:10030000134694469646203922BFA0E80C50A0E838
:100310000C50B1F12001BFF4F7AF090728BFA0E8E6
:100320000C5048BF0CC05DF804EB890028BF40F8B2
:10033000042B08BF704748BF20F8022B11F0804FF4
:1003400018BF00F8012B704770477047704710B511
:10035000203AC0F00B80B1E81850203AA0E81850BD
:10036000B1E81850A0E81850BFF4F5AF5FEA027C7E
:1003700024BFB1E81850A0E8185044BF18C918C0ED
:10038000BDE810405FEA827C24BF51F8043B40F88E
:10039000043B08BF7047D20728BF31F8023B48BF73
:1003A00011F8012B28BF20F8023B48BF00F8012BB1
:1003B00070474FF000020429C0F0128010F0030CC7
:1003C0003FF49DAFCCF1040CBCF1020F18BF00F854
:1003D000012BA8BF20F8022BA1EB0C01FFF78FBF68
:1003E0005FEAC17C24BF00F8012B00F8012B48BF55
:1003F00000F8012B7047754600F02CF8AE4605005A
:100400006946534620F00700854618B020B5FFF72F
:1004100015FFBDE820404FF000064FF000074FF0F9
:1004200000084FF0000B21F00701AC46ACE8C00912
:10043000ACE8C009ACE8C009ACE8C0098D4670471B
:1004400010B50446AFF300802046BDE81040FFF72A
:1004500094BE0000004870472C1B00200149182062
:10046000ABBEFEE7260002007047FEE70EB502A90C
:10047000094802F00DFC01AA0849074802F0F0F80B
:10048000074802F029F90090064800231A466946F9
:10049000406A02F033FF0EBDE40000206F12033A01
:1004A0000AD7A33A00000020704710B54FF400505F
:1004B00000F032F84FF4804000F02EF8BDE8104014
:1004C0004FF4004000F028B84FF4807000F024B8DA
:1004D00072B6FEE770B504460E4DB4F5807F06D1C6
:1004E000172000F0DFFE0121E86902F0DDFFB4F51E
:1004F000005F05D0B4F5804F02D0B4F5004F08D1AD
:10050000282000F0CFFEE869BDE87040012102F02C
:10051000CBBF70BD0000002010B504490A6802423C
:1005200002D00860FFF7D6FF10BD000014040140A0
:100530002DE9F84F00240023DFF8C4914FF00F0895
:10054000A9F1040B09F1040AABF1040ED1E0012773
:10055000A7403A40BA4275D1DFF8A8C14D68A5EB73
:100560000C0665452BD00DDC032D34D005DC35B3EE
:10057000012D19D0022D2FD11BE0112D16D0122DD7
:100580002AD119E0B6F5881F19D006DCB6F5803FF0
:1005900015D0B6F5801F1FD111E0B6F5001F0ED0A3
:1005A000B6F5041F18D10AE0CB6815E0CB681B1D17
:1005B00012E0CB6808330FE0CB680C330CE08B689B
:1005C00023B1012B04D00823476105E0042303E095
:1005D0000823076100E00023FF2A01D8054601E057
:1005E00000F1040502D84FEA840603E0A4F10806EE
:1005F0004FEA86062F6808FA06FC27EA0C0703FA7A
:1006000006F647EA06072F604D68ED0070D53E4DAF
:10061000AE6946F00106AE61AD6905F001050095D1
:100620003A4D24F003067719BE68A5072D0F08FA86
:1006300005FC26EA0C06DFF8D8C0604503D14FF070
:10064000000C17E054E0DFF8CCC0604502D14FF059
:10065000010C0FE0DFF8C0C0604502D14FF0020C82
:1006600008E0DFF8B8C0604502D14FF0030C01E0AC
:100670004FF0040C0CFA05FC4CEA060CC7F808C055
:100680004D68ED0205D5D9F800501543C9F8005062
:1006900004E0D9F800509543C9F800504D68AD0208
:1006A00005D5DAF800501543CAF8005004E0DAF82E
:1006B00000509543CAF800504D68AD0305D5DBF8EE
:1006C00000501543CBF8005004E0DBF80050954390
:1006D000CBF800504D68ED0305D5DEF8005015430A
:1006E000CEF8005004E0DEF800509543CEF80050FC
:1006F000641C0A6832FA04F57FF429AFBDE8F88F6C
:1007000008040140000011100010024000000140E8
:1007100000080140000C014000100140001401409D
:100720008068084201D00120704700207047002AED
:1007300001D0016170470904016170470148806878
:10074000704700003800002070B50446002C04D02B
:1007500094F83D00002510B106E0012070BD84F83A
:100760003C50204600F0E6FC242084F83D00206840
:10077000016821F0010101602068016841F4004135
:1007800001602068016821F40041016000F0A4FECE
:100790004F4B6168994203D84E49884203D304E025
:1007A0004D49884201D2012070BD4C49B0FBF1F1A6
:1007B0002268566826F03F060E43566062689A42E9
:1007C00001D8491C07E04FF4967251434FF47A72F6
:1007D000B1FBF2F1491C2268166A26F03F0631434C
:1007E00011626168994210D84900401EB0FBF1F2D5
:1007F000521CC2F30B02042A01D2042022E0B0FBF7
:10080000F1F0401CC0F30B001CE0A268F2B301EB56
:10081000C10303EB0116431EB3FBF6F35B1C43F469
:1008200080431B0549D092B301EBC10202EB0111D9
:10083000401EB0FBF1F0401CC0F30B0040F48040C0
:1008400040F400402168CA694CF6FF739A43104394
:10085000C861D4E9071001432068026822F0C00291
:1008600011430160D4E9030101432068826848F222
:10087000FF339A4311438160D4E905100143206896
:10088000C26822F0FF021143C16001E00EE016E0F1
:100890002068016841F0010101602564202084F88E
:1008A0003D00256384F83E50002070BD01EB4106F9
:1008B000431EB3FBF6F35B1CB3E70120C2E701EB79
:1008C0004101401EB0FBF1F0401CC0F30B00B7E744
:1008D000A086010080841E0000093D0040420F00F8
:1008E0002DE9FC470446DDF828908A4617469846CD
:1008F00000260196FFF722FF054694F83D002028C8
:1009000002D00220BDE8FC8719230122A849204615
:10091000009501F04DFD08B10220F3E794F83C008A
:10092000012807D0012084F83C0020680168C9072D
:1009300002D005E00220E5E7016841F00101016015
:100940002068016821F400610160222084F83D00E4
:10095000102084F83E0026646762A4F82A80608D27
:1009600020859448E0622B464A465146204601F0D5
:100970000FFB08B10120C5E7208D80B1012817D0F9
:10098000022825D02068016841F480610160206858
:100990004169806900902027DFF81C82FFE0206811
:1009A000416981690091016841F400710160F2E7D9
:1009B0002068016821F48061016072B62068416995
:1009C00081690091016841F40071016062B6E2E75B
:1009D0002068016841F40061016072B620684169D5
:1009E00081690091016821F48061016062B6D2E7FB
:1009F00003287DD801280BD002281FD04B460022A7
:100A000041462046009501F0D3FCE8B3012079E788
:100A10002A464946204601F085FD08B1012071E7CC
:100A200020680069616A0870606A401C6062208DFD
:100A3000401E2085608D401E6085B0E04B46002240
:100A400041462046009501F0B3FC08B1012059E76A
:100A500072B62068016841F4007101602068006985
:100A6000616A0870606A401C6062218D491E2185A0
:100A7000618D491E618562B6216809690170606AED
:100A8000401C6062208D00E005E0401E2085608DE6
:100A9000401E608583E02068016821F48061016068
:100AA00072B620680069616A0870606A401C606202
:100AB000208D401E2085608D401E60853F4846F297
:100AC000A8110068B0FBF1F0C0EBC00000EB8000A3
:100AD00001900198401E0190019830B32068406950
:100AE000C0434007F5D42068016841F4007100E07C
:100AF00027E0016020680069616A0870606A401C34
:100B00006062218D491E2185618D491E618562B615
:100B1000216809690170606A401C6062208D401E76
:100B20002085608D401E608539E044F8306F677322
:100B3000A673206940F02000206162B62673012070
:100B4000E0E62A464946204601F0ECFC08B10120C7
:100B5000D8E620680069616A0870606A401C6062BB
:100B6000208D401E81B22185608D401E60852068E9
:100B70004269D243520712D4032903D1016821F4F8
:100B80008061016020680069616A0870606A401CC9
:100B90006062208D401E2085608D401E6085208D06
:100BA00000287FF425AF3C346770A6702670A9E654
:100BB000020010000000FFFF0400010044000020BC
:100BC0002DE9F84F04468A4615469946DDF82880F7
:100BD000FFF7B4FD064694F83D00202802D002201D
:100BE000BDE8F88F1923012245492046009601F0FF
:100BF000DFFB08B10220F3E794F83C00012807D09E
:100C0000012084F83C0020680168C90702D005E093
:100C10000220E5E7016841F00101016020680168F8
:100C200021F400610160212084F83D00102084F847
:100C30003E00002727646562A4F82A90608D208515
:100C40003048E062334642465146204601F02AFAD7
:100C500008B10120C4E720684169806900903EE046
:100C600032464146204601F098FC48B1206C0428E9
:100C700004D12068016841F4007101600120AFE7F0
:100C8000606A216800780861656A6D1C6562608D24
:100C9000401E6085208D401E80B2208522685169EB
:100CA000C94349070BD450B128781061606A401CD1
:100CB0006062608D401E6085208D401E208532461A
:100CC0004146204601F048FB48B1206C042804D17D
:100CD0002068016841F400710160012080E7208DE7
:100CE0000028BDD11F3454F81F0C016841F4007175
:100CF00001602020A077E7776777002070E7000089
:100D0000020010000000FFFF2DE9FF4F83B00446F2
:100D1000DDE91198109F8A46934600260296FFF758
:100D20000DFD054694F83D00202803D0022007B0B1
:100D3000BDE8F08F19230122A9492046009501F052
:100D400037FB08B10220F2E794F83C00012807D0F5
:100D5000012084F83C0020680168C90702D005E042
:100D60000220E4E7016841F00101016020680168A8
:100D700021F400610160222084F83D00402084F8C5
:100D80003E0026646762A4F82A90608D208595480D
:100D9000E062CDE900855A4651462046069B01F0A7
:100DA000D9F908B10120C2E7208D80B1012817D000
:100DB000022825D02068016841F480610160206824
:100DC0004169806901902027DFF81C92FFE02068CC
:100DD000416981690191016841F400710160F2E7A4
:100DE0002068016821F48061016072B62068416961
:100DF00081690191016841F40071016062B6E2E726
:100E00002068016841F40061016072B620684169A0
:100E100081690191016821F48061016062B6D2E7C5
:100E200003287DD801280BD002281FD0434600227A
:100E300049462046009501F0BBFAE8B3012076E769
:100E40002A464146204601F06DFB08B101206EE7BD
:100E500020680069616A0870606A401C6062208DC9
:100E6000401E2085608D401E6085B0E04346002214
:100E700049462046009501F09BFA08B1012056E74B
:100E800072B62068016841F4007101602068006951
:100E9000616A0870606A401C6062218D491E21856C
:100EA000618D491E618562B6216809690170606AB9
:100EB000401C6062208D00E005E0401E2085608DB2
:100EC000401E608583E02068016821F48061016034
:100ED00072B620680069616A0870606A401C6062CE
:100EE000208D401E2085608D401E60853F4846F263
:100EF000A8110068B0FBF1F0C0EBC00000EB80006F
:100F000002900298401E0290029830B32068406917
:100F1000C0434007F5D42068016841F4007100E047
:100F200027E0016020680069616A0870606A401CFF
:100F30006062218D491E2185618D491E618562B6E1
:100F4000216809690170606A401C6062208D401E42
:100F50002085608D401E608539E044F8306F6773EE
:100F6000A673206940F02000206162B6267301203C
:100F7000DDE62A464146204601F0D4FA08B10120B8
:100F8000D5E620680069616A0870606A401C60628A
:100F9000208D401E81B22185608D401E60852068B5
:100FA0004269D243520712D4032903D1016821F4C4
:100FB0008061016020680069616A0870606A401C95
:100FC0006062208D401E2085608D401E6085208DD2
:100FD00000287FF425AF3C346770A6702670A6E623
:100FE000020010000000FFFF040001004400002088
:100FF0002DE9FF4F83B00446DDE911988A469346F8
:10100000109DFFF79BFB064694F83D00202803D077
:10101000022007B0BDE8F08F192301224349204682
:10102000009601F0C5F908B10220F2E794F83C00FF
:10103000012807D0012084F83C0020680168C90716
:1010400002D005E00220E4E7016841F001010160FF
:101050002068016821F400610160212084F83D00CE
:10106000402084F83E00002727646562A4F82A9097
:10107000608D20852E48E062CDE900865A465146B3
:101080002046069B01F006F980B30120C1E73246F5
:101090004146204601F081FA48B1206C042804D171
:1010A0002068016841F4007101600120B1E7606AC5
:1010B000216800780861656A6D1C6562208D401E9C
:1010C00080B22085618D491E618523685969C943B5
:1010D00049070BD450B128781861606A401C6062DF
:1010E000208D401E2085608D401E6085208D00284B
:1010F000CDD132464146204601F02EF948B1206C50
:10110000042804D12068016841F4007101600120C5
:101110007FE71F3454F81F0C016841F4007101602F
:101120002020A077E7776777002072E702001000A1
:101130000000FFFF10B586B00021029103910491D9
:10114000059100680F4988421AD10F4CA06940F000
:101150000800A061A06900F008000190C020029082
:10116000122003900320059002A90848FFF7E0F938
:10117000E06940F40010E061E06900F400100190C3
:1011800006B010BD0054004000100240000C0140A9
:10119000024881680278114481607047380000205D
:1011A00010B50748016841F010010160032000F00C
:1011B000B3F80F2000F006F800F050F8002010BD42
:1011C0000020024030B587B005461F48C16941F094
:1011D0000401C161C06900F00400009001A902A8E7
:1011E00000F056F90598B0B100F076F940001749C3
:1011F000B0FBF1F1491E1748154A026040F2E73290
:10120000C2604160002202618260826100F0A2FB44
:1012100004461CB115E000F05FF9E8E70D4800F066
:10122000BFFB04466CB91E2000F049F8102D07D210
:10123000002229461E2000F04FF80748056000E014
:10124000012407B0204630BD0010024040420F008C
:1012500000080040100200203C00002008B50F48A4
:10126000816941F001018161816901F00101009111
:10127000C16941F08051C161C06900F080500090A7
:1012800000220F21901E00F027F80549486820F041
:10129000E06040F00070486008BD000000100240AF
:1012A00000000140002809DB00F01F0201219140ED
:1012B0004009800000F1E020C0F88012704700284B
:1012C00009DB00F01F02012191404009800000F17C
:1012D000E020C0F800117047F0B40D460D4B1B68BC
:1012E000C3F30223C3F10704042C00D90424191DFD
:1012F000072901D2002300E0DB1E012606FA04F1D3
:10130000491E294099409E40761E16403143F0BC4C
:1013100001F028BE0CED00E000F00701054A10685E
:101320004FF6FF03184040EA0120034908431060CC
:10133000704700000CED00E00000FA052DE9F047D1
:1013400004460D46002C17D0DFF83081D8F8000095
:1013500000F00700A84211D2D8F8000020F00700E2
:101360002843C8F80000D8F8000000F00700A842A1
:1013700004D00120BDE8F0870120FBE72068404E43
:10138000810712D5400703D5706840F4E0607060B3
:101390002078000703D5706840F460507060706872
:1013A000A16820F0F000084370602078C0072CD0BE
:1013B0006068012806D0022809D0316889070BD45B
:1013C0000120D7E73168890306D40120D2E73168CC
:1013D000890101D40120CDE7716821F003010143A7
:1013E0007160FFF7ABF9074641F2883906E0FFF775
:1013F000A5F9C01B484501D90320BBE770686168A7
:1014000000F00C00B0EB810FF1D1D8F8000000F033
:101410000700A8420ED9D8F8000020F007002843A2
:10142000C8F80000D8F8000000F00700A84201D07A
:1014300001209FE72078400705D57068E16820F417
:10144000E060084370602078000706D57068216965
:1014500020F4605040EAC100706000F05DF87168EF
:10146000084AC1F30311515CC840074908600748A6
:101470000068FFF7A7FE00207CE700000020024084
:10148000001002403E5C0008440000203C000020A8
:101490000F2202600B4A536803F003034360536852
:1014A00003F0F0038360536803F4E063C3605268A1
:1014B00002F46052D20802610348006800F007009D
:1014C0000860704700100240002002400148006898
:1014D000704700004400002000B5FFF7F7FF044903
:1014E0004968044AC1F30221515CC84000BD0000B4
:1014F000001002404E5C000800B5FFF7E7FF04490A
:101500004968044AC1F3C221515CC84000BD0000D3
:10151000001002404E5C00080E4B59680E4801F066
:101520000C02042A11D0082A0FD10C48C1F38342BF
:10153000805CC9030AD55968084AC1F34041921E2C
:10154000515C054A5043B0FBF1F0704704494843F1
:10155000704700000010024000127A002E5C000864
:1015600000093D002DE9F84F0446002C0ED02078EC
:10157000D94DC0075ED06868C0F3810001280BD048
:101580006868C0F38100022803D00CE00120BDE8A8
:10159000F88F6868C00306D5286880034AD560685C
:1015A000A8BB0120F3E76068B0F5803F11D0A8B177
:1015B000B0F5A02F1BD0286820F480302860286860
:1015C00020F480202860606830B3FFF7B7F8064643
:1015D0001EE0286840F480302860F4E7286820F492
:1015E00080302860286820F480202860EBE7286895
:1015F00040F480202860286840F480302860E2E7CA
:10160000FFF79CF8801B642802D90320BFE711E094
:1016100028688003F4D50DE0FFF790F8064606E051
:10162000FFF78CF8801B642801D90320AFE72868F6
:101630008003F5D42078DFF8A48280074FF0010AF8
:101640004FF0000945D5686810F00C0F07D06868A6
:10165000C0F38100022812D16868C0030FD4286843
:10166000800704D52069012801D001208FE7286870
:10167000616920F0F80040EAC100286029E0206993
:10168000B8B1C8F800A0FFF759F8064606E0FFF722
:1016900055F8801B022801D9032078E728688007C5
:1016A000F5D52868616920F0F80040EAC10028609B
:1016B0000FE0C8F80090FFF741F8064606E0FFF794
:1016C0003DF8801B022801D9032060E728688007C5
:1016D000F5D42078000726D58148A16999B1C0F8D2
:1016E00000A0FFF72BF8064606E0FFF727F8801B5F
:1016F000022801D903204AE7686A8007F5D501204E
:1017000001F06CF90FE0C0F80090FFF717F80646FB
:1017100006E0FFF713F8801B022801D9032036E703
:10172000686A8007F5D42078400773D50026E869F9
:10173000C00008D4E86940F08050E861E86900F032
:10174000805000900126DFF89CB1DBF80000C00556
:1017500014D4DBF8000040F48070CBF80000FEF7F2
:10176000EDFF074606E0FEF7E9FFC01B642801D93C
:1017700003200CE7DBF80000C005F4D5E068012881
:1017800012D0B0B105281DD0286A20F001002862CF
:10179000286A20F004002862E06841F2883B28B300
:1017A000FEF7CCFF07461DE0286A40F001002862E2
:1017B000F2E7286A20F001002862286A20F004007D
:1017C0002862E9E7286A40F004002862286A40F0AD
:1017D00001002862E0E7FEF7B1FFC01B584501D9C0
:1017E0000320D4E6286A8007F5D50DE0FEF7A6FFB2
:1017F000074606E0FEF7A2FFC01B584501D90320AB
:10180000C5E6286A8007F5D4012E03D1E86920F0E7
:101810008050E861E069A0B36968C1F381010229E1
:1018200046D0022805D0C8F86090FEF787FF04462E
:101830003AE0C8F86090FEF781FF064606E0FEF742
:101840007DFF801B022801D90320A0E628688001C3
:10185000F5D4206AB0F5803F05D16868A16820F40E
:10186000003008436860D4E908010843696821F43E
:10187000741108436860C8F860A0FEF75FFF044673
:1018800007E026E0FEF75AFF001B022801D90320DB
:101890007DE628688001F5D51BE0FEF74FFF001BB1
:1018A000022801D9032072E628688001F5D410E0EF
:1018B00001280CD06868226A00F48031914204D17A
:1018C000616A00F47010884203D001205FE60120B5
:1018D0005DE600205BE6000000100240000042428E
:1018E00080044242007000407047704770B590F825
:1018F0003C20012A25D0012680F83C60022280F895
:101900003D2002685468936824F070050C682C43ED
:1019100054600D4C0268A24208D0B2F1804F05D04D
:101920000A4CA24202D00A4CA24204D123F0800306
:101930004968194391603C304670002101700020D5
:1019400070BD022070BD0000002C0140000400406A
:101950000008004010B50446002C03D094F83D0068
:1019600010B107E0012010BD002084F83C002046A3
:1019700000F015F8022084F83D00211D206801F0D8
:1019800087F801203D3460726070A070E0702071B3
:101990006071A071E07120722070002010BD70474E
:1019A00090F83D10012901D001207047022180F8F4
:1019B0003D100168CA6842F00102CA6000680E4921
:1019C000884208D0B0F1804F05D00C49884202D03F
:1019D0000B49884209D1816801F00701062908D026
:1019E000016841F00101016003E0016841F001017B
:1019F0000160002070470000002C014000040040FE
:101A00000008004070472DE9F04104462068C56891
:101A100006694FF00007B10714D5A90712D5F91EC2
:101A200001610120207720688069800703D020466B
:101A3000FFF7E8FF05E0204600F0BAF8204600F086
:101A400069F92777700717D5680715D521686FF0F2
:101A500004000861022020772068806910F4407F2C
:101A600003D02046FFF7CEFF05E0204600F0A0F8A7
:101A7000204600F04FF92777300716D5280714D5F0
:101A800021686FF008000861042020772068C06991
:101A9000800703D02046FFF7B5FF05E0204600F0A1
:101AA00087F8204600F036F92777F00617D5E806C4
:101AB00015D521686FF01000086108202077206894
:101AC000C06910F4407F03D02046FFF79BFF05E07C
:101AD000204600F06DF8204600F01CF92777F0074B
:101AE00008D0E80706D021686FF0010008612046A1
:101AF00000F068F9300608D5280606D521686FF091
:101B0000800008612046FFF7EFFE700608D56806E2
:101B100006D521686FF040000861204600F05CF9AE
:101B2000B0060AD5A80608D521686FF02000086124
:101B30002046BDE8F041FFF7D8BEBDE8F0810000C7
:101B400010B586B0002102910391049105910168BE
:101B5000144A02231448B1F1804F13D0134CA14210
:101B60000ED1916941F004019161916901F0040184
:101B70000191402102910393059302A9FEF7D8FC3D
:101B800006B010BD916941F004019161916901F0C5
:101B900004010191012102910393059302A9FEF72B
:101BA000C7FCEDE7001002400008014000040040BF
:101BB000704770B504460D46002694F83C00012895
:101BC0000FD0012084F83C006AB1042A1FD0082AF3
:101BD00032D00C2A44D00126002084F83C00304644
:101BE00070BD022070BD2946206800F09BFF206870
:101BF000816941F0080181612068816921F0040157
:101C00008161206881692A6911438161E4E729467D
:101C1000206800F0B7FF2068816941F400618161AC
:101C20002068816921F480618161206881692A6965
:101C300041EA02218161CFE72946206800F0D4FF04
:101C40002068C16941F00801C1612068C16921F0C3
:101C50000401C1612068C1692A691143C161BBE700
:101C60002946206800F0F0FF2068C16941F4006156
:101C7000C1612068C16921F48061C1612068C169C6
:101C80002A6941EA0221C161A6E710B50446002C89
:101C900003D094F83D0010B107E0012010BD0020F2
:101CA00084F83C00204600F015F8022084F83D003E
:101CB000211D206800F0ECFE01203D346072607050
:101CC000A070E07020716071A071E07120722070CE
:101CD000002010BD08B500680C49B0F1804F0BD052
:101CE0000B4A904207D1C86940F00200C861C86938
:101CF00000F00200009008BDC86940F00100C86112
:101D0000C86900F00100009008BD0000001002400A
:101D1000000400407047000010B50446002909D0B7
:101D200004290AD008290BD094F8410001280AD0D0
:101D3000012010BD94F83E00F8E794F83F00F5E765
:101D400094F84000F2E7022039B3042928D008298A
:101D500029D084F841000122206800F0D5FE164900
:101D60002068884203D1426C42F4004242642068F9
:101D7000884208D0B0F1804F05D01049884202D087
:101D80000F49884212D1816801F00701062911D05C
:101D9000016841F0010101600CE084F83E00DAE7DF
:101DA00084F83F00D7E784F84000D4E7016841F0A9
:101DB00001010160002010BD002C01400004004022
:101DC0000008004000680349884201D1FFF7E0B9EC
:101DD0007047000000080040704770B50446002CB2
:101DE00004D094F84100002510B106E0012070BD38
:101DF00084F84050204600F023F8242084F8410065
:101E00002068C16821F40051C160204600F0AEFF97
:101E10002068016921F4904101612068416921F045
:101E20002A0141612068C16841F40051C1606564C4
:101E3000202084F8410084F842006563002070BDD2
:101E400030B585B000240194029403940494006892
:101E50001449884223D11448C16941F40031C16159
:101E6000C16901F400310091816941F0040181618F
:101E7000806900F00400009004200190022002908C
:101E800003200490094D01A92846FEF751FB0821C3
:101E900001910294039401A92846FEF749FB05B07D
:101EA00030BD000000440040001002400008014026
:101EB0002DE9F84304460E4615461F4694F84100A6
:101EC000202802D00220BDE8F8837EB175B1002041
:101ED0006064212084F84100FEF730FC8146A5842F
:101EE000E584A068B0F5805F02D003E00120EAE756
:101EF000206920B1354600264FF0200815E0002566
:101F0000FAE74B46002280212046009700F08AFF26
:101F100018B184F841800320D5E7ADB1216815F8E8
:101F2000010B4860E08C401EE084E08C0028E8D182
:101F30004B46002240212046009700F073FF50B12D
:101F400084F841800320BEE736F8020B2168C0F315
:101F500008004860E6E784F841800020B3E7FEE728
:101F600001684A69D24352050FD46FF480624A6116
:101F7000002140F8301F202242738173026942F031
:101F800004020261017301207047002070470000C5
:101F90002DE9F84F04468B4692461D46E06A2168BB
:101FA0000A6842F480620A60082808D0012806D036
:101FB00010F5803F03D0206B112806D00AE020687E
:101FC000016841F48071016004E02068016841F417
:101FD000807101604FF001185346002241462046AF
:101FE000009500F0E5F94FF4007738B120680068FB
:101FF000C00500D527640320BDE8F88F2069DFF80D
:10200000A090B0F5804F10D021680BF44076F020FE
:1020100040EAD61008612B46524609F106012046D7
:1020200000F01CFA40B10120E6E721680BF0FF0048
:1020300040F00100086128E021680BF0FF00086112
:102040002B4652464946204600F008FA08B10120C6
:10205000D2E72068416981690091016841F480718B
:1020600001605346002241462046009500F0A0F949
:1020700030B120680068C00500D527640320BBE7A5
:102080002168F12040EAD61008612B4652464946A5
:10209000204600F0E3F908B10120ADE70020ABE7EE
:1020A00002000100F8B504460D4617461E46E06AD8
:1020B000082808D0012806D010F5803F03D0206BF7
:1020C000122806D00AE02068016841F4807101609E
:1020D00004E02068016841F4807101603B46002201
:1020E0004FF001112046009600F062F940B12068DF
:1020F0000068C00502D54FF4007020640320F8BDCD
:102100002069B0F5804F0FD005F44070F02141EA0E
:10211000D0102168086133463A460D49204600F048
:102120009DF930B10120F8BD216805F0FE0008617D
:1021300002E02168E8B20861054933463A46891F42
:10214000204600F08BF908B10120F8BD0020F8BD51
:10215000080001002DE9F84F04460B9E0F469046FB
:102160001D462068016841F48061016020680168B3
:1021700041F48071016000964FF0011A002251462F
:1021800020460A9B00F014F94FF4007940B1206812
:102190000068C00501D5C4F840900320BDE8F88F61
:1021A000216807F0FE000861DFF8E4B033465946C5
:1021B00020460A9A00F052F908B10120EEE72068A3
:1021C000416980690090324620460A9900F0E5F99D
:1021D00048B1206C042804D12068016841F40071E2
:1021E00001600120DAE7284608F0FF0501280DD03C
:1021F00021684FEA18200861324620460A9900F00B
:10220000CCF968B1206C042803D007E02068056190
:1022100008E02068016841F4007101600120BDE719
:1022200020680561324620460A9900F0B6F948B1A7
:10223000206C042804D12068016841F40071016019
:102240000120ABE72068016841F4807101600096CD
:102250000022514620460A9B00F0AAF838B12068B7
:102260000068C00501D5C4F84090032096E72168B6
:10227000F8B240F0010008613346594620460A9AF8
:1022800000F0ECF808B1012088E7002086E70000A4
:10229000020001002DE9F8430446DDE908970D46E8
:1022A000164698462068016841F4807101604B46EB
:1022B00000224FF001112046009700F079F848B154
:1022C00020680068C00502D54FF400702064032028
:1022D000BDE8F883216805F0FE0008613B464A46E8
:1022E0001C49204600F0BAF808B10120F0E7206848
:1022F0004169806900903A464946204600F04DF910
:1023000048B1206C042804D12068016841F40071B0
:1023100001600120DCE7F5B2B8F1010F0CD02168B3
:10232000300A08613A464946204600F036F968B15D
:10233000206C042803D007E02068056108E02068CD
:10234000016841F4007101600120C1E72068056166
:102350000020BDE70200010070B504460D46164698
:102360001FE02046FFF7FCFD08B1012070BD681C8E
:1023700017D0FEF7E3F9801BA84200D88DB920687A
:102380004069C04340070CD5002044F8300F20219D
:102390006173A073216941F0200121612073012044
:1023A00070BD20684069C0434007DAD4002070BD8A
:1023B0002DE9F0470446DDF820900D4690461E4674
:1023C000C5F307472FE0701C2DD0FEF7B7F9A0EB3F
:1023D0000900B04200D836BB012F17D020688069B1
:1023E00025EA00000004000C1BD0002040451AD153
:1023F000002044F8300F20216173A073216941F05F
:102400002001216120730120BDE8F0872068406928
:1024100025EA00000004000C01D00020E6E70120BE
:10242000E4E70120E2E7012F0BD02068806925EA6C
:1024300000000004000C0FD000204045C3D0002055
:10244000E2E72068406925EA00000004000C01D0A2
:102450000020F2E70120F0E70120EEE72DE9F04748
:1024600004460D46164698464FF000094FF0200AE4
:10247000C5F3074743E020684069C043400517D4CF
:102480002068016841F40071016021686FF4806088
:102490004861C4F8309084F83DA084F83E90206CE8
:1024A00040F00400206484F83C900120BDE8F087EF
:1024B000701C24D0FEF742F9A0EB0800B04200D80F
:1024C000EEB9012F14D02068806925EA00000004CD
:1024D000000C14D0C4F8309084F83DA084F83E90ED
:1024E000206C40F02000206484F83C900120DDE75F
:1024F0002068406925EA00000004000CEAD1012FA1
:1025000008D02068806925EA00000004000CB2D1E0
:102510000020CBE72068406925EA00000004000C99
:10252000F6D0A8E72DE9F04104460D4616460027EF
:102530004FF020082AE04069C043C0060FD421684C
:102540006FF010004861276384F83D8084F83E7086
:10255000206C206484F83C700120BDE8F081FEF717
:10256000EDF8801BA84200D885B920684069C043B7
:1025700040060BD544F8307F84F80D80A77320699E
:1025800040F02000206127730120E6E720684169C0
:10259000C9434906CFD40020DFE770B504460D4695
:1025A00016461FE02046FFF7DBFC08B1012070BD96
:1025B000681C17D0FEF7C2F8801BA84200D88DB95E
:1025C00020684069C04300060CD5002044F8300F55
:1025D00020216173A073216941F0200121612073E2
:1025E000012070BD20684069C0430006DAD4002095
:1025F00070BDF3B585B0074644F22710049002245D
:1026000004AECDE90064052501230022802138466F
:102610000295FEF7EDFC50B1012804D0022804D049
:10262000022007B0F0BD0220FBE70120F9E7BDF86A
:1026300018000490CDE9006401230522802138466A
:102640000295FEF7D5FC48B1012803D0022803D03B
:102650000220E6E70220E4E70120E2E70020E0E7CD
:102660007FB50D46144600210391002C05D0B5F529
:10267000000F04DA032004B070BD0320FBE7022240
:1026800003ABCDE900320521029101230422802110
:10269000FEF73AFB48B1012803D0022803D00220FC
:1026A000E9E70220E7E70120E5E79DF80D009DF846
:1026B0000C1040EA012000B203F088F8294603F02C
:1026C0009DF80449884201DA0320D4E72060002005
:1026D000D1E700000AD7233CFEB505460220029050
:1026E0000524012302AA802110480094FEF768FA0D
:1026F0004FF4000608B13046FEBD022301AA802136
:102700000A480094FEF7ECF808B13046FEBD9DF88B
:1027100005009DF8041040EA012000B203F056F8CD
:1027200003B02946BDE8F04003F068B8E40000209B
:102730002DE9F04385B0002401940294039404949D
:102740002C48816941F010018161816901F010011B
:102750000091816941F020018161816901F02001CE
:102760000091816941F004018161816901F00401F6
:102770000091816941F008018161806900F00800E1
:10278000009001221C4E550329463046FDF7CFFF2D
:10279000DFF868802F11002239464046FDF7C7FF59
:1027A00001950125029503944FF00209CDF8109090
:1027B00001A93046FDF7BCFE4FF460400190104E79
:1027C0000296039501A90F48FDF7B2FE2802019079
:1027D0000296039501A94046FDF7AAFE01970295CE
:1027E0000394CDF8109001A94046FDF7A1FE05B075
:1027F000BDE8F083001002400010014000080140D5
:1028000000002110000C014010B50C480A4901607D
:102810000B49416000218160C1604FF48042026138
:1028200041618161C1610162FDF78EFF002801D025
:10283000FDF74EFE10BD000000540040E4000020F3
:10284000A086010010B5002205211720FEF744FDE7
:102850001720FEF734FD002205212820FEF73CFD5D
:10286000BDE810402820FEF72ABD000010B58AB050
:102870000024089409941C2101A8FDF73EFD174887
:102880004FF08041016003214160846040F2E731F4
:10289000C16004618461FFF7F8F908B1FDF718FE23
:1028A0000894099408A90D48FFF720F808B1FDF72E
:1028B0000FFE6020019040F2A9300290039405942D
:1028C000002201A90548FFF774F908B1FDF700FEE1
:1028D0000248FFF735F90AB010BD000038010020AA
:1028E00010B58AB00024089409941C2101A8FDF7B2
:1028F00004FD17481549016003214160846040F2DE
:10290000E731C16004618461FFF7BFF908B1FDF7E9
:10291000DFFD0894099408A90D48FEF7E7FF08B108
:10292000FDF7D6FD602001904FF4A2700290039451
:102930000594002201A90648FFF73BF908B1FDF70D
:10294000C7FD0348FFF7FCF80AB010BD00040040C3
:102950008001002010B50B48094901604FF4E131B6
:10296000416000218160C16001610C22426181618E
:10297000C161FFF732FA002801D0FDF7A9FD10BDB3
:1029800000440040C8010020FEE7FEE7114B01288B
:102990000DD060B1012058610020D86098601861A6
:1029A000A1F17E50B0F1FC7F03D2196004E05861C0
:1029B000F2E74FF08040186012F1FF4F04D2064852
:1029C000824201DA5A6002E04FF07C5058600020E9
:1029D00070470000C80000200000284108B50749E2
:1029E0004FF4FA520968B1FBF2F14143009100BF84
:1029F0000098411E0091FAD208BD0000440000205A
:102A0000012000F0C9FBFBE710B54FF0E0200069A2
:102A100002F0DCFB012803D0BDE8104001F06ABEE3
:102A200010BD30B58FB0282105A8FDF766FC142134
:102A30006846FDF762FC0121059108040690002418
:102A40000794099102250C950D904FF4E0100E901B
:102A500005A8FEF787FD08B1FDF73AFD0F200090AD
:102A6000019502944FF4806003900494022168461B
:102A7000FEF764FC002801D0FDF72AFD0FB030BD41
:102A8000704700000148FEF7BEBF000010020020A2
:102A9000F0B50268194C1A4D1A4E4FF08047A0420B
:102AA00005D0B84203D0A84201D0B04203D122F0F1
:102AB00070034A681A43A04205D0B84203D0A84226
:102AC00001D0B04203D122F44073CA681A434B6963
:102AD00022F080021A4302608A68C2620A68826237
:102AE000A04201D109690163012141610169C9075E
:102AF00003D0016921F001010161F0BD002C01400A
:102B0000000400400008004010B501F01F0101233F
:102B10008B40046A9C430462036A8A401343036245
:102B200010BD000030B5026A036A23F0010303629E
:102B30004368846924F0700424F003050C682C4376
:102B400022F002058A682A430D4DA84206D122F0E0
:102B50000802CD6845EA020525F0040209D123F4F4
:102B6000807323F400734D6945EA03058B6943EADA
:102B700005034360846149684163026230BD00001F
:102B8000002C014030B5036A026A22F01002026292
:102B90004268846924F4E04424F440740D6844EAF3
:102BA000052423F020038D6843EA05130D4DA84248
:102BB00006D123F08003CD6843EA051323F04003D8
:102BC00009D122F4806222F400624D6942EA850252
:102BD0008D6942EA850242608461496881630362CB
:102BE00030BD0000002C014030B5026A036A23F4B6
:102BF000807303624368C46924F0700424F0030501
:102C00000C682C4322F400728D6842EA05220D4DB7
:102C1000A84206D122F40062CD6842EA052222F4DD
:102C2000806209D123F4805323F400534D6943EAB1
:102C300005138D6943EA05134360C4614968C163A4
:102C4000026230BD002C014030B5036A026A22F4F2
:102C5000805202624268C46924F4E04424F440745F
:102C60000D6844EA052423F400538D6843EA0533D4
:102C7000064DA84204D122F480424D6942EA8512F1
:102C80004260C46149680164036230BD002C0140A8
:102C90001FB50C4600210391002C12D0022203AB79
:102CA000CDE9003205210291012300229021FEF797
:102CB0002BF860B1012806D0022806D0022004B00B
:102CC00010BD0320FBE70220F9E70120F7E79DF89C
:102CD0000D009DF80C1040EA012000B2001102F036
:102CE00075FD6FF0030102F0FCFE0549884202D831
:102CF0000449884201DD0320E1E720600020DEE78F
:102D00000000A0C10000484310B501F00BFA0028F4
:102D100004D006C8BDE810401046084710BD016841
:102D20000C3151E8002F22F4907241E80023002B6F
:102D3000F5D10168143151E8002F22F0010241E879
:102D40000023002BF5D1016B012909D101680C3159
:102D500051E8002F22F0100241E80023002BF5D1AA
:102D6000202180F8421000210163704770B50446AD
:102D700020680169E26821F4405111430161A168B2
:102D800020690143606901432068C26841F20C6315
:102D90009A430A43C26020684169A26921F44071E4
:102DA000114341611E492068884202D1FEF7A4FB0D
:102DB00001E0FEF791FB00EBC00101EB0010616840
:102DC00064228900B0FBF1F3B3FBF2F36FF0180655
:102DD0007343B0FBF1F5B0FBF1F605EB830532234D
:102DE00003EB0515B5FBF2F5B6FBF2F605F0F005C1
:102DF00005EB0615B0FBF1F6B0FBF1F0B0FBF2F01D
:102E00006FF01801484306EB800003EB0010B0FBA5
:102E1000F2F0216800F00F002844886070BD0000C7
:102E2000003801402DE9F84304460D461746984600
:102E3000089E25E0701C23D0FDF780FCA0EB080065
:102E4000B0421BD8D6B12068C168490718D5802D7B
:102E500016D0402D14D00168C943090710D40025AD
:102E600021680968406800902046FFF758FF082055
:102E7000606484F840500120BDE8F8830320FBE73C
:102E80002068006835EA000004D00020B842D1D0A4
:102E90000020F1E70120F9E7FEE700001CB52B4D0B
:102EA0004FF4FA76DFF8A8B0DFF8A88000274FF4D7
:102EB00048794FF4967A4FF0FF33002201A9D8F8F1
:102EC000240000F0A7F90021D8F8300000F04EFAF5
:102ED00038B921484069012803D1C8F81070C8F8F2
:102EE0001470D8F8300000F0BBFA00231A46694687
:102EF000D8F8280000F08EF938B9BDF9000002F0CA
:102F000065FC294602F0DEFB0546019C5C4504D3C6
:102F1000C8F81070C8F81470CDE72146284602F0B2
:102F200039FD0E4900F1FF408842C4D321462846AE
:102F300000F008FC304484B24C4500D94C4654455E
:102F400000D25446064800684463B4E70000C0401D
:102F50000000808000000020C80000208FC2753C67
:102F6000800100200907090E002804DB00F1E020A1
:102F700080F80014704700F00F0000F1E02080F8A6
:102F8000141D70471CB5012501954FF0FF3BCDF88E
:102F900000B0324FDFF8C890DFF8C8A0324C4FF4D1
:102FA00000785A460021012000F0B8FA142000F001
:102FB000F3F80521206B00F0D9F906464FF4807133
:102FC0003846FDF7ADFB58B14FF400515046FDF7C0
:102FD000A7FB4FF480415046FDF7A2FB20B329E048
:102FE00041463846FDF79CFB86BBD9F8140070B10A
:102FF000012241463846FDF79AFB00224FF400516A
:103000001A48FDF794FB0020C9F814001EE00022C6
:1030100041463846FDF78BFB012251031348FDF76B
:1030200086FBC9F8145011E000231A466946A06ACD
:1030300000F064F94FF400415046FDF771FB28B9E8
:1030400000231A4601A9A06A00F058F9206B00F08D
:1030500007FAB42000F0A0F8A3E700000008014040
:10306000C8000020000C01400000002000100140BA
:1030700008B5FEF795F8FFF7D4FCFFF759FBFFF70B
:10308000C3FBFFF7F3FBFFF72BFCFFF763FCFFF736
:10309000D9FB314C2088009001463048FFF7A9FA4F
:1030A0004FF0FF33002850D02C4809222CA1E430E7
:1030B000FEF7FEFE294800215430FEF72DFE27487A
:1030C00000219C30FEF728FE284A29490120FFF7FD
:1030D0005DFC00F06FF8274800F076F92063254882
:1030E000103000F071F96063224B0022103B012187
:1030F000214800F0BFFAE0620A2100F009FB1D4AF6
:103100000421403A102000F0BBF86062194A022105
:10311000283A102000F0B4F8A062164A0021AC3A18
:10312000164800F049FAA061124A0021883A144872
:1031300000F042FAE0610F4A0021643A114800F0C1
:103140003BFA206200F04AF8FEE704480C220EA188
:10315000E430FEF7ADFEADE700000020E400002003
:10316000494E413A4552520D0A00000000002041EC
:103170000000C0400C5C00086D040008012A000833
:10318000852F00089D2E0008494E413A696E6974EA
:103190004F4B0D0A0000000010B5EFF30581002928
:1031A00002D06FF0050403E0002408B101F012F929
:1031B000204610BDEFF30580002802D06FF0050017
:1031C00070470548016811B14FF0FF307047012189
:1031D00001600020704700009800002010B5EFF358
:1031E0000580002802D06FF0050010BD0748016877
:1031F000012902D04FF0FF3010BD054A00211170A7
:103200000221016001F09EF9002010BD980000200D
:103210001FED00E0F8B51D466FF003036FF00206E6
:103220004FF00004EFF30582C2B108B101B10DB156
:103230001C4621E0002200926A4601F0F9FC0128B8
:1032400001D0344618E00098B0B10C494FF08050DE
:103250000860BFF34F8FBFF36F8F0DE048B141B1EE
:103260002A4601F047FC012806D025B16FF0010481
:1032700002E01C4600E034462046F8BD04ED00E0C4
:10328000F8B514464FF00005EFF30582002A33D15C
:1032900090B389B3521EB4B1A3685BB1E668502EF7
:1032A00008D3266936B1676900FB01F6B74201D33E
:1032B000012209E043B9E36833B9236923B963699B
:1032C00013B9002200E00022012A01D042B10BE034
:1032D00000220092A368226901F05EFA054603E02D
:1032E000002201F037FA054635B10CB1216800E043
:1032F0000021284601F038F82846F8BDF8B51D46EB
:103300006FF003036FF002064FF00004EFF3058245
:10331000CAB108B101B10DB11C4623E000220092F0
:1033200000236A4601F066FB012801D0344619E00B
:103330000098B8B10C494FF080500860BFF34F8F30
:10334000BFF36F8F0EE050B149B100232A4601F060
:103350009FFA012806D025B16FF0010402E01C4657
:1033600000E034462046F8BD04ED00E02DE9F041D0
:1033700002460D4622F0010002F001014FF0000468
:10338000EFF305820AB1A41F1BE060B16FF00106E4
:103390006FF0020761B1294601F056FD012810D0F7
:1033A00025B134460DE06FF003040AE03C4608E026
:1033B000294601F08BFC012803D00DB1344600E012
:1033C0003C462046BDE8F08170B504464FF000054C
:1033D000EFF3058088BB0CB1606800E00020C107F6
:1033E00001D0012600E00026000737D44FF0FF305F
:1033F0005CB1A16821B1E268502A01D3012005E047
:1034000021B9E16811B9002000E00020012801D0B5
:1034100068B117E02EB10420A16801F08DF90546CE
:1034200010E00120A16801F087F905460AE02EB1FD
:10343000042001F075F9054604E00FE0012001F0D9
:103440006FF9054635B10CB1216800E0002128462E
:1034500000F08AFF15B10EB145F00105284670BD98
:1034600070B5014621F0010001F001014FF00004A8
:10347000EFF305820AB1A41F14E040B16FF002051A
:1034800041B101F017FB01280CD02C460AE06FF087
:10349000030407E000231A46194601F0F9F9012850
:1034A00000D02C46204670BD3EB50446002C01D00D
:1034B000002903DA6FF0030002902BE04FF0FF3099
:1034C0000290EFF30580D0B10025019501A800908E
:1034D00000230122204601F0EBFD002202AB114641
:1034E0002046009501F0E4FD019898B10A494FF09B
:1034F00080500860BFF34F8FBFF36F8F0AE0002347
:103500000122204601F060FD002202AB1146204658
:1035100001F05AFD02983EBD04ED00E02DE9FC5F8C
:10352000064689461746EFF3058010B16FF0050493
:1035300022E0002E02DA6FF003041DE05FEA8970DA
:1035400002D50020009000E0009600243D4601F0E6
:103550004BFE82466FF0020B2B4601AA0020009919
:1035600001F0AEFE8046B8F1010F08D017B36FF03E
:103570000104B8F1000FEFD12046BDE8FC9F3440B4
:10358000019804435FEAC97005D036EA0400F3D01D
:1035900027B95C46F0E72642EED13FB101F024FEA8
:1035A000A0EB0A00A84203D90025E2E75C46E3E766
:1035B0002D1ADEE75C46DCE72DE9FF470B464FF0AE
:1035C0000008CDF80C80EFF3058199BB90B38026FD
:1035D00018240025691E72B3176807B13D46976924
:1035E00007B13C46671E382F02D21779FF0703D078
:1035F000002004B0BDE8F087576907B1BE08D2F8D3
:1036000008C0BCF1000F0CD0D2F80C90B9F15C0FDF
:1036100007D3D2F81090B9F1000F02D00FB10121F9
:103620000BE0BCF1000F08D1D76837B9176927B98B
:10363000002102E01BE0FFE70021012901D059B180
:1036400015E0916812690291CDE90042324629469F
:1036500001F08CFC03900AE003A9CDE90041B2B26D
:10366000294601F051FC012801D0CDF80C800398C7
:10367000BFE700002DE9FC470746884691461C46F7
:103680004FF00006EFF3058088BB87B3082000F0F9
:10369000CFFC0546280035D02F60C5F80490B8F15E
:1036A000000F0ED001224FF0FF31002084B12368BB
:1036B00003B11846A36833B1E7682C2F03D3012167
:1036C00007E00022EFE723B9E36813B9002100E027
:1036D00000210E4B012901D051B10FE0A168CDE9C5
:1036E00000312B46012101F069FF064606E009E0A2
:1036F00000932B46012101F047FF064616B92846E4
:1037000000F0C4FD3046BDE8FC870000092D00082C
:1037100008B5EFF30583002B02D06FF0050008BD5C
:1037200050B100230A460421009301F095FF0128BF
:1037300005D06FF0020008BD6FF0030008BD002047
:1037400008BD00002DE9F04102F024F90646124CB4
:103750003146206901F0B6FF0546206130466169B7
:1037600002F018F90146E06802F048F807462946D9
:10377000A06802F043F805463146606802F03EF862
:10378000294601F09FFF394601F09CFF666102F077
:1037900001F880B2BDE8F081000000202DE9F04181
:1037A00004460F46134EF5683068001D00F0DCFC3F
:1037B000601C07D137B13168BDE8F041091D0E48E2
:1037C00000F022BD2C4430684460AC4206D231681F
:1037D000B06B091DBDE8F04100F0FEBC3168706BB4
:1037E000091D00F0F9FCB06A844200D2B462BDE861
:1037F000F0810000480000204807002070B5044612
:1038000000F00EFD1C4DA868401CA860286810B18F
:10381000686938B10CE02C60A868012808D100F074
:10382000D7F905E02868E16AC06A884200D82C60B0
:10383000686A401C68626064E06A2969884200D94D
:1038400028610E4900EB800001EB8000211D00F093
:10385000DBFC00F005FD686900280CD02868E16AEF
:10386000C06A884207D206494FF080500860BFF313
:103870004F8FBFF36F8F70BD48000020980200206B
:1038800004ED00E038B500F0CBFC104C2068C8B95E
:103890000F4800F093FC0E48143000F08FFC0C48E9
:1038A000E060143020610A4B0020F03B009003F1EF
:1038B000500210210A2000F06FFF206010B105A116
:1038C00000F052FDBDE8384000F0CABC8400002082
:1038D0004C080020546D72510000000070B50C4D72
:1038E0000C4E11E000F09CFCF068C468201D00F054
:1038F0003BFCA868401EA8606868401E686000F035
:10390000AFFC204600F053F868680028EAD170BD8B
:10391000480000203407002030B40B46026C002A17
:103920000CD0C1681144C1608468A14201D3016810
:10393000C160C16830BC1846FCF792BC30BC70470F
:103940002DE9F041044617460026A56B226C002A9B
:1039500010D0C7B1E068FCF783FCE168206C091A5D
:10396000E1602268914202D2A168081AE060022F49
:1039700016D017E02068A8B9A06801F0E9FC064657
:103980000020A0600EE06068FCF76AFC216C6068B3
:1039900008446060A168884204D32068606001E048
:1039A00005B16D1E6D1CA5633046BDE8F08110B5F4
:1039B000044694F8590000280BD0012811D00228A1
:1039C00014D0502080F31188BFF34F8FBFF36F8F57
:1039D000FEE7206B00F05AFC2046BDE8104000F0E6
:1039E00055BC2046BDE8104000F050BC10BD416AF7
:1039F000002904D0006B0068C0F138007047002037
:103A0000704700000749CA681168002904D00021E6
:103A1000016019B1002070470121F9E7D068006802
:103A200070470000840000204FF440610F484207B7
:103A300006D0C01D20F007000C49411AC1F54061B5
:103A40000B4A1060002353600144083921F007013C
:103A5000183A11604B600B600B1A436001604068BC
:103A6000906050604FF00040506170472C0F002074
:103A7000B4000020074E4FF08054074DFFF72EFF93
:103A800030680128FAD92C60BFF34F8FBFF36F8FD6
:103A9000F4E700009802002004ED00E0002808D0C0
:103AA000002181600160C16000231A46194600F0C0
:103AB000EFBE704770B51D46049C002909D02260F6
:103AC000E06321640121204600F09CFE84F84C5004
:103AD00070BD2460F4E72DE9F05F8246DDE90A5904
:103AE0000C9C0E4617469B46B900A522206BFCF79E
:103AF000FCFB206B7F1E00EB870020F00707780798
:103B000007D0502080F31188BFF34F8FBFF36F8F22
:103B1000FEE74FF0000866B100202218315C82F801
:103B20003410315C11B1401C1028F6D384F8438066
:103B300001E084F83480382D00D33725E562E56450
:103B4000C4F85080201D00F044FB04F1180000F080
:103B500040FB2461C5F13800A0616462C4F8548060
:103B600084F858805A465146384600F0EFFA2060F3
:103B7000B9F1000F01D0C9F80040BDE8F09F2DE970
:103B8000F0470646DDE908940D4617469846002D95
:103B900015D0002C11D0FFF775FE2660A561C4F882
:103BA0001C80C4F82090201D00F013FB002F04D0CF
:103BB00014F8280F40F004002070BDE8F087502072
:103BC00080F31188BFF34F8FBFF36F8FFEE70000C4
:103BD00070B50024114D04EB840005EB800000F06B
:103BE000EDFA641C382CF6D30D4800F0E7FA0C48C7
:103BF000143000F0E3FA0A48283000F0DFFA0848F1
:103C00003C3000F0DBFA0648503000F0D7FA0548A7
:103C1000034941631431816370BD000098020020A4
:103C2000F80600204800002030B5134900E0114696
:103C30000A688242FBD34B685C18844203D1406817
:103C40001844486008460D6844682318AB420DD1FB
:103C5000094B183B1B689A4206D0526822444260C6
:103C60000A681268026002E0036000E002608142BC
:103C700000D0086030BD0000B400002070B5002402
:103C8000416000610C4D91420AD8D11A826991427B
:103C900001D301240EE0011D286900F09DFA09E01E
:103CA0009A4203D2994201D3012403E0011DE8683E
:103CB00000F092FA204670BD8400002010B5044642
:103CC00000F0AEFAA06B20B1002400F0C9FA204643
:103CD00010BD0124F9E710B5044600F0A1FAA06B6D
:103CE000E16B884201D1012400E0002400F0B8FA21
:103CF000204610BDF8B505460E461748C068C06896
:103D0000C468201D00F030FA94F82800410718D547
:103D1000A0692B46411932462046FFF7AFFFA0B1FC
:103D200000200346014600902A46204601F094FCFC
:103D300058B9502080F31188BFF34F8FBFF36F8FB6
:103D4000FEE720F0010084F82800216A01B0204637
:103D5000BDE8F040084700008400002030B587B07F
:103D60003C4D6EE00398002803DADDE90420069953
:103D700090470398002864DB059C606910B1201D02
:103D800000F0F2F902A800F0AFF8024603980A2802
:103D900057D2DFE800F00505052D334A05052D3320
:103DA00094F8280040F0010084F828000498A169E4
:103DB000034601442046FFF761FF68B3216A2046AD
:103DC000884794F8280040073BD5002000900498CD
:103DD000A169002342181946204601F03DFCD8B9DC
:103DE000502080F31188BFF34F8FBFF36F8FFEE732
:103DF00014F8280F20F00100207022E094F8280029
:103E000040F0010084F828000498A06128B18118CE
:103E100013462046FFF732FF13E0502080F311884D
:103E2000BFF34F8FBFF36F8FFEE794F82800810731
:103E300003D4204600F02AFA03E020F0010084F8C1
:103E40002800002203A9286800F054FE002889D128
:103E500007B030BD84000020F8B506460D4600F0DE
:103E6000B9FB684600F040F80446009810B101F034
:103E700027FBF8BD45B9A64206D801F021FB214633
:103E80003046FFF737FFF8BD0C481DB101690968DE
:103E900091B10025311B2A46006800F077FA01F045
:103EA0000FFB0028EFD106494FF080500860BFF3A8
:103EB0004F8FBFF36F8FF8BD0125EBE78400002023
:103EC00004ED00E00748416B0968002905D0416B0B
:103ED000C968C9684968816270474FF0FF318162E3
:103EE000704700004800002070B5054601F07CF9DD
:103EF0000446074EB068844204D200F00BF801205B
:103F0000286001E000202860B460204670BD0000F9
:103F100084000020F8B51A4E20E0C0680568C46827
:103F2000201D00F021F9216A2046884794F82800D6
:103F3000400713D5A0692844A84206D960602461CF
:103F4000211DF06800F048F908E000200346014612
:103F500000902A46204601F07FFB40B1F0680168DE
:103F60000029DAD1F0683169F1603061F8BD502084
:103F700080F31188BFF34F8FBFF36F8FFEE7000010
:103F80008400002009484068401C07D0502080F37E
:103F90001188BFF34F8FBFF36F8FFEE7502080F380
:103FA0001188BFF34F8FBFF36F8FFEE7BC00002077
:103FB00008B56846FFF726FD0099FFF74DFFFFF7AC
:103FC000CDFEF6E72DE9F041044600F029F994F919
:103FD000455004F1240609E0606A48B1304601F01A
:103FE00033FA08B100F026FA6D1E6DB2002DF3DC35
:103FF0004FF0FF3684F8456000F032F900F010F918
:1040000094F9445004F1100709E0206948B138469A
:1040100001F01AFA08B100F00DFA6D1E6DB2002D14
:10402000F3DC84F84460BDE8F04100F019B9000009
:104030002DE9F0410546002600F0CCFA324F3868F1
:1040400008B9FFF7F1FC786905424DD18DB108350B
:1040500068070ED005F00700C0F1080005446807A6
:1040600007D0502080F31188BFF34F8FBFF36F8FBD
:10407000FEE7CDB37868854236D823491831084623
:10408000046801E0214604466068A84202D2206824
:104090000028F7D13868844226D00E680836206898
:1040A00008606068411B10290ED96019420707D0CB
:1040B000502080F31188BFF34F8FBFF36F8FFEE75F
:1040C00041606560FFF7B0FD61687868401A78600C
:1040D000BA68904200D2B8607869014361600020FC
:1040E0002060F868401CF86001F0EAF9700707D01A
:1040F000502080F31188BFF34F8FBFF36F8FFEE71F
:104100003046BDE8F08100009C00002004490868AA
:10411000002803D00868026D521C026508687047C9
:104120004800002010B50446002806D000F078F8BA
:10413000E46900F095F8204610BD502080F3118806
:10414000BFF34F8FBFF36F8FFEE7000020384FF0B3
:104150008073C36121F0010181610249416140F82E
:1041600020297047853F00080169D0E901329A6033
:10417000D0E901235A604A68824201D182684A60CC
:10418000002202610868401E08600868704700004D
:10419000034B036003F15C000860802010607047EF
:1041A00074080020044B036003F15C0008604FF4C6
:1041B0008070106070470000D00A002000F10801F4
:1041C00041604FF0FF328260C160016100210160F7
:1041D000704700210161704730B50C68621C02D045
:1041E00000F1080202E0026904E01A4653681D6803
:1041F000A542FAD953684B6099608A6051600861A2
:104200000168491C016030BD42684A6093688B6058
:1042100093685960916008610168491C01607047AA
:10422000502080F31188BFF34F8FBFF36F8F0A497F
:104230004868401C486001280CD10848006810F00C
:10424000FF0F07D0502080F31188BFF34F8FBFF3CB
:104250006F8FFEE770470000BC00002004ED00E017
:1042600009494868002806D0401E4860002801D14E
:1042700080F311887047502080F31188BFF34F8F6F
:10428000BFF36F8FFEE70000BC00002070B5002870
:104290002AD008380446154D60686969084207D17C
:1042A000502080F31188BFF34F8FBFF36F8FFEE76D
:1042B00022683AB1502080F31188BFF34F8FBFF3CB
:1042C0006F8FFEE78843606000F084F9606869687A
:1042D000084468602046FFF7A7FC2869401C286155
:1042E000BDE8704001F0ECB870BD00009C000020FB
:1042F0004FF0E02000210161816105494FF47A729D
:104300000968B1FBF2F1491E416107210161704763
:104310004400002010B5FBF77FFF114910280ED391
:1043200000F1E02090F8F0030A78904207D2502084
:1043300080F31188BFF34F8FBFF36F8FFEE70948FB
:104340000068896800F4E060884207D9502080F353
:104350001188BFF34F8FBFF36F8FFEE710BD0000D2
:10436000BC0000200CED00E010B50022064B53F815
:1043700032401CB1521C082AF9D310BD43F8321048
:1043800003EBC201486010BD5802002070B504461E
:104390000D461646FFF744FF94F944304FF00000F5
:1043A0005B1C01D184F8440094F94510491C01D1EB
:1043B00084F84500FFF754FFA06B28B93246294620
:1043C00004F1240000F056F82046BDE87040FFF7E5
:1043D000F9BD000010B502460020002A12D00F4897
:1043E000006B38B1502080F31188BFF34F8FBFF3BB
:1043F0006F8FFEE700F0EEF800211046FFF7CEF9D0
:1044000001F05EF8002807D105494FF080500860A0
:10441000BFF34F8FBFF36F8F10BD00004800002027
:1044200004ED00E002490A6A0260C9684160704711
:104430004800002001490120C86170474800002061
:1044400010B50C4600280AD0094909681831FFF751
:10445000C3FE2046BDE810400121FFF79FB9502060
:1044600080F31188BFF34F8FBFF36F8FFEE700001B
:104470004800002070B50D46144600280DD00B49A9
:1044800009681831FFF7C0FE0CB14FF0FF35214627
:104490002846BDE87040FFF781B9502080F31188AD
:1044A000BFF34F8FBFF36F8FFEE70000480000207F
:1044B00070B50B46044600283ED0226DA2B1E16CD7
:1044C000994200D21946E06A884235D0012A33D198
:1044D0001A4D2A6894420FD1502080F31188BFF3FF
:1044E0004F8FBFF36F8FFEE7502080F31188BFF32B
:1044F0004F8FBFF36F8FFEE7E162A269002A02DBF4
:10450000C1F13801A1610E4E00EB8000616906EB3C
:104510008000814210D1201DFFF726FEE06A296944
:10452000884200D9286100EB800006EB8000211D45
:10453000BDE87040FFF768BE70BD00004800002075
:104540009802002030B587B000250695059504AA8D
:1045500005A906A8FFF71CFEDDE90510CDE900510D
:104560000290002317A11948049A00F0FFFC184C90
:10457000E06208B1012000E00020012801D101F033
:1045800037F8012809D0401C19D1502080F3118838
:10459000BFF34F8FBFF36F8FFEE7502080F311887A
:1045A000BFF34F8FBFF36F8F4FF0FF30A06201203A
:1045B0006061E56007B0BDE8304000F047B807B083
:1045C00030BD000049444C4500000000753A000829
:1045D000480000200248016B491C0163704700003D
:1045E0004800002010B5174B186B002802D001209E
:1045F000D86110BD0020D8611869134901E0C0B12D
:10460000401E00EB800251F82220002AF7D000EB78
:10461000800201EB82014A6852684A6001F1080495
:10462000A24201D152684A604968C968196018619C
:1046300010BD502080F31188BFF34F8FBFF36F8FF1
:10464000FEE7000048000020980200201CB5264923
:1046500008780190FF200870087800909DF800000D
:104660009DF8002000F0F000904207D0502080F329
:104670001188BFF34F8FBFF36F8FFEE79DF80000E7
:104680001A4C00F0500020700720A06006E0A068DF
:10469000401EA0609DF80000400000909DF80000C2
:1046A0000006F4D4A068032807D0502080F31188B6
:1046B000BFF34F8FBFF36F8FFEE74FF44070A060E2
:1046C000019808700A48016841F4700101600168AE
:1046D00041F070410160FFF70BFE00206060FBF7C6
:1046E00065FD00201CBD000000E400E0BC000020CF
:1046F00020ED00E010B5502080F31188BFF34F8FFC
:10470000BFF36F8F00F076FD18B104494FF0805071
:104710000860002080F3118810BD000004ED00E067
:1047200010B502460021012000F014F8044620468E
:10473000FFF7B4F9204610BD38B50B4600220090B3
:104740001146012000F028F804462046FFF7A6F99C
:10475000204638BDF8B505460E461746002D13D045
:1047600005FB06F05030FFF763FC044654B12246C7
:104770005032002084F846003B46314628460094DB
:10478000FFF798F92046F8BD502080F31188BFF359
:104790004F8FBFF36F8FFEE738B5049D002804D01C
:1047A0005BB102B189B1C2B120E0502080F3118821
:1047B000BFF34F8FBFF36F8FFEE7502080F3118858
:1047C000BFF34F8FBFF36F8FFEE7502080F3118848
:1047D000BFF34F8FBFF36F8FFEE739B1502080F3E7
:1047E0001188BFF34F8FBFF36F8FFEE75024009403
:1047F0001C46012384F846302B460094FFF75AF9F3
:10480000204638BD70B504460D46002C25D0FFF774
:1048100007FDD4E90F20216802FB0011A1600021EF
:10482000A16321686160E06B2268216C401E00FB7F
:104830000121E1604FF0FF3084F8440084F8450026
:1048400004F110008DB1FFF7B9FC04F12400FFF76B
:10485000B5FCFFF705FD012070BD502080F31188E5
:10486000BFF34F8FBFF36F8FFEE721690029F0D0B0
:1048700000F0EAFD0028ECD004494FF080500860B9
:10488000BFF34F8FBFF36F8FE3E7000004ED00E04D
:104890002DE9FF4782B004468A461E460025002CBB
:1048A00003D0BAF1000F08D011E0502080F3118836
:1048B000BFF34F8FBFF36F8FFEE7206C38B15020EE
:1048C00080F31188BFF34F8FBFF36F8FFEE7022E87
:1048D0000AD1E06B012807D0502080F31188BFF384
:1048E0004F8FBFF36F8FFEE700F070FC48B904985C
:1048F00038B1502080F31188BFF34F8FBFF36F8F13
:10490000FEE74FF000094FF08057DFF8E480FFF733
:1049100087FCA06BE16B884205D3022E03D004987C
:1049200008B325B327E0324651462046FFF708F882
:10493000616A59B104F1240000F086FD68B1C8F83D
:104940000070BFF34F8FBFF36F8F06E028B1C8F838
:104950000070BFF34F8FBFF36F8FFFF781FC012013
:1049600006B0BDE8F087FFF77BFC0020F8E768465B
:10497000FFF758FD0125FFF773FCFFF72BFEFFF74C
:104980004FFC94F94400401C01D184F8449094F900
:104990004500401C01D184F84590FFF761FC04A953
:1049A000684600F073FA30B12046FFF70BFB00F0C9
:1049B00087FD0020D4E72046FFF78DF990B104F180
:1049C00010000499FFF73CFD2046FFF7FBFA00F0CA
:1049D00077FD00289BD1C8F80070BFF34F8FBFF35D
:1049E0006F8F94E72046FFF7EDFA00F069FD8EE740
:1049F00004ED00E02DE9F0470446894690461F4645
:104A0000002C03D0B9F1000F08D011E0502080F342
:104A10001188BFF34F8FBFF36F8FFEE7206C38B163
:104A2000502080F31188BFF34F8FBFF36F8FFEE7E5
:104A3000022F0AD1E06B012807D0502080F31188A3
:104A4000BFF34F8FBFF36F8FFEE7FFF763FC50207C
:104A5000EFF3118680F31188BFF34F8FBFF36F8F91
:104A6000A06BE16B884206D3022F04D0002086F3AE
:104A70001188BDE8F08794F94550A06B3A46494645
:104A80002046FEF75DFF681C04D06D1C84F845507D
:104A90000120ECE7606A0028FAD004F1240000F05D
:104AA000D3FC0028F4D0B8F1000FF1D00120C8F8F1
:104AB0000000EDE710B50446002C09D000F080FBA3
:104AC000A168884214D1E068401EE06040B10DE06A
:104AD000502080F31188BFF34F8FBFF36F8FFEE735
:104AE00000231A4619462046FFF7D2FE012010BDCA
:104AF000002010BD2DE9F74783B004468A46002602
:104B0000002C03D0BAF1000F08D011E0502080F340
:104B10001188BFF34F8FBFF36F8FFEE7206C38B162
:104B2000502080F31188BFF34F8FBFF36F8FFEE7E4
:104B300000F04CFB48B9059838B1502080F311883B
:104B4000BFF34F8FBFF36F8FFEE700274FF0805802
:104B5000DFF8D890FFF764FBA56BC5B1514620463E
:104B6000FEF7DAFE6D1EA563206950B104F1100056
:104B700000F06AFC28B1C9F80080BFF34F8FBFF383
:104B80006F8FFFF76DFB012006B0BDE8F087059839
:104B900008B126B107E0FFF763FB0020F4E701A8A6
:104BA000FFF740FC0126FFF75BFBFFF713FDFFF764
:104BB00037FB94F94400401C01D184F8447094F907
:104BC0004500401C01D184F84570FFF749FB05A959
:104BD00001A800F05BF958B12046FFF7F3F900F0A7
:104BE0006FFC2046FFF76AF80028B3D00020CBE71F
:104BF0002046FFF763F890B104F124000599FFF710
:104C00001FFC2046FFF7DEF900F05AFC0028A1D176
:104C1000C9F80080BFF34F8FBFF36F8F9AE720462C
:104C2000FFF7D0F900F04CFC94E7000004ED00E041
:104C30002DE9F047044689469046002C03D0B9F18F
:104C4000000F08D011E0502080F31188BFF34F8F80
:104C5000BFF36F8FFEE7206C38B1502080F31188CE
:104C6000BFF34F8FBFF36F8FFEE7FFF753FB50206B
:104C7000EFF3118780F31188BFF34F8FBFF36F8F6E
:104C8000A66BF6B194F9445049462046FEF744FE1F
:104C9000761EA663681C04D06D1C84F84450012065
:104CA00010E020690028FAD004F1100000F0CCFBDD
:104CB0000028F4D0B8F1000FF1D00120C8F80000AE
:104CC000EDE7002087F31188BDE8F0872DE9F34375
:104CD00083B004460025A946002C09D0206C78B189
:104CE000502080F31188BFF34F8FBFF36F8FFEE723
:104CF000502080F31188BFF34F8FBFF36F8FFEE713
:104D000000F064FA48B9049838B1502080F3118853
:104D1000BFF34F8FBFF36F8FFEE700264FF0805732
:104D2000DFF82081FFF77CFAA06BC8B1401EA063BA
:104D3000206810B9FFF7EAF9A060206950B104F1CA
:104D4000100000F081FB28B1C8F80070BFF34F8F4E
:104D5000BFF36F8FFFF784FA012005B0BDE8F08341
:104D6000049808B17DB112E0B9F1000F07D05020CE
:104D700080F31188BFF34F8FBFF36F8FFEE7FFF70C
:104D80006FFA0020E9E701A8FFF74CFB0125FFF7C8
:104D900067FAFFF71FFCFFF743FA94F94400401C41
:104DA00001D184F8446094F94500401C01D184F895
:104DB0004560FFF755FA04A901A800F067F8C8B1EB
:104DC0002046FFF7FFF800F07BFB2046FEF776FF5A
:104DD0000028A7D0B9F1000F0AD0FFF721FA20462A
:104DE000FEF705FE0146A068FFF762FBFFF738FA01
:104DF0000020B2E72046FEF761FFE8B1206838B92D
:104E0000FFF70EFAA06800F0E1FA8146FFF728FAF2
:104E100004F124000499FFF713FB2046FFF7D2F8B2
:104E200000F04EFB00287FF47DAFC8F80070BFF3A0
:104E30004F8FBFF36F8F75E72046FFF7C3F800F081
:104E40003FFB6FE704ED00E070B504460D46002C13
:104E500009D000F0B5F9A26890420CD1E068401C7E
:104E6000E060012070BD502080F31188BFF34F8FA8
:104E7000BFF36F8FFEE729462046FFF727FF002884
:104E8000F0D0E168491CE16070BD00002DE9F041FF
:104E900005460C46002D11D0C4B1FFF7C1F9194EDB
:104EA000F0686B68C11A2268571C17D02F68366AE1
:104EB000B74215D0834213D801241DE0502080F35F
:104EC0001188BFF34F8FBFF36F8FFEE7502080F341
:104ED0001188BFF34F8FBFF36F8FFEE700240BE005
:104EE0008A4206D9501A20602846FFF79BFA002410
:104EF00002E0002020600124FFF7B2F92046BDE85F
:104F0000F0810000480000202DE9FF5F8146DDE9C7
:104F10000E788A4616469B46B000FFF789F805468C
:104F200028000AD05C20FFF783F804460CB1256303
:104F300004E02846FFF7AAF900E000249CB1002015
:104F400084F85900CDE90240CDE900785B4632464D
:104F500051464846FEF7BFFD2046FEF74FFC0120B4
:104F600004B0BDE8F09F4FF0FF30F9E7F0B585B031
:104F70000746DDE90A600C9C002815D0E4B15C25E9
:104F800003952063022084F85900002004ADCDE988
:104F90000240CDE900653846FEF79DFD2046FEF74C
:104FA0002DFC049805B0F0BD502080F31188BFF3AC
:104FB0004F8FBFF36F8FFEE7502080F31188BFF350
:104FC0004F8FBFF36F8FFEE72DE9F0410D469046FE
:104FD0001F460126002812D00446FFF721F90FB121
:104FE000606D386094F85800022184F85810B8F1C8
:104FF000050F1CD2DFE808F0260B0F131500502018
:1050000080F31188BFF34F8FBFF36F8FFEE7616DA1
:105010002943616516E0616D491C616512E06565B3
:1050200010E0022801D065650CE000260AE0616D01
:10503000491C07D0502080F31188BFF34F8FBFF376
:105040006F8FFEE7012827D1201DFFF78DF8154D42
:10505000E06A2969884200D92861134900EB800081
:1050600001EB8000211DFFF7CFF8A06A38B1502076
:1050700080F31188BFF34F8FBFF36F8FFEE7E06AB5
:105080002968C96A884207D908494FF080500860EA
:10509000BFF34F8FBFF36F8FFFF7E2F83046BDE8E5
:1050A000F0810000480000209802002004ED00E09C
:1050B0002DE9F0470446DDF820800D4691469A46DA
:1050C0000127002C1DD0FFF725F95020EFF31186A2
:1050D00080F31188BFF34F8FBFF36F8FBAF1000FCA
:1050E00002D0606DCAF8000094F85800022184F8DC
:1050F0005810B9F1050F1CD2DFE809F0260B0F1389
:105100001500502080F31188BFF34F8FBFF36F8FCE
:10511000FEE7616D2943616516E0616D491C6165BB
:1051200012E0656510E0022801D065650CE00027FB
:105130000AE0616D491C07D0502080F31188BFF34D
:105140004F8FBFF36F8FFEE701281DD1A06A38B1E2
:10515000502080F31188BFF34F8FBFF36F8FFEE7AE
:10516000144D286BA8B104F118011348FFF74CF84F
:10517000E06A2968C96A884206D90120B8F1000F9F
:1051800001D0C8F80000E86186F311883846BDE810
:10519000F087201DFEF7E8FFE06A2969884200D900
:1051A000286100EB8001054800EB8100211DFFF71D
:1051B0002BF8DDE74800002020070020980200209F
:1051C0000148006870470000480000200548416918
:1051D000002903D0006B18B10020704701207047F0
:1051E00002207047480000200148C0687047000056
:1051F000480000202DE9F04100262F4F386B002891
:1052000005D0B869401CB8613046BDE8F081FD6842
:105210006D1CFD609DB9786B006838B1502080F33B
:105220001188BFF34F8FBFF36F8FFEE7786BB96BB9
:105230007963B863386A401C3862FEF743FEB86A87
:10524000DFF8788085420DD3786B006838B1786BD1
:10525000C068C4686068854212D2B86202E04FF04C
:10526000FF30B8623868C06A00EB800058F8200050
:10527000012800D90126F8690028C5D00126C3E716
:10528000201DFEF771FFA06A18B104F11800FEF7A7
:105290006BFFE06A3969884200D9386100EB800011
:1052A00008EB8000211DFEF7AFFFE06A3968C96A8C
:1052B0008842C9D30126C7E7480000209802002091
:1052C0002DE9F04781460F4616469846FEF7A8FF9F
:1052D0001D4D286890F85800022817D02C68606D82
:1052E00020EA090060652968012081F85800B8F1BA
:1052F000000F0BD001214046FEF750FA13494FF042
:1053000080500860BFF34F8FBFF36F8FFEF7A8FF89
:10531000FEF786FF16B12868406D3060286890F867
:105320005800022801D0002404E02868416DB943E8
:10533000416501242968002081F85800FEF790FF9C
:105340002046BDE8F08700004800002004ED00E0A2
:1053500070B504460020002C2BD01A4D29688C42D1
:1053600007D0502080F31188BFF34F8FBFF36F8FAA
:10537000FEE7216DF1B1491E2165E36CE26A9A42B4
:1053800017D0002915D1201DFEF7EEFEE06CE0627B
:10539000C0F13800A061E06A2969884200D928611B
:1053A000094900EB800001EB8000211DFEF72CFF76
:1053B000012070BD502080F31188BFF34F8FBFF3E1
:1053C0006F8FFEE7480000209802002070B5044669
:1053D0000020002C2CD01A4DE16A2A68D26A914232
:1053E00027D2A069002804DB2868C06AC0F1380011
:1053F000A061E06A134E00EB8000616906EB80005B
:10540000814211D1201DFEF7AFFE2868C06AE0621C
:105410002969884200D9286100EB800006EB8000F2
:10542000211DFEF7F1FE02E02868C06AE06201205B
:1054300070BDE16C2A68D26A9142F9D2012070BD38
:10544000480000209802002070B5C068C468002C95
:1054500014D004F118000646FEF786FE154D2A6B9F
:10546000A2B131461448FEF7CFFEE06A2968C96A46
:1054700088421CD901200121E96170BD502080F3D0
:105480001188BFF34F8FBFF36F8FFEE7201DFEF72C
:105490006BFEE06A2969884200D92861074900EB60
:1054A000800001EB8000211DFEF7AEFEDDE700204D
:1054B00070BD000048000020200700209802002056
:1054C0002DE9F041002400272B4D286B002807D040
:1054D000FEF7A6FE286B401E2863286B40B146E00D
:1054E000502080F31188BFF34F8FBFF36F8FFEE71B
:1054F000A868E0B3DFF8848001261CE0D8F80C002F
:10550000C46804F11800FEF72FFE201DFEF72CFEE4
:10551000E06A2969884200D92861194900EB8000B6
:1055200001EB8000211DFEF76FFEE06A2968C96A61
:10553000884200D3EE61D8F800000028DED10CB11B
:10554000FEF7C0FCAC6944B1FFF754FE00B1EE6158
:10555000641E002CF8D10020A861E86938B1012749
:10556000084938070860BFF34F8FBFF36F8FFEF70E
:1055700077FE3846BDE8F081480000202007002073
:105580009802002004ED00E02DE9FC4706460A9D44
:105590000F46904699462C20FEF74AFD044654B12A
:1055A000002084F82800CDE900544B464246394695
:1055B0003046FEF7E4FA2046BDE8FC877CB5064697
:1055C000DDE906042C250195002C09D0022584F87C
:1055D0002850CDE900043046FEF7D1FA20467CBDC4
:1055E000502080F31188BFF34F8FBFF36F8FFEE71A
:1055F00030B587B00024FEF745F9134D2868B0B1E7
:1056000000200690059004AA05A906A8FEF7CAFD89
:10561000DDE905100222CDE90021029000230BA153
:105620000C48049AFFF7A2FC686000B1012414B191
:1056300007B0204630BD502080F31188BFF34F8F54
:10564000BFF36F8FFEE7000084000020546D7220CE
:1056500053766300B13F00082DE9FF4106460A9FDB
:105660009C460020002E15D0154D2C68002C0ED025
:1056700000910192029606291BDAFFF7A7FD022886
:1056800010D000231A4669462868FFF701F904B0D4
:10569000BDE8F081502080F31188BFF34F8FBFF336
:1056A0006F8FFEE700233A4669462868FFF7F0F857
:1056B000EDE70023624669462046FFF79BF9E6E7DF
:1056C0008400002090EA010F48BF81F0004100F102
:1056D0006881421A3CBF801A89184FEAD0524FF0B5
:1056E0007F4C1CEA410FA2EBD15318BF9CEA026F1A
:1056F00000F03B804FF0004C4CEA00204CEA0121C6
:1057000021FA03FC10EB0C0C1ED202F1FF325FEA0F
:105710001C2040EBC25038BF70471CF07F0F4FEA8F
:10572000400C18BFBCF17F4F38BF7047C3F1200356
:10573000994008BF20F00100BCF17F4F38BF70478F
:10574000A0F1C04000F021B94FEA3C00000A40EB54
:10575000C25028BF1CF0FF0F4FEA400CE6D018BF24
:10576000BCF17F4F38BF7047EAE79CEA026F05D073
:1057700010EA5C0F08BF00F00040704710B500F061
:10578000BEF800BF64FBBE3E014800F078B900BF20
:105790000000C07F41000B0ED3F19E0208D950F4E7
:1057A00000034FEA032323FA02F048BF4042704748
:1057B00010B500F0A4F800BF499224800020704783
:1057C0006FF0004282EA20007047000010F00041B4
:1057D00048BF4042B0FA80F310FA03F2C3F19D03D0
:1057E0000BD051EAC35101EB1220530638BF70476A
:1057F00000F1010008BF20F0010070474FF47F0C5A
:105800001CEAD0121EBF1CEAD11392EA0C0F93EAD5
:105810000C0F00F0478090EA010F48BF42F48072FD
:105820004FF0004C4CEA00204CEA012102EB03024D
:10583000A0FB0113A2F50002002918BF43F00103E9
:105840005B0028BF4FEA330342EB22425FEA132C8E
:105850004CEBC2502EBFBCEB436FB2F57C0F7047D0
:105860004FEA036CBCF1004F08BF20F00100B2F515
:105870007C0F38BF70470BD582F0FF0212F5803FD6
:10588000C8BF704700F1C040D8BF00F0004070476B
:1058900000F5000C5FEA4C0C48BF7047B0F1C04007
:1058A00000F073B890EA010F0CEAD11348BF42F43C
:1058B0008072624538BF634504D280EA010000F07F
:1058C0000040704710B500F01AF800BF8900013E93
:1058D00000F007B800F009B85FEA410C5FEA1C6C01
:1058E00008D080EA010000F050B85FEA400C5FEA9F
:1058F0001C6CF6D14FF00040A0F5800070470EF10F
:10590000020E2EF0030E5EF8044B244204D44FEA3C
:105910004102B2F17F4F11D84FEA4003B3F17F4FFC
:105920000CD80ED14FEAD07CB2F17F4F0CEB4C0C6F
:105930000CF1020C08BF4CEBD17C04E04FF0080CDA
:1059400001E04FEAD17C0CEB4C0324FA03F404F0A1
:105950000704B4F1040C06D20EEB840CBDE8104031
:105960004CF0010C6047DFE80CF0070802024FF032
:105970000040A0F5800010BD0846420018BFD2F1DB
:10598000807288BF00F0004010BDFF2141EAD05076
:10599000C005704790EA010F48BF81F000413FF514
:1059A00098AE421A04D882F00042A0EB02001144E3
:1059B0004FEAD0524FF07F4C1CEA410FA2EBD1537B
:1059C00018BF9CEA026F4AD04FF0004C4CEA00200E
:1059D0004CEA012121FA03FCB0EB0C0C0FD412F0BD
:1059E000FE0F36D05FEA4C001DD5001240EBC250CE
:1059F00038BF70471CF03F0F18BF70470BE0A2F193
:105A000001025FEA1C2040EBC25038BF70471CF017
:105A10007F0F18BF7047C3F12003994014BF401E89
:105A200020F00100704780084FEA122308BF70473A
:105A3000B0FA80FCA2EB0C02CCF1280C60FA0CF05E
:105A400093EA122F04BF00EBC25070474FEAC370B5
:105A50007047130A5FEADC1008BF7047F6E79CEA5C
:105A6000026F04D010EA5C0F08BF0020704710B529
:105A7000FFF745FF40DFF63E81F0004070470CF035
:105A80000F03092B08BF082000F051800A2B0BD010
:105A9000082B18BF704708BF1CF0400F0AD04FF00A
:105AA00000004FF0000170471CF0400F18BF4FF08E
:105AB000004070471CF0100F08D020F0704300F039
:105AC0007F4242EAD3014FEA4370704700F06040E2
:105AD00021F07F4242EA000201F07F4040EA72700A
