:020000040800F2
:10000000A821002021020008912E00089721000855
:100010008D2E00089F050008C5350008000000006F
:10002000000000000000000000000000890100083E
:10003000A305000800000000CD0100085B300008A7
:100040003B0200083B0200083B0200083B0200089C
:100050003B0200083B0200083B0200083B0200088C
:100060003B0200083B0200083B0200083B0200087C
:100070003B0200083B0200083B0200083B0200086C
:100080003B0200083B0200083B0200083B0200085C
:100090003B0200083B0200083B020008C1050008C3
:1000A0003B0200083B0200083B0200083B0200083C
:1000B0003B0200083B020008D93000083B02000860
:1000C0003B0200083B0200083B0200083B0200081C
:1000D0003B0200083B0200083B0200083B0200080C
:1000E000A50500083B0200083B02000800F002F8EA
:1000F00000F03AF80AA090E8000C82448344AAF188
:100100000107DA4501D100F02FF8AFF2090EBAE885
:100110000F0013F0010F18BFFB1A43F0010318473B
:10012000786C0000986C0000103A24BF78C878C141
:10013000FAD8520724BF30C830C144BF04680C60ED
:10014000704700000023002400250026103A28BF35
:1001500078C1FBD8520728BF30C148BF0B60704739
:100160001FB51FBD10B510BD00F0B0F91146FFF767
:10017000F7FF03F023FB00F0CEF903B4FFF7F2FF23
:1001800003BC00F095F90000224B19680868B0E83C
:10019000F00F80F30988BFF36F8F4FF0000080F3FA
:1001A00011884EF00D0E70470000000006480068F0
:1001B000006880F3088862B661B6BFF34F8FBFF363
:1001C0006F8F00DF00BF00BF08ED00E0EFF3098094
:1001D000BFF36F8F0F4B1A6820E9F00F106008B55E
:1001E0004FF0500080F31188BFF34F8FBFF36F8F34
:1001F00004F09EFF4FF0000080F31188BDE8084036
:1002000019680868B0E8F00F80F30988BFF36F8FB2
:10021000704700BF48000020EFF3058070470000E2
:100220000948804709480047FEE7FEE7FEE7FEE78A
:10023000FEE7FEE7FEE7FEE7FEE7FEE704480549C6
:10024000054A064B70470000D7300008ED00000853
:10025000A81B0020A8210020A81D0020A81D002008
:100260000EB5054614460E4613A000F0BBF828460E
:1002700000F0B8F816A000F0B5F8304600F0B2F87B
:1002800015A000F0AFF800218DF80B100A210DF138
:100290000A008DF80A1008E094FBF1F201FB12420B
:1002A00094FBF1F4303200F8012D002CF4DC00F066
:1002B00099F800F08CF800002A2A2A2061737365EF
:1002C0007274696F6E206661696C65643A20000023
:1002D0002C2066696C6520002C206C696E652000FE
:1002E000032A40F2308010F0030C00F0158011F862
:1002F000013BBCF1020F624498BF11F801CB00F83A
:10030000013B38BF11F8013BA2F1040298BF00F88D
:1003100001CB38BF00F8013B11F0030300F06C8003
:10032000083AC0F0088051F8043B083A51F804CB71
:10033000A0E80810F5E7121D5CBF51F8043B40F837
:10034000043BAFF30080D20724BF11F8013B11F842
:1003500001CB48BF11F8012B24BF00F8013B00F886
:1003600001CB48BF00F8012B704702F0FF0343EABE
:10037000032242EA024200F073B84FF0000200B5D7
:10038000134694469646203922BFA0E80C50A0E8B8
:100390000C50B1F12001BFF4F7AF090728BFA0E866
:1003A0000C5048BF0CC05DF804EB890028BF40F832
:1003B000042B08BF704748BF20F8022B11F0804F74
:1003C00018BF00F8012B704770477047704710B591
:1003D000002000F073F8FFF7C5FEBDE810400120D3
:1003E00000F066B810B5044602E0641C00F058F84E
:1003F00020780028F9D110BD10B5203AC0F00B804C
:10040000B1E81850203AA0E81850B1E81850A0E818
:100410001850BFF4F5AF5FEA027C24BFB1E8185072
:10042000A0E8185044BF18C918C0BDE810405FEAE2
:10043000827C24BF51F8043B40F8043B08BF70475E
:10044000D20728BF31F8023B48BF11F8012B28BF63
:1004500020F8023B48BF00F8012B70474FF0000224
:100460000429C0F0128010F0030C3FF488AFCCF1E7
:10047000040CBCF1020F18BF00F8012BA8BF20F834
:10048000022BA1EB0C01FFF77ABF5FEAC17C24BF0E
:1004900000F8012B00F8012B48BF00F8012B704732
:1004A00008B569468DF800000320ABBE08BD00000A
:1004B00001491820ABBEFEE72600020010B500F08F
:1004C00039F8BDE8104000F02FB87047754600F0CD
:1004D00049F8AE4605006946534620F007008546B8
:1004E00018B020B5FFF7AAFEBDE820404FF0000687
:1004F0004FF000074FF000084FF0000B21F007010C
:10050000AC46ACE8C009ACE8C009ACE8C009ACE84E
:10051000C0098D46704710B50446AFF300802046F1
:10052000BDE81040FFF729BE002801D0FFF7C0BF8B
:100530007047000010B5002102A000F017F801205C
:1005400010BD0000534947414252543A2041626E67
:100550006F726D616C207465726D696E6174696F24
:100560006E00000000487047441B002070B505462F
:100570000C460A2000E06D1CFFF792FF35B1287889
:100580000028F8D102E0641CFFF78AFF14B120783C
:100590000028F8D1BDE870400A20FFF781BF00BFF6
:1005A000FEE7704710B54FF4005000F035F84FF4F7
:1005B000804000F031F84FF4004000F02DF810BDFD
:1005C00010B54FF4807000F027F810BD72B600BF70
:1005D000FEE7000010B50446B4F5807F07D1172070
:1005E00000F004FE01210B48006803F0D7FAB4F5CF
:1005F000005F05D0B4F5804F02D0B4F5004F07D1AD
:10060000282000F0F3FD01210248006803F0C6FA3B
:1006100010BD00001C00002010B50446044800680E
:10062000204020B1024804602046FFF7D3FF10BDF0
:10063000140401402DE9F8470346002294466EE178
:100640004FF0010808FA02F4D1F8008008EA04002B
:10065000A0427DD1DFF8DCA2D1F80480A8EB0A0922
:10066000D0453AD014DCB8F1030F50D009DCB8F112
:10067000000F31D0B8F1010F1CD0B8F1020F49D1F1
:1006800020E0B8F1110F18D0B8F1120F42D11EE0DE
:10069000B9F5881F25D006DCB9F5803F20D0B9F523
:1006A000801F37D11AE0B9F5001F18D0B9F5041F23
:1006B00030D117E0D1F80CC02DE0D1F80C8008F152
:1006C000040C28E0D1F80C8008F1080C23E0D1F8E4
:1006D0000C8008F10C0C1EE000BF00BF00BF00BF83
:1006E00000BF00BFD1F80880B8F1000F02D14FF071
:1006F000040C0BE0D1F80880B8F1010F03D14FF0E2
:10070000080C1C6102E04FF0080C5C6103E04FF044
:10071000000C00E000BF00BFFF2801D8984601E0B0
:1007200003F104084646FF2802D84FEA820803E096
:10073000A2F108084FEA88084746D6F800804FF033
:100740000F0909FA07F928EA09080CFA07F900E085
:1007500088E048EA0908C6F80080D1F8048008F06B
:100760008058B8F1805F7DD100BFDFF8CC81D8F828
:10077000188048F00108DFF8C091C9F81880C84611
:10078000D8F8188008F00108CDF8008000BF00BF3D
:100790004FEAB9384FEA920958F829504FEA82785F
:1007A0004FEA18794FF00F0808FA09F825EA08050A
:1007B000DFF88881434502D14FF0000816E0DFF8EA
:1007C0008081434502D14FF001080FE0DFF87481CA
:1007D000434502D14FF0020808E0DFF86C81434541
:1007E00002D14FF0030801E04FF004084FEA82798C
:1007F0004FEA197908FA09F848EA0505DFF84C814B
:100800004FEA920948F82950D1F8048008F480187A
:10081000B8F5801F0AD1DFF83881D8F8008048EA9F
:100820000008DFF82C91C9F8008009E0DFF820818A
:10083000D8F8008028EA0008DFF81491C9F8008091
:10084000D1F8048008F40018B8F5001F10D1DFF8C3
:10085000008108F10408D8F8008048EA0008DFF8B1
:10086000F09000E05AE009F10409C9F800800DE0B9
:10087000DFF8DC8008F10408D8F8008028EA0008D6
:10088000DFF8CC9009F10409C9F80080D1F80480A0
:1008900008F40038B8F5003F0ED1DFF8B480A8F1B5
:1008A0000408D8F8008048EA0008DFF8A490A9F10D
:1008B0000409C9F800800DE0DFF89480A8F104086D
:1008C000D8F8008028EA0008DFF88490A9F104092C
:1008D000C9F80080D1F8048008F48038B8F5803F6A
:1008E0000ED1DFF86C80A8F10808D8F8008048EA3B
:1008F0000008DFF85C90A9F10809C9F800800DE054
:10090000DFF84C80A8F10808D8F8008028EA000831
:10091000DFF83C90A9F10809C9F80080521CD1F811
:10092000008028FA02F8B8F1000F7FF489AEBDE824
:10093000F88700000000111000100240000801407C
:10094000000C01400010014000140140080001406B
:1009500008040140024693680B400BB1012000E0FF
:10096000002070470AB1016101E00B040361704788
:1009700001480068704700003800002070B5044648
:100980000CB9012070BD94F83D0028B9002084F80E
:100990003C00204600F046FB242084F83D002068FF
:1009A000006820F00100216808602068006840F4B9
:1009B0000040216808602068006820F40040216839
:1009C000086000F075FD05465C496068884206D8FD
:1009D0005B48854201D2012007E0002005E059482C
:1009E000854201D2012000E00020012800D1C9E7A2
:1009F0005548B5FBF0F62068406820F03F003043D2
:100A0000216848604D496068884201D8701C07E041
:100A10004FF4967070434FF47A71B0FBF1F0401CC4
:100A20002168096A21F03F010843216808624349AF
:100A30006068884214D8681E61684900B0FBF1F014
:100A4000401CC0F30B00042801D204203DE0681EC6
:100A500061684900B0FBF1F0401CC0F30B0034E0CA
:100A6000A06838B9681E616801EB4101B0FBF1F084
:100A7000401C0AE0681E616801EBC10202EB011133
:100A8000B0FBF1F0401C40F48040C0F30B0008B90B
:100A900001201AE0A06848B9681E616801EB4101B5
:100AA000B0FBF1F0401CC0F30B000CE0681E616865
:100AB00001EBC10202EB0111B0FBF1F0401CC0F3ED
:100AC0000B0040F4804040F400402168C9694CF6B6
:100AD000FF72914308432168C861D4E907010843C4
:100AE0002168096821F0C001084321680860D4E941
:100AF000031008432168896848F2FF329143084394
:100B000021688860D4E9050108432168C96821F09B
:100B1000FF0108432168C8602068006840F00100B8
:100B20002168086000202064202084F83D00002017
:100B3000206384F83E0000BF24E70000A086010087
:100B400080841E0000093D0040420F002DE9FE4F49
:100B500004460F4690469946DDE90CAB0E9E0020F8
:100B60000290FFF705FF054694F83D00202872D15A
:100B700019230122CE492046009501F080FC10B1D6
:100B80000220BDE8FE8F00BF94F83C00012801D18F
:100B90000220F6E7012084F83C0000BF20680068CE
:100BA00000F0010028B92068006840F001002168C9
:100BB00008602068006820F4006021680860222036
:100BC00084F83D00402084F83E0000202064C4F8F2
:100BD00024A0A4F82AB0608D2085B648E0624B4678
:100BE000424639462046CDE9006501F0F5FA08B1E4
:100BF0000120C6E7208D88B900BF00200190206841
:100C00004069019020688069019000BF00BF2068A2
:100C1000006840F40070216808604BE0208D0128D6
:100C20001AD12068006820F480602168086072B6DC
:100C300000BF002001902068406901902068806911
:100C4000019000BF00BF2068006840F40070216878
:100C5000086062B62EE029E1208D022819D12068B3
:100C6000006840F400602168086072B600BF002090
:100C7000019020684069019020688069019000BF60
:100C800000BF2068006820F480602168086062B6B8
:100C900010E02068006840F480602168086000BFB0
:100CA00000200190206840690190206880690190CF
:100CB00000BF00BFEBE0208D03287DD8208D0128E8
:100CC00015D12A463146204601F0B5FC08B1012075
:100CD00057E720680069616A0870606A401C6062BA
:100CE000208D401E2085608D401E6085CFE0208DC8
:100CF00002282CD1334600226F492046009501F08E
:100D0000BEFB08B101203CE772B62068006840F4E1
:100D100000702168086020680069616A0870606A74
:100D2000401C6062208D401E2085608D401E6085C5
:100D300062B620680069616A0870606A401C60627F
:100D4000208D401E2085608D401E60859FE03346CB
:100D5000002259492046009501F091FB08B101207D
:100D60000FE72068006820F480602168086072B690
:100D700020680069616A0870606A401C6062208DAA
:100D8000401E2085608D401E60854C4800681921FA
:100D9000B0FBF1F04FF47A71B0FBF1F0C0EBC000A2
:100DA00000EB8000029000BF0298401E0290029863
:100DB000A8B90020206300E039E0202084F83D003D
:100DC000002084F83E00206C40F02000206462B6D1
:100DD00000BF002084F83C0000BF0120D1E620685D
:100DE0004069C0F380000028DED02068006840F42D
:100DF00000702168086020680069616A0870606A94
:100E0000401C6062208D401E2085608D401E6085E4
:100E100062B620680069616A0870606A401C60629E
:100E2000208D401E2085608D401E60852FE02A4663
:100E30003146204601F0FFFB08B10120A1E6206801
:100E40000069616A0870606A401C6062208D401E03
:100E50002085608D401E608520684069C0F3800059
:100E6000A8B1208D032805D12068006820F4806097
:100E70002168086020680069616A0870606A401C27
:100E80006062208D401E2085608D401E6085208D13
:100E900000287FF410AF202084F83D00002084F863
:100EA0003E0000BF84F83C0000BF6AE6022068E60E
:100EB000020010000000FFFF0400010044000020B9
:100EC0002DE9FC5F04460F4690469946DDE90CABE0
:100ED0000E9EFFF74DFD054694F83D0020287DD17C
:100EE000192301224D492046009501F0C8FA10B19E
:100EF0000220BDE8FC9F00BF94F83C00012801D10E
:100F00000220F6E7012084F83C0000BF206800685A
:100F100000F0010028B92068006840F00100216855
:100F200008602068006820F40060216808602120C3
:100F300084F83D00402084F83E0000202064C4F87E
:100F400024A0A4F82AB0608D20853548E0624B4685
:100F5000424639462046CDE9006501F0EDF908B179
:100F60000120C6E731E02A463146204601F0A8FBC1
:100F700050B1206C042805D12068006840F400704E
:100F8000216808600120B4E7606A00782168086180
:100F9000606A401C6062208D401E2085608D401E6E
:100FA000608520684069C0F3800070B1208D60B119
:100FB000606A007821680861606A401C6062208D68
:100FC000401E2085608D401E6085208D0028CAD17E
:100FD0002A463146204601F01FFA00E01CE050B1DD
:100FE000206C042805D12068006840F40070216856
:100FF000086001207DE72068006840F400702168E7
:101000000860202084F83D00002084F83E0000BFE6
:1010100084F83C0000BF6CE702206AE70200100081
:101020000000FFFF10B586B0044600200290039038
:101030000490059015492068884225D100BF1448C6
:10104000806940F00800124988610846806900F014
:101050000800019000BF00BFC02002901220039042
:101060000320059002A90B48FFF7E4FA00BF0848E7
:10107000C06940F400100649C8610846C06900F420
:101080000010019000BF00BF06B010BD005400402A
:1010900000100240000C0140034800680349097831
:1010A00008440149086070473800002040000020D3
:1010B00010B50848006840F0100006490860032099
:1010C00000F0F4F80F2000F007F800F05FF80020BF
:1010D00010BD0000002002402DE9F04188B0044618
:1010E0000027B846002600BF2348C06940F004002E
:1010F0002149C8610846C06900F00400019000BFA2
:1011000000BF02A903A800F0ABF9069F1FB900F0C9
:10111000CFF9054602E000F0CBF945001748B5FBD2
:10112000F0F0A0F1010816481649086040F2E731D6
:101130001448C160C0F804800021016181608161B0
:1011400000F084FC064696B90E4800F0B3FC064653
:101150006EB91E2000F05CF8102C07D20022214648
:101160001E2000F065F80848046000E001263046C3
:1011700008B0BDE8F08100000010024040420F00BE
:1011800000080040280200203C00002008B500BFF5
:101190001448806940F0010012498861084680695E
:1011A00000F00100009000BF00BF00BF0846C0690A
:1011B00040F08050C8610846C06900F0805000903F
:1011C00000BF00BF00220F21901E00F031F800BFC9
:1011D0000549486820F0E06040F00070486000BFBA
:1011E00008BD0000001002400000014010B501469B
:1011F0000846002807DB00F01F0301229A40034B3A
:10120000440943F8242000BF10BD000080E200E044
:1012100001460846002809DB00F01F0301229A401E
:1012200043099B0003F1E023C3F8002100BF70478E
:101230002DE9F05F80460D461646002702F020FAA1
:10124000074639462A46334601F00700C0F1070A2F
:10125000BAF1040F02D94FF0040A01E0C0F1070A05
:10126000D14600F1040ABAF1070F02D24FF0000A8A
:1012700001E0A0F1030AD4464FF0010A0AFA09FA84
:10128000AAF1010A0AEA020A0AFA0CFA4FF0010B63
:101290000BFA0CFBABF1010B0BEA030B4AEA0B0454
:1012A0002146404602F0F4F9BDE8F09F00BF00F08F
:1012B0000702064B19684FF6FF031940044B0B4316
:1012C00043EA0221014B196000BF70470CED00E0BA
:1012D0000000FA0570B504460D460CB9012070BD3A
:1012E0005A48006800F00700A8420ED2574800682C
:1012F00020F007002843554908600846006800F0C0
:101300000700A84201D00120E9E7207800F00200A0
:1013100002281DD1207800F00400042805D14C4893
:10132000406840F4E0604A494860207800F00800D6
:10133000082805D14648406840F460504449486058
:101340004348406820F0F000A168084340494860E5
:10135000207800F0010078B36068012806D13C488D
:10136000006800F4003090B90120B8E760680228F6
:1013700006D13748006800F0007040B90120AEE7A0
:101380003348006800F0020008B90120A7E73048A0
:10139000406820F00300616808432D494860FFF76A
:1013A000E7FA064609E0FFF7E3FA801B41F28831CD
:1013B000884202D9032092E707E02548406800F000
:1013C0000C006168B0EB810FEDD12048006800F09F
:1013D0000700A8420ED91D48006820F007002843E6
:1013E0001A4908600846006800F00700A84201D0CA
:1013F000012074E7207800F00400042807D1144885
:10140000406820F4E060E1680843114948602078B2
:1014100000F00800082808D10D48406820F460500A
:10142000216940EAC1000A49486000F061F80849B2
:101430004968C1F30311074A515CC8400649086076
:1014400006480068FFF748FE002048E700200240F9
:10145000001002401E6D0008440000203C000020E7
:101460000F2202600D4A526802F0030242600B4AEA
:10147000526802F0F0028260084A526802F4E062A8
:10148000C260064A526802F46052D2080261044AFD
:10149000126802F007020A60704700000010024064
:1014A000002002400148006870470000440000200E
:1014B00000B5FFF7F7FF04494968C1F30221034A69
:1014C000515CC84000BD0000001002402E6D0008B5
:1014D00000B5FFF7E7FF04494968C1F3C221034A99
:1014E000515CC84000BD0000001002402E6D000895
:1014F00070B500210022002400230020134D6968EC
:1015000001F00C05F5B1042D02D0082D19D101E030
:101510000F4819E00F4DC1F38346AB5D01F48035F0
:1015200055B10A4D6D68C5F340450B4E725D084DCF
:101530005D43B5FBF2F402E0084D03FB05F42046E1
:1015400002E000BF024800BF00BF70BD00100240B3
:1015500000127A000C6D00081C6D000800093D00A7
:10156000F8B504460CB90120F8BD207800F0010060
:10157000002878D0F848406800F00C0004280CD00F
:10158000F548406800F00C00082811D1F248406886
:1015900000F48030B0F5803F0AD1EF48006800F4D5
:1015A000003000285FD0606800285CD10120DBE7B4
:1015B00000BF6068B0F5803F06D1E748006840F49E
:1015C0008030E549086028E0606858B9E248006862
:1015D00020F48030E04908600846006820F480204C
:1015E00008601AE06068B0F5A02F0BD1DA480068F7
:1015F00040F48020D84908600846006840F48030F4
:1016000008600AE0D448006820F48030D2490860BD
:101610000846006820F48020086000BF606888B138
:10162000FFF7A6F9054606E0FFF7A2F9401B64287C
:1016300001D9032098E7C848006800F4003000286A
:10164000F2D010E0FFF794F9054606E0FFF790F9B5
:10165000401B642801D9032086E7BF48006800F4D6
:1016600000300028F2D1207800F00200022857D183
:10167000B948406800F00C0050B1B748406800F02D
:101680000C00082818D1B448406800F4803098B99C
:10169000B148006800F0020020B12069012801D0A3
:1016A000012061E7AC48006820F0F800616940EA79
:1016B000C100A949086033E02069E8B10120A749C9
:1016C0000860FFF755F9054606E0FFF751F9401BA2
:1016D000022801D9032047E79F48006800F0020074
:1016E0000028F2D09C48006820F0F800616940EAC8
:1016F000C1009949086013E0002098490860FFF78D
:1017000037F9054606E0FFF733F9401B022801D9F7
:10171000032029E79048006800F002000028F2D179
:10172000207800F0080008282DD1A069B8B1012068
:101730008B490860FFF71CF9054606E0FFF718F92A
:10174000401B022801D903200EE78348406A00F0BD
:1017500002000028F2D0012001F05EFC13E000201E
:101760007F490860FFF704F9054606E0FFF700F936
:10177000401B022801D90320F6E67748406A00F0B2
:1017800002000028F2D1207800F00400042873D170
:1017900000277148C06900F0805070B900BF6E48E2
:1017A000C06940F080506C49C8610846C06900F0CB
:1017B0008050009000BF00BF01276A48006800F415
:1017C0008070B0B96748006840F48070654908606F
:1017D000FFF7CEF8054606E0FFF7CAF8401B64287D
:1017E00001D90320C0E65F48006800F4807000283B
:1017F000F2D000BFE068012806D15748006A40F0E7
:1018000001005549086227E0E06858B95248006A6B
:1018100020F00100504908620846006A20F00400E8
:10182000086219E0E06805280BD14B48006A40F0D7
:101830000400494908620846006A40F00100086255
:101840000AE04548006A20F0010043490862084662
:10185000006A20F00400086200BFE068A0B1FFF752
:1018600087F8054609E0FFF783F8401B41F288310D
:10187000884202D9032077E622E03748006A00F068
:1018800002000028EFD012E0FFF772F8054608E0EA
:10189000FFF76EF8401B41F28831884201D90320DE
:1018A00062E62D48006A00F002000028F0D1012F06
:1018B00005D12948C06920F080502749C86100BF80
:1018C000E069C8B32448406800F00C00082860D0E4
:1018D000E069022848D1002020490866FFF748F84F
:1018E000054606E0FFF744F8401B022801D9032013
:1018F0003AE61948006800F000700028F2D1206A2A
:10190000B0F5803F07D11448406820F40030A1684A
:10191000084311494860D4E9080108430E49496861
:1019200021F4741108430C49486001200B490866F2
:10193000FFF71EF8054607E03DE0FFF719F8401BEA
:10194000022801D903200FE60348006800F0007068
:101950000028F2D02FE000000010024000004242B8
:101960008004424200700040002014490866FEF7DF
:10197000FFFF054606E0FEF7FBFF401B022801D9EA
:101980000320F1E50E48006800F000700028F2D155
:1019900011E0E069012800D1E6E50948466806F44F
:1019A0008031206A814204D106F47011606A81425C
:1019B00001D00120D8E50020D6E500000000424219
:1019C000001002407047704730B502460B4600BF1A
:1019D00092F83C00012801D1022030BD012082F89C
:1019E0003C0000BF022082F83D0010684468106887
:1019F000816824F070041868044310684460104D36
:101A00001068A8420BD01068B0F1804F07D00D4D80
:101A10001068A84203D00C4D1068A84205D121F0EF
:101A200080015868014310688160012082F83D0000
:101A300000BF002082F83C0000BF00BFCDE70000DF
:101A4000002C0140000400400008004010B504468E
:101A50000CB9012010BD94F83D0028B9002084F88D
:101A60003C00204600F025F8022084F83D00211DAE
:101A7000206801F039FB012084F8460000BF84F89B
:101A80003E0001213F2001554020015541200155D4
:101A900000BF00BF012084F84200432001554420CC
:101AA00001554520015500BF012084F83D0000206C
:101AB000D0E77047014691F83D00012801D0012090
:101AC0007047022081F83D000868C06840F00100BE
:101AD0000B68D860124B086898420BD00868B0F1C8
:101AE000804F07D00F4B0868984203D00E4B086810
:101AF00098420CD10868806800F00702062A0CD0D2
:101B00000868006840F001000B68186005E008688C
:101B1000006840F001000B6818600020D0E700006A
:101B2000002C01400004004000080040704770B5E0
:101B300004462068C5682068066906F0020002288D
:101B400019D105F00200022815D1401F2168086153
:101B5000012020772068806900F0030018B120463A
:101B6000FFF7E4FF05E0204600F0E0F8204600F033
:101B7000BDF90020207706F00400042819D105F0F3
:101B80000400042815D1C043216808610220207791
:101B90002068806900F4407018B12046FFF7C6FF46
:101BA00005E0204600F0C2F8204600F09FF9002032
:101BB000207706F00800082819D105F00800082849
:101BC00015D1C04321680861042020772068C069CE
:101BD00000F0030018B12046FFF7A8FF05E02046FB
:101BE00000F0A4F8204600F081F90020207706F0EC
:101BF0001000102819D105F01000102815D1C0438D
:101C000021680861082020772068C06900F44070CE
:101C100018B12046FFF78AFF05E0204600F086F85D
:101C2000204600F063F90020207706F0010048B15B
:101C300005F0010030B16FF0010021680861204615
:101C400000F0C0F906F08000802809D105F080007E
:101C5000802805D1C043216808612046FFF7B2FE05
:101C600006F04000402809D105F04000402805D189
:101C7000C04321680861204600F0B0F906F020005A
:101C8000202809D105F02000202805D1C043216873
:101C900008612046FFF797FE70BD000010B586B0C2
:101CA0000446002002900390049005902068B0F153
:101CB000804F17D100BF1A48806940F004001849CE
:101CC00088610846806900F00400019000BF00BFF1
:101CD0000120029002200390059002A91148FEF70E
:101CE000A9FC1AE010492068884216D100BF0C48B0
:101CF000806940F004000A4988610846806900F064
:101D00000400019000BF00BF402002900220039019
:101D1000059002A90348FEF78DFC06B010BD000037
:101D200000100240000801400004004070472DE907
:101D3000F04104460D461646002700BF94F83C00CB
:101D4000012802D10220BDE8F081012084F83C0086
:101D500000BF36B1042E1BD0082E31D00C2E5ED120
:101D600045E02946206801F013FA2068806940F0B8
:101D70000800216888612068806920F004002168DB
:101D8000886120688069296908432168886148E082
:101D90002946206801F02CFA2068806940F4006030
:101DA000216888612068806920F4806021688861EA
:101DB00020688069296940EA01202168886130E053
:101DC0002946206801F048FA2068C06940F0080000
:101DD0002168C8612068C06920F004002168C861DA
:101DE0002068C069296908432168C86119E029464B
:101DF000206801F065FA2068C06940F4006021683D
:101E0000C8612068C06920F480602168C8612068CA
:101E1000C069296940EA01202168C86101E0012701
:101E200000BF00BF00BF002084F83C0000BF384660
:101E300089E710B504460CB9012010BD94F83D00A7
:101E400028B9002084F83C00204600F025F8022044
:101E500084F83D00211D206801F046F9012084F836
:101E6000460000BF84F83E0001213F20015540207C
:101E700001554120015500BF00BF012084F84200F8
:101E800043200155442001554520015500BF012044
:101E900084F83D000020D0E708B50168B1F1804F1B
:101EA0000DD100BF0F49C96941F001010D4AD1614F
:101EB0001146C96901F00101009100BF11E00A4A11
:101EC000016891420DD100BF0649C96941F0020184
:101ED000044AD1611146C96901F00201009100BFB5
:101EE00000BF08BD00100240000400407047000021
:101EF00070B504460D4615B994F83E000BE0042D6C
:101F000002D13F20005D06E0082D02D14020005D97
:101F100001E04120005D012801D0012070BD1DB904
:101F2000022084F83E000EE0042D03D102213F2060
:101F3000015508E0082D03D102214020015502E09F
:101F400002214120015501222946206801F00EF9A5
:101F500019492068884201D1012000E0002028B101
:101F60002068406C40F400402168486412492068B1
:101F700088420BD02068B0F1804F07D00F4920680D
:101F8000884203D00E49206888420CD120688068BE
:101F900000F00706062E0CD02068006840F0010013
:101FA0002168086005E02068006840F001002168B1
:101FB00008600020B2E70000002C0140000400404F
:101FC0000008004010B5044603492068884201D14A
:101FD000FFF762F810BD000000080040704710B520
:101FE00004460CB9012010BDA06900B100E000BF9B
:101FF00094F8410028B9002084F84000204600F001
:1020000029F8242084F841002068C06820F400509A
:102010002168C860204601F011FA2068006920F4A8
:102020009040216808612068406920F02A002168FA
:1020300048612068C06840F400502168C8600020F2
:102040006064202084F8410084F84200002060632E
:1020500000BFC8E710B586B0044600200290039088
:10206000049005901949206888422DD100BF184876
:10207000C06940F400301649C8610846C06900F4E0
:102080000030019000BF00BF00BF0846806940F0EB
:10209000040088610846806900F00400019000BFD8
:1020A00000BF04200290022003900320059002A9A3
:1020B0000848FEF7BFFA0820029000200390049021
:1020C00002A90448FEF7B6FA06B010BD004400406D
:1020D00000100240000801402DE9F84F04460E466A
:1020E000174699464FF0000A94F84100202850D135
:1020F00006B117B90120BDE8F88F002060642120E7
:1021000084F84100FEF734FC8246A784E784A06887
:10211000B0F5805F04D1206910B90025B04602E017
:1021200035464FF000081EE053460022802120462D
:10213000CDF8009001F000FA20B1202084F8410091
:102140000320D8E745B9B8F80000C0F308002168BB
:10215000486008F1020803E02878216848606D1C97
:10216000E08C401EE084E08C0028DDD15346002244
:1021700040212046CDF8009001F0DEF920B120206A
:1021800084F841000320B6E7202084F841000020B5
:10219000B1E70220AFE700BFFEE7014608684069EB
:1021A000C0F38020B0B16FF480600A6850610020F5
:1021B0000863202081F83D00002081F83E00086C73
:1021C00040F00400086400BF002081F83C0000BF1C
:1021D000012070470020FCE72DE9F84304460F4634
:1021E00015469946DDE908862068006840F480605D
:1021F000216808602068006840F4807021680860E9
:10220000434600224FF001112046009600F037F9B6
:1022100060B12068006800F48070B0F5807F02D162
:102220004FF4007020640320BDE8F88307F0FE003F
:1022300021680861334642463E49204600F07EF957
:1022400008B10120F0E700BF00200090206840693D
:10225000009020688069009000BF00BF3246414670
:10226000204600F02DFA50B1206C042805D12068DA
:10227000006840F40070216808600120D4E7B9F1DB
:10228000010F03D1E8B22168086117E0C5F3072008
:102290002168086132464146204600F011FA50B1EB
:1022A000206C042805D12068006840F40070216883
:1022B00008600120B8E7E8B221680861324641466B
:1022C000204600F0FDF950B1206C042805D12068AB
:1022D000006840F40070216808600120A4E72068CD
:1022E000006840F4807021680860434600224FF087
:1022F00001112046009600F0C2F858B1206800682D
:1023000000F48070B0F5807F02D14FF4007020643B
:10231000032089E7F8B240F00100216808613346E4
:1023200042460449204600F009F908B101207BE744
:10233000002079E7020001002DE9F84304468846B1
:1023400015469946DDE908672068006840F480700A
:1023500021680860334600224FF0011120460097A3
:1023600000F08DF860B12068006800F48070B0F56E
:10237000807F02D14FF4007020640320BDE8F88311
:1023800008F0FE00216808613B463246214920469C
:1023900000F0D4F808B10120F0E700BF0020009061
:1023A00020684069009020688069009000BF00BFED
:1023B0003A463146204600F083F950B1206C04289B
:1023C00005D12068006840F4007021680860012091
:1023D000D4E7B9F1010F03D1E8B22168086117E031
:1023E000C5F30720216808613A463146204600F0CF
:1023F00067F950B1206C042805D12068006840F4CA
:102400000070216808600120B8E7E8B2216808611F
:102410000020B3E70200010070B504460D461646E1
:1024200025E02046FFF7B9FE08B1012070BD681C09
:10243000E8B1FEF79DFA801BA84200D8BDB920681C
:102440004069C0F3800090B900202063202084F808
:102450003D00002084F83E00206C40F02000206405
:1024600000BF002084F83C0000BF0120DEE72068A8
:102470004069C0F380000028D3D00020D6E72DE9C2
:10248000F04104460D4617461E46DDF8188038E038
:10249000701CA8B3FEF76CFAA0EB0800B04200D89D
:1024A00076BBC5F3074001280AD120684069A9B26C
:1024B0000840A9B2884201D101200BE0002009E0C8
:1024C00020688069A9B20840A9B2884201D10120E0
:1024D00000E00020B84214D100202063202084F8BE
:1024E0003D00002084F83E00206C40F02000206475
:1024F00000BF002084F83C0000BF0120BDE8F0814F
:10250000FFE7C5F3074001280AD120684069A9B256
:102510000840A9B2884201D101200BE0002009E067
:1025200020688069A9B20840A9B2884201D101207F
:1025300000E00020B842ABD00020DFE72DE9F041F9
:1025400004460D4616461F4658E020684069C0F311
:102550008020E8B12068006840F4007021680860BD
:102560006FF480602168486100202063202084F897
:102570003D00002084F83E00206C40F00400206400
:1025800000BF002084F83C0000BF0120BDE8F081BE
:10259000701C90B3FEF7ECF9C01BB04200D866BBCC
:1025A000C5F3074001280AD120684069A9B2084054
:1025B000A9B2884201D101200BE0002009E0206887
:1025C0008069A9B20840A9B2884201D1012000E087
:1025D000002090B900202063202084F83D000020D6
:1025E00084F83E00206C40F02000206400BF0020F2
:1025F00084F83C0000BF0120C8E7FFE7C5F30740AF
:1026000001280AD120684069A9B20840A9B28842CD
:1026100001D101200BE0002009E020688069A9B207
:102620000840A9B2884201D1012000E00020002822
:102630008BD00020AAE770B504460D46164637E059
:1026400020684069C0F30010A0B16FF0100021684D
:10265000486100202063202084F83D00002084F899
:102660003E00206C206400BF002084F83C0000BFC6
:10267000012070BDFEF77CF9801BA84200D8BDB9CF
:1026800020684069C0F3801090B9002020632020AA
:1026900084F83D00002084F83E00206C40F02000CB
:1026A000206400BF002084F83C0000BF0120E0E768
:1026B00020684069C0F380100028C1D00020D8E70E
:1026C00070B504460D46164625E02046FFF765FD29
:1026D00008B1012070BD681CE8B1FEF749F9801B04
:1026E000A84200D8BDB920684069C0F3C01090B9B5
:1026F00000202063202084F83D00002084F83E0064
:10270000206C40F02000206400BF002084F83C00D2
:1027100000BF0120DEE720684069C0F3C010002838
:10272000D3D00020D6E700000149086070470000C0
:10273000CC00002010B50848006808B9002010BD82
:102740000A210548006801F077F908B90020F6E78A
:102750004FF0FF30F3E70000340000202DE9FE4F7A
:102760000546894692461E460C9F1DB927480068BB
:1027700000B104E0362226A12DA0FDF771FD35B190
:10278000012D07D0022D07D0032D09D106E01F48E7
:10279000046807E0002405E0002403E0002401E0D1
:1027A000002400BF00BF14B90520BDE8FE8F06B1AC
:1027B0000FB90420F9E7FFF7BDFF08B10120F4E7E6
:1027C0000520012352464946CDE900670290204684
:1027D000FEF7BCF9804600F033F8B8F1000F0FD0D7
:1027E000B8F1010F06D0B8F1020F05D0B8F1030F10
:1027F00007D103E00220D8E70120D6E70120D4E783
:1028000001E00220D1E700BF0020CEE7CC0000208D
:102810002E2E5C436F72655C73656E736F72735CB2
:1028200073656E736F72735F6465762E630000006C
:102830004932435F494E55534528693263290000A8
:1028400010B50448006818B10248006801F07EF92C
:1028500010BD0000340000202DE9FE4F05468946DA
:1028600092461E460C9F1DB92748006800B104E03F
:10287000172226A12DA0FDF7F3FC35B1012D07D0BD
:10288000022D07D0032D09D106E01F48046807E098
:10289000002405E0002403E0002401E0002400BF40
:1028A00000BF14B90520BDE8FE8F06B10FB90420A2
:1028B000F9E7FFF73FFF08B10120F4E70520012306
:1028C00052464946CDE9006702902046FEF7F8FAE5
:1028D0008046FFF7B5FFB8F1000F0FD0B8F1010F38
:1028E00006D0B8F1020F05D0B8F1030F07D103E00D
:1028F0000220D8E70120D6E70120D4E701E002203A
:10290000D1E700BF0020CEE7CC0000202E2E5C4394
:102910006F72655C73656E736F72735C73656E73F3
:102920006F72735F6465762E630000004932435F07
:10293000494E555345286932632900007CB5064647
:102940000C460020019020128DF80400E0B28DF8B2
:102950000500022001AB0522802100903046FFF7E0
:102960007BFF05460DB128467CBD41208DF8040053
:1029700027208DF80500022001AB00228021009065
:102980003046FFF769FF05460DB12846ECE7002009
:10299000EAE72DE9FC4780460E46144600200190E8
:1029A00014B90420BDE8FC870021304603F096FFEF
:1029B00001D80420F6E7022001AB04228021009018
:1029C0004046FFF7CBFE05460DB12846EAE79DF8E5
:1029D00005009DF8041040EA012007B2384603F0D4
:1029E00065FF8146314603F0ADFF20600020D9E746
:1029F0002DE9FC4780460E4614460020019014B98C
:102A00000420BDE8FC870021304603F067FF01D8B1
:102A10000420F6E7022001AB0246802100904046E8
:102A2000FFF79CFE05460DB12846EAE79DF8050034
:102A30009DF8041040EA012007B2384603F036FF43
:102A40008146314603F07EFF20600020D9E7000078
:102A5000F1B500269DF8000010B940F2AA6601E029
:102A60000220F8BD00BF0F489DF80010017000253E
:102A700008E031460020FFF761FF0446012C00D03A
:102A800002E06D1C032DF4D300BF24B1012C06D04D
:102A9000022C02D102E00020E3E700BF00BF0120CA
:102AA000DFE70000C80000202DE9F04105460E4692
:102AB000002709E0324629460020FFF76AFF044656
:102AC000012C00D002E07F1C032FF3D300BF34B1F0
:102AD000012C09D0022C06D0032C03D105E00020E4
:102AE000BDE8F08100BF00BF00BF0120F8E72DE97D
:102AF000F04105460E46002709E0324629460020EF
:102B0000FFF776FF0446012C00D002E07F1C032F64
:102B1000F3D300BF34B1012C09D0022C06D0032C12
:102B200003D105E00020BDE8F08100BF00BF00BF79
:102B30000120F8E710B51A4800F0AFFF1949086006
:102B4000194800F0AAFF19490860194A0421102009
:102B500000F0E2FE17490860174A0221102000F039
:102B6000DBFE16490860164A0021164801F0AFF84E
:102B700015490860154A0021154801F0A8F81549C3
:102B80000860154A0021154801F0A1F814490860B1
:102B9000144A0021144801F09AF81449086010BD45
:102BA000EC6C000830000020FC6C000834000020B1
:102BB000BC6C000828000020D46C00082C00002009
:102BC0002C6C00085130000818000020506C0008E0
:102BD000C13600081C000020746C0008C9350008CC
:102BE00020000020986C0008FD4900082400002007
:102BF00000B585B00020019002900390049000BFC2
:102C00003848806940F0100036498861084680697C
:102C100000F01000009000BF00BF00BF08468069B0
:102C200040F0200088610846806900F02000009094
:102C300000BF00BF00BF0846806940F00400886103
:102C40000846806900F00400009000BF00BF00BF8C
:102C50000846806940F0080088610846806900F0F5
:102C60000800009000BF00BF012251031E48FDF77D
:102C700079FE00224FF400711C48FDF773FE4FF4FB
:102C80000050019001200290002003900220049047
:102C900001A91548FDF7CEFC4FF46040019014489F
:102CA00002900120039001A91248FDF7C3FC4FF4E4
:102CB000807001900E4802900120039001A90B48FA
:102CC000FDF7B8FC4FF40070019001200290002045
:102CD00003900220049001A90448FDF7ABFC05B065
:102CE00000BD00000010024000100140000801403B
:102CF00000002110000C014010B50B480B49086082
:102D00000B484860002109488160C1604FF4804150
:102D10000161002141618161C1610162FDF72EFE07
:102D200008B1FDF753FC10BD00540040FC0000202A
:102D3000A086010010B5002205211720FEF778FAC1
:102D40001720FEF765FA002205212820FEF770FA09
:102D50002820FEF75DFA10BD00B589B0002007906D
:102D600008901C216846FDF708FB4FF08040184989
:102D700008600320486000211548816040F2E73177
:102D8000C160002101618161FFF753F808B1FDF7CF
:102D90001DFC00200790089007A90D48FEF714FEBF
:102DA00008B1FDF713FC6020009040F2A9300190BB
:102DB000002002900490002269460548FEF7B7FF04
:102DC00008B1FDF703FC0248FEF768FF09B000BD3B
:102DD0005001002000B589B00020079008901C2108
:102DE0006846FDF7CAFA1948194908600320486087
:102DF00000211748816040F2E731C1600021016184
:102E00008161FFF716F808B1FDF7E0FB002007909D
:102E1000089007A90E48FEF7D7FD08B1FDF7D6FBCD
:102E2000602000904FF4A270019000200290049066
:102E3000002269460648FEF77AFF08B1FDF7C6FB97
:102E40000348FEF72BFF09B000BD0000000400405E
:102E50009801002010B50B480B4908604FF4E13091
:102E60004860002108488160C16001610C21416116
:102E700000218161C161FFF7B2F808B1FDF7A6FB3F
:102E800010BD000000440040E001002000BFFEE74C
:102E900000BFFEE770B504460D461646012C00D073
:102EA00004B904E016221FA125A0FDF7D9F94FF0BF
:102EB0007E51284603F012FE05D82D49284603F01E
:102EC0000DFD00D204E0172216A12AA0FDF7C8F9D3
:102ED0000021304603F002FE05D23049304603F0AF
:102EE000FDFC00D804E018220EA12DA0FDF7B8F9D2
:102EF000354844620120344988620020C8608860F7
:102F00000861084605604660002048618861C86124
:102F1000012081F8200081F8210081F822000020A2
:102F200070BD00002E2E5C436F72655C6170705C3A
:102F3000706F7765724D61737465722E6300000067
:102F40005F656E5F737461203D3D205057525F4551
:102F50004E5F4F4646207C7C205F656E5F737461D8
:102F6000203D3D205057525F454E5F4F4E000000C0
:102F7000000078415F7365745F766F6C203E3D2082
:102F8000312E3066202626205F7365745F766F6C65
:102F9000203C2031352E3566000000000000204125
:102FA0005F7365745F637572203E20302E3066203B
:102FB0002626205F7365745F637572203C3D203167
:102FC000302E306600000000D000002010B5084808
:102FD000006808B9002010BD05210548006800F010
:102FE0002BFD08B90020F6E74FF0FF30F3E70000B3
:102FF0003000002010B50748006808B9002010BD57
:103000000448006800F0A2FD08B90020F7E74FF07F
:10301000FF30F4E73000002008B508490968C90806
:103020004FF47A72B1FBF2F14143009100BF00BF4F
:1030300000994A1E00920029F9D108BD44000020E1
:1030400010B50248FFF770FB002010BDFC00002007
:1030500000BF012000F00AFCFBE710B54FF0E020B4
:10306000006902F0A3FF012801D002F025F910BD8C
:1030700000B58FB0282105A8FDF77FF91421684617
:10308000FDF77BF9012005900004069000200790D1
:103090000120099002200C90C1030D914FF4E01122
:1030A0000E9105A8FEF75CFA08B1FDF78FFA0F2024
:1030B000009002200190002002904FF48060039065
:1030C0000020049002216846FEF704F908B1FDF7DC
:1030D0007DFA0FB000BD704710B50248FEF727FD1E
:1030E00010BD00002802002010B502681C4B984259
:1030F00008D0B0F1804F05D01A4B984202D01A4B3D
:10310000984203D122F070024B681A43144B984244
:1031100008D0B0F1804F05D0124B984202D0124B2C
:10312000984203D122F44072CB681A4322F0800304
:103130004C6943EA040202608B68C3620B688362D5
:10314000074B984201D10B69036301234361036973
:1031500003F001031BB1036923F00103036110BDF8
:10316000002C0140000400400008004030B501F090
:103170001F05012404FA05F3046A9C430462046AEF
:1031800001F01F0502FA05F52C43046230BD000072
:1031900030B5026A056A25F0010505624368846955
:1031A00024F0700424F003040D682C4322F0020282
:1031B0008D682A430D4DA84206D100BF22F00802B7
:1031C000CD682A4322F00402084DA84207D123F417
:1031D000807323F400734D692B438D692B43436047
:1031E00084614D684563026230BD0000002C0140DF
:1031F00030B5026A056A25F01005056243688469E6
:1032000024F4E04424F440740D6844EA052422F0D8
:1032100020028D6842EA05120E4DA84207D100BF78
:1032200022F08002CD6842EA051222F04002094DE8
:10323000A84209D123F4806323F400634D6943EA73
:1032400085038D6943EA8503436084614D68856326
:10325000026230BD002C014030B5026A056A25F4D7
:10326000807505624368C46924F0700424F0030487
:103270000D682C4322F400728D6842EA05220F4D3E
:10328000A84207D100BF22F40062CD6842EA0522BD
:1032900022F48062094DA84209D123F4805323F41B
:1032A00000534D6943EA05138D6943EA05134360F2
:1032B000C4614D68C563026230BD0000002C01404E
:1032C00030B5036A056A25F4805505624468C26911
:1032D00022F4E04222F440720D6842EA052223F40F
:1032E00000538D6843EA0533064DA84204D124F407
:1032F00080444D6944EA85144460C2614D680564A8
:10330000036230BD002C01402DE9FC4782460C468B
:103310000020019014B90420BDE8FC87022001AB15
:103320000022902100905046FFF718FA06460EB191
:103330003046F1E79DF805009DF8041040EA0120B1
:103340000FFA80F94FEA291003F0B0FA07464FF060
:10335000765103F0F7FA0546284603F0F1F90746DF
:103360000022094B03F026F908D3284603F0E8F9B8
:1033700007460022054B03F0ADF901D20320CBE74D
:1033800025600020C8E70000000044C0000069403C
:1033900070B50546002608E029460020FFF7B4FF77
:1033A0000446012C00D002E0761C032EF4D300BFAB
:1033B00034B1012C08D0022C05D0032C02D104E03A
:1033C000002070BD00BF00BF00BF0120F9E700BFB3
:1033D00000BF02680C3252E8002F22F4907102689C
:1033E0000C3242E80013002BF3D100BF00BF00BF36
:1033F0000268143252E8002F22F0010102681432F0
:1034000042E80013002BF3D100BF016B01290ED15C
:1034100000BF00BF02680C3252E8002F22F01001FA
:1034200002680C3242E80013002BF3D100BF2021C8
:1034300080F84210002101637047000070B5044617
:103440002168096921F44051E26811432268116141
:103450002269A1681143626941EA02052168C968CD
:1034600041F20C62914329432268D1602168496985
:1034700021F44071A2691143226851612D4A2168EB
:10348000914202D1FEF724F801E0FEF711F800EBBB
:10349000C00101EB001162689200B1FBF2F100EB98
:1034A000C00202EB001263689B00B2FBF3F26423DC
:1034B000B2FBF3F202EBC20303EB0212A1EB8201B7
:1034C000322202EB01116422B1FBF2F101F0F001B2
:1034D00000EBC00202EB001263689B00B2FBF3F248
:1034E0006423B2FBF3F201EB021200EBC00101EB2B
:1034F000001163689B00B1FBF3F100EBC00303EB29
:1035000000136668B600B3FBF6F36426B3FBF6F36C
:1035100003EBC30606EB0313A1EB8301322303EB9A
:1035200001116423B1FBF3F101F00F011144226892
:10353000916070BD003801402DE9F84304460D4606
:1035400017469846089E31E0701C70B3FDF710FADC
:10355000A0EB0800B04200D816B90320BDE8F883FC
:103560002068C06800F00400F8B1802D1ED0402D06
:103570001CD020680068C0F3C000B0B100BF0020BC
:10358000009020680068009020684068009000BFAC
:1035900000BF2046FFF71BFF0820606400BF00202B
:1035A00084F8400000BF0120D8E7FFE720680068EA
:1035B0002840A84201D1012000E00020B842C3D039
:1035C0000020CBE700BFFEE708B5284E4FF4FA779E
:1035D00002F0FCFC00904FF0010800BF4FF0010822
:1035E000FFF7F4FC20BB2248406A012805D10020E7
:1035F000204908602049086080461D4885680021F0
:10360000284603F06BF905D200201A4908601A49D0
:10361000086080461648066890F8210028B9002006
:1036200014490860144908608046FFF7E3FC01E094
:103630004FF00008B8F1010F13D12946304600F0D1
:10364000A3FB0446E01984B2B4F5487F01DD4FF4D2
:103650004874B4F5967F01DA4FF496740748006811
:1036600044631421684601F0DFFBB7E70000C04067
:10367000D00000201000002014000020980100203D
:1036800002480068C0F30220704700000CED00E023
:1036900010B5002804DB0A07130E054A135406E090
:1036A0000A07140E034A00F00F031B1FD45410BD69
:1036B00000E400E018ED00E0EFF305807047000043
:1036C0001CB5002401200190801E009000BF4FF027
:1036D000FF320021012000F0A1FA142000F0C6F80A
:1036E0004FF480712F48FDF735F904468CBB4FF439
:1036F00000712C48FDF72EF9044605212A48006880
:1037000000F09AF920BB2948406A70B900224FF4B2
:1037100000712448FDF726F9012251032448FDF7E2
:1037200021F90120214948620DE0012251021D4882
:10373000FDF718F900224FF400511D48FDF712F96A
:1037400000201A4948621848006800F0FFF900BFDD
:1037500023E0FFE74FF400511648FDF7FBF804465D
:103760004FF480411348FDF7F5F8044634B90023BF
:103770001A4669461048006800F01CF94FF40041F1
:103780000C48FDF7E7F8044634B900231A4601A9AE
:103790000948006800F00EF900BFB42000F066F898
:1037A00095E700000008014030000020D000002014
:1037B00000100140000C01402C00002008B5FDF76E
:1037C00077FCFFF755FCFFF713FAFFF795FAFFF7C1
:1037D000C3FAFFF7FFFAFFF73DFBFFF7ABFAFFF77E
:1037E0002FFC154800680090FFF732F938B94FF008
:1037F000FF330C2211A11548FEF76EFC06E04FF0D6
:10380000FF33092212A11148FEF766FC002113487C
:10381000FEF76EFB00211248FEF76AFB114A1249BF
:103820000120FFF737FB00F031F8FFF783F900F0D4
:1038300043F800BFFEE7000000000020494E413A77
:10384000696E69744F4B0D0A00000000E001002012
:10385000494E413A4552520D0A00000050010020E5
:1038600098010020000020410000C04070B50546CE
:10387000FFF722FF10B16FF0050404E0002415B13A
:10388000284601F0A3FA204670BD000010B5FFF7EE
:1038900013FF10B16FF0050409E00648006820B975
:1038A000012004490860002401E04FF0FF34204665
:1038B00010BD00009800002070B5FFF7FDFE10B1AC
:1038C0006FF005041FE011480068012819D100BFFE
:1038D000801F0021002804DB0A07130E0C4A135432
:1038E00006E00A07150E0B4A00F00F031B1FD55404
:1038F00000BF00BF02200549086001F0B5FB0024AD
:1039000001E04FF0FF34204670BD00009800002019
:1039100000E400E018ED00E02DE9F84305460E460E
:1039200014464FF00009FFF7C7FE00283ED1002DD6
:103930003CD0002E3AD0471EBCB1A06858B1E06818
:10394000502808D3206930B105FB06F06169814237
:1039500001D301270AE0A06840B9E06830B92069C6
:1039600020B9606910B9002700E00027012F09D1B4
:103970000020009031462846A368226901F009FD25
:10398000814606E02FB900223146284601F0D4FCDA
:103990008146B9F1000F09D014B1D4F8008001E0DC
:1039A0004FF000084146484601F0D4F94846BDE8CA
:1039B000F88300002DE9F84307460D4691461C4662
:1039C0003E464FF00008FFF777FEE8B10EB105B1B3
:1039D00014B16FF003082AE00020009000236A462B
:1039E0002946304601F066FE012802D06FF0020839
:1039F0001DE00098D8B14FF080500E490860BFF329
:103A00004F8FBFF36F8F12E006B115B96FF0030847
:103A10000DE0002322462946304601F077FD0128BB
:103A200005D014B16FF0010801E06FF002084046C4
:103A3000BDE8F88304ED00E02DE9F04104460D46B1
:103A400024F0010604F001080027FFF735FE08B155
:103A5000BF1F1FE016B96FF003071BE0B8F1000F9E
:103A60000CD02946304602F057F8012812D015B183
:103A70006FF001070EE06FF002070BE029463046B9
:103A800001F06EFF012805D015B16FF0010701E0CC
:103A90006FF002073846BDE8F0812DE9F047044693
:103AA0000026FFF709FE00284DD10CB1676800E041
:103AB000002707F0010008B1012500E0002507F00C
:103AC000080008283FD04FF0FF3874B1A06828B133
:103AD000E068502802D34FF0010808E0A06830B930
:103AE000E06820B94FF0000801E04FF00008B8F19D
:103AF000010F0CD12DB10420A16801F008FC06468D
:103B000012E00120A16801F002FC06460CE0B8F1C9
:103B1000000F09D125B1042001F0E8FB064603E0BF
:103B2000012001F0E3FB06464EB114B1D4F8009039
:103B300001E04FF000094946304601F00BF916B19B
:103B40000DB146F001063046BDE8F0872DE9F041A1
:103B5000044624F0010504F001070026FFF7ACFD40
:103B600008B1B61F16E015B96FF0030612E03FB1B9
:103B7000284601F01DFE01280CD06FF0020609E076
:103B800000231A461946284601F0C0FC012801D03E
:103B90006FF002063046BDE8F0810000FEB5044635
:103BA0000D46264616B105F0004018B16FF003002F
:103BB00002902EE04FF0FF300290FFF77DFDE0B164
:103BC0000020019001A800230122294600903046E0
:103BD00002F034F9002002AB024601460090304664
:103BE00002F02CF90198A0B14FF080500A4908600A
:103BF000BFF34F8FBFF36F8F0BE0002301222946E5
:103C0000304602F087F802AB00221146304602F03F
:103C100081F80298FEBD000004ED00E02DE9FC5F94
:103C2000054689461646FFF747FD10B16FF00504BB
:103C30004AE005F0004010B16FF0030444E009F0E1
:103C40000200022802D14FF0000A00E0AA46002438
:103C5000374602F0BBF9009000BF3B4601AA51462F
:103C6000002002F05BFA8046B8F1010F22D12C400F
:103C70000198044309F0010040B105EA0400A8429C
:103C800000D120E056B96FF002041CE005EA040000
:103C900000B118E016B96FF0020414E002F096F9D2
:103CA0000099A0EB010BBB4501D9002708E0A7EB69
:103CB0000B0705E016B96FF0020401E06FF0010494
:103CC000B8F1000FC9D100BF2046BDE8FC9F2DE927
:103CD000FF4780468946144600200390FFF7ECFC1E
:103CE00000284ED1B8F1000F4BD08026182582460F
:103CF000471E44B3206808B1D4F800A0A06900B101
:103D0000A5692DB1382D03D8207900F0010018B134
:103D1000002004B0BDE8F087606908B160698608DA
:103D2000A06840B1E0685C2805D3206918B16069DB
:103D300008B1012708E0A06830B9E06820B920691F
:103D400010B9002700E00027012F0CD12169A068DD
:103D50004B463246CDE9005102905146404601F0B3
:103D60007BFF03900DE067B903A8B2B24B46514602
:103D7000CDE90050404601F03DFF012801D0002070
:103D800003900398C5E700002DE9FC5F05460E4649
:103D90003146284602F0D4FE044621461848006801
:103DA00002F0FAFC1649086016480168204602F045
:103DB000C7FE019014480199006802F0C3FD8246D5
:103DC0000F4801681148006802F0BCFD8346214697
:103DD0000F48006802F0B6FD5946009002F0DCFC86
:103DE0008146514602F0D8FC074606480460384632
:103DF00002F040FD80461FFA88F0BDE8FC9F0000FD
:103E000010000020140000200C00002008000020FA
:103E1000040000202DE9F04105460E4616480768CB
:103E200016480068001D00F049FE681C38B936B11C
:103E300012480168091D124800F096FE1AE07C192C
:103E40000E4800684460BC4207D20C480168091D56
:103E50000C48006800F06EFE0CE008480168091D7F
:103E60000948006800F066FE08480068844201D2F4
:103E700006480460BDE8F0815C0000204800002096
:103E800060070020500000204C0000207800002037
:103E900010B5044600F074FE24480068401C234915
:103EA00008602348006840B921480460084600685B
:103EB00001280DD100F016FA0AE01E48006838B952
:103EC0001B480068C06AE16A884201D8184804604B
:103ED00019480068401C184908600846006860647A
:103EE0001649E06A0968884202D91449E06A086004
:103EF000E16A01EB8101124A02EB8100211D00F011
:103F000033FE00F067FE0B48006868B1084800689F
:103F1000C06AE16A884207D24FF0805009490860C0
:103F2000BFF34F8FBFF36F8F10BD0000580000200C
:103F30004800002064000020740000206000002081
:103F4000B002002004ED00E008B500F019FE1248B0
:103F50000068E8B9114800F0DDFD114800F0DAFD15
:103F60000E48104908600E480F49086000200F4BAA
:103F70000F4A102100900A2001F00BFA0649086050
:103F80000846006820B10BA10348006800F0E2FE7B
:103F900000F020FE08BD00008C0000207407002007
:103FA0008807002084000020880000209C07002053
:103FB000EC070020546D72510000000010B516E0AF
:103FC00000F0DEFD0C48C068C468201D00F076FDDE
:103FD0000A480068401E0949086009480068401EF8
:103FE0000749086000F0F6FD204600F05FF804483D
:103FF00000680028E4D110BD4C07002058000020C4
:104000005400002070B504460D46206C70B1216C40
:10401000E0680144E160D4E90210884201D32168DC
:10402000E1602846226CE168FCF75AF970BD2DE981
:10403000F04104460F4615464FF00008A66B206C71
:1040400048B9206800282CD1A06802F0B7F8804653
:104050000020A06025E07DB93946226C6068FCF73D
:104060003FF9216C606808446060D4E9010188422E
:1040700017D32068606014E03946226CE068FCF7D2
:104080002FF9216CE068411AE1602168E0688842FC
:1040900003D2216CA068411AE160022D01D106B162
:1040A000761E701CA0634046BDE8F08110B5044642
:1040B00094F8590030B9206B00F0AAFD204600F0BA
:1040C000A7FD1AE094F85900012803D1204600F01A
:1040D0009FFD12E094F85900022801D1012000E070
:1040E000002050B900BF502080F31188BFF34F8FDC
:1040F000BFF36F8F00BF00BFFEE710BD01464A6AE5
:1041000022B10A6B1268C2F1380000E0002070474B
:104110000146084A126812680AB9012200E000222A
:104120000A600A6822B9034A1268D268106800E07F
:10413000002070478400002030B54FF440631748DA
:1041400000F007042CB1C01D20F00700134C041B25
:104150001B1B0246124C22600024114D6C60D018CB
:10416000083820F007000F4C206000240D4D2D680A
:104170006C600C4D2D682C601146441A4C60094C43
:1041800024680C60084D4C682C60084D4C682C600D
:104190004FF00044064D2C6030BD0000440F00205D
:1041A0009C000020A4000020AC000020A8000020FB
:1041B000B800002000BFFFF701FF06480068012893
:1041C000F9D94FF0805004490860BFF34F8FBFF317
:1041D0006F8FF0E7B002002004ED00E010B5044658
:1041E00054B10020A06020600021E16000231A4645
:1041F0001946204601F08AF910BD2DE9F041064626
:104200000D4617469846069C0DB9246000E02760CD
:10421000E66325640121204601F02CF984F84C80E6
:10422000BDE8F0812DE9F05F82460E4690469B4640
:104230000A9F0C9C4FEA8801A522206BFCF795F899
:10424000A8F10100216B01EB800929F0070909F0B1
:10425000070008B9012000E0002050B900BF50203D
:1042600080F31188BFF34F8FBFF36F8F00BF00BF84
:10427000FEE786B1002507E0715D04F13400415589
:10428000705D00B902E06D1C102DF5D300BF002158
:104290004320015502E0002084F83400382F00D379
:1042A0003727E762E76400202065201D00F03FFC0F
:1042B00004F1180000F03BFC2461C7F13800A06154
:1042C00064620020606584F858005A4651464846AA
:1042D00000F082FB20600B9808B10B980460BDE8E9
:1042E000F09F000010B5002407E004EB84010F4AA2
:1042F00002EB810000F00EFC641C382CF5D30C4856
:1043000000F008FC0B4800F005FC0B4800F002FC34
:104310000A4800F0FFFB0A4800F0FCFB044809498A
:10432000086004480849086010BD0000B002002081
:104330001007002024070020380700204C07002029
:10434000600700204C0000205000002010B50146FE
:10435000164800E0006803688B42FBD302464368BE
:1043600013448B4204D143684C68234443600146A4
:104370000A464B6813440468A34211D10C4C0368ED
:104380002468A34208D04B680468646823444B60E7
:1043900003681B680B6005E0054B1B680B6001E0C0
:1043A00003680B60884200D0016010BD9C000020B3
:1043B000A40000202DE9F04104460D4616461F4694
:1043C0004FF0000865602461B5420CD8F01BA1696C
:1043D000884202D34FF0010811E0211D094800680E
:1043E00000F0A8FB0BE0BE4204D2BD4202D34FF066
:1043F000010804E0211D0448006800F09BFB4046D2
:10440000BDE8F081880000208400002070B50546DA
:1044100000F0B6FBA86B08B9012400E0002400F00E
:10442000D9FB204670BD70B5054600F0A9FBA86B0E
:10443000E96B884201D1012400E0002400F0CAFBAE
:10444000204670BDF8B505460F461A480068C0689A
:10445000C468201D00F032FB94F8280000F004002E
:10446000E8B1A06941192B463A462046FFF7A2FF62
:10447000D8B1002003462A4601460090204602F0AB
:104480004BF8064656B900BF502080F31188BFF3A1
:104490004F8FBFF36F8F00BF00BFFEE705E094F8BA
:1044A000280020F0010084F828002046216A88476F
:1044B000F8BD000084000020F0B587B0A0E00398AC
:1044C000002811DA04AE56B900BF502080F31188DD
:1044D000BFF34F8FBFF36F8F00BF00BFFEE7D6E97A
:1044E0000020B168904700BF03980028E6DB059CD8
:1044F000606908B9012000E0002010B9201D00F01B
:10450000DDFA02A800F0DEF8054603980A2875D205
:10451000DFE800F009050739416306083A4200BFA9
:1045200000BF00BF00BF94F8280040F0010084F8ED
:1045300028000498A269811803462A462046FFF7FE
:1045400039FFF8B12046216A884794F8280000F026
:104550000400B8B1002000900498A169421800231B
:104560001946204601F0D8FF074657B900BF502032
:1045700080F31188BFF34F8FBFF36F8F00BF00BF71
:10458000FEE700BF3BE000BF94F8280020F00100E8
:1045900084F8280033E000BF94F8280040F00100C0
:1045A00084F828000498A061A06908B1012000E007
:1045B000002050B900BF502080F31188BFF34F8F07
:1045C000BFF36F8F00BF00BFFEE7A06941192B4604
:1045D0002A462046FFF7EEFE11E094F8280000F08E
:1045E000020018B9204600F013FB05E094F82800FB
:1045F00020F0010084F8280001E0FFE700BF00BFC1
:10460000002203A90448006801F0F6F800287FF4AE
:1046100056AF07B0F0BD00008C000020F8B505468D
:104620000C4600F07DFD684600F04CF80646009808
:1046300020BB44B9B54206D801F0B0FE3146284649
:10464000FFF700FF1CE03CB10E480068006808B9A5
:10465000012000E000200446A91B22460A48006809
:1046600000F08EFB01F09AFE50B94FF080500749E0
:104670000860BFF34F8FBFF36F8F01E001F08EFE34
:10468000F8BD0000880000208C00002004ED00E050
:104690000A490968096809B9012100E0002121B12E
:1046A0004FF0FF31064A116006E004490968C96805
:1046B000C868034A41681160704700004C00002040
:1046C0007800002070B5044601F080FC05460748DC
:1046D0000068854204D200F00BF80120206001E060
:1046E0000020206001480560284670BD940000202D
:1046F0002DE9F84334E025480068C0680568234880
:104700000068C068C468201D00F0D8F92046216AFE
:10471000884794F8280000F0040008B3A0694619FF
:10472000AE4207D966602461211D1848006800F078
:1047300001FA15E0002003462A4601460090204673
:1047400001F0EAFE074657B900BF502080F31188F8
:10475000BFF34F8FBFF36F8F00BF00BFFEE700BFF7
:104760000A480068006808B9012000E0002000281D
:10477000C1D00648D0F800800548006803490860A9
:104780000348C0F80080BDE8F883000084000020E2
:10479000880000200E480068401C08B9012000E095
:1047A000002050B900BF502080F31188BFF34F8F15
:1047B000BFF36F8F00BF00BFFEE700BF502080F344
:1047C0001188BFF34F8FBFF36F8F00BF00BFFEE7AD
:1047D000BC00002008B500BF6846FFF799FC0446FE
:1047E00020460099FFF71AFFFFF766FEF4E770B561
:1047F000044600F0C5F994F9455010E0606A08B924
:10480000012000E0002038B904F1240001F07AFD15
:1048100018B100F07FFB00E003E0681E45B2002DF8
:10482000ECDC00BFFF2084F8450000F0D3F900F075
:10483000A7F994F9445010E0206908B9012000E07C
:10484000002048B904F1100001F05CFD08B100F04F
:1048500061FB681E45B200E001E0002DECDC00BF0A
:10486000FF2084F8440000F0B5F970BD2DE9F04157
:1048700004464FF0000800F053FC4948006808B9AE
:10488000FFF75AFC474800682040002870D1D4B197
:10489000083404F00700B0B104F00700C0F10800CC
:1048A000044404F0070008B9012000E0002050B9DA
:1048B00000BF502080F31188BFF34F8FBFF36F8F7D
:1048C00000BF00BFFEE7002C52D03748006884428A
:1048D0004ED8364E3046056801E02E462D68686891
:1048E000A04202D228680028F7D12D4800688542EE
:1048F0003ED0306800F10808286830606868001B06
:10490000102819D92F1907F0070008B9012000E075
:10491000002050B900BF502080F31188BFF34F8FA3
:10492000BFF36F8F00BF00BFFEE76868001B7860B1
:104930006C603846FFF70AFD1B4968680968081A69
:10494000194908600846006819490968884203D275
:1049500015480068164908601249686809680843E4
:1049600068600020286013480068401C11490860F6
:1049700001F014FD08F0070008B9012000E0002054
:1049800050B900BF502080F31188BFF34F8FBFF3A1
:104990006F8F00BF00BFFEE74046BDE8F08100001A
:1049A000A4000020B8000020A80000209C000020E7
:1049B000AC000020B00000200648006830B1054976
:1049C000096801F15000096D491C01600148006847
:1049D0007047000048000020001F4FF08073036004
:1049E000001F21F001030360001F034B0360143814
:1049F0000260203870470000954700081FB54FF04F
:104A00000008C146C24600BF01F0E0FA009003A8CA
:104A1000FEF7BEFC05460DB108F1010801A92448C6
:104A2000FEF742F807460FB10AF1010A02A9214830
:104A3000FEF75DF806460EB109F10109FEF7C6FA68
:104A400088BBB8F1050F05DB4FF0000800201A49BC
:104A500081F82200B9F1050F05DB4FF000090020B5
:104A6000154981F82100BAF1050F05DB4FF0000A66
:104A70000020114981F8210001F0A8FA044625B967
:104A80000D49039808610846C46126B90A4902988D
:104A900088600846446127B907490198C8600846FC
:104AA0008461FEF7A7FA1421684600F0BDF9ABE770
:104AB0006F12033A0AD7A33AD000002001460A69D0
:104AC000D1E901309860D1E901035860506888420B
:104AD00001D188685060002008611068401E106095
:104AE00010687047034B0360034B0B608023136017
:104AF000704700008C080020E8080020034B03608A
:104B0000034B0B604FF4807313607047E80A00207A
:104B1000440B002000F1080141604FF0FF3181603B
:104B200000F10801C16001610021016070470021AE
:104B30000161704710B502460B685C1C0CB9106926
:104B400007E002F1080000E04068446824689C42E5
:104B5000FAD944684C604C68A160886041600A6181
:104B60001468641C146010BD42684A6093688B60CE
:104B7000936859609160086103685B1C036070472B
:104B800000BF502080F31188BFF34F8FBFF36F8FAA
:104B900000BF0E480068401C0C49086008460068C9
:104BA000012812D10A480068C0B208B9012000E00B
:104BB000002050B900BF502080F31188BFF34F8F01
:104BC000BFF36F8F00BF00BFFEE77047BC0000203F
:104BD00004ED00E00D48006850B900BF502080F39C
:104BE0001188BFF34F8FBFF36F8F00BF00BFFEE789
:104BF00006480068401E054908600846006820B95C
:104C0000002080F3118800BF00BF7047BC00002067
:104C100070B506463546002E44D0083D2C46224944
:104C200060680968084008B1012000E0002050B920
:104C300000BF502080F31188BFF34F8FBFF36F8FF9
:104C400000BF00BFFEE7206808B9012000E0002097
:104C500050B900BF502080F31188BFF34F8FBFF3CE
:104C60006F8F00BF00BFFEE70F496068096808400A
:104C7000C0B12068B0B90C496068096888436060B9
:104C800000F04EFA0949606809680844074908605D
:104C90002046FFF75BFB06480068401C044908609B
:104CA00001F07CFB70BD0000B8000020A8000020CF
:104CB000B400002000204FF0E02108618861064820
:104CC00000684FF47A71B0FBF1F0401E4FF0E02124
:104CD00048610720086170474400002070B5FBF769
:104CE0009BFA0446102C16D304F1E02090F8F05300
:104CF00015480078854201DB012000E0002050B912
:104D000000BF502080F31188BFF34F8FBFF36F8F28
:104D100000BF00BFFEE70D48006800F4E0600C49EA
:104D20000968884201D8012000E0002050B900BF86
:104D3000502080F31188BFF34F8FBFF36F8F00BFF8
:104D400000BFFEE770BD0000C00000200CED00E0D9
:104D5000C4000020024600200BE0084B53F830301E
:104D600033B9064B43F8301003EBC0035A6002E03E
:104D7000401C0828F1D300BF7047000070020020DB
:104D80002DE9F04105460E4617462C46FFF7F8FE82
:104D900094F94400401C10B9002084F8440094F9B0
:104DA0004500401C10B9002084F84500FFF712FFB1
:104DB000A06B28B93A46314604F1240000F0CCF843
:104DC0002046FFF714FDBDE8F081000070B50446F1
:104DD0000025D4B11248006808B9012000E0002085
:104DE00050B900BF502080F31188BFF34F8FBFF33D
:104DF0006F8F00BF00BFFEE700F092F90021204650
:104E0000FFF708F801F0CAFA05463DB94FF08050A7
:104E100004490860BFF34F8FBFF36F8F70BD000070
:104E20008000002004ED00E02DE9F04704460F4625
:104E30004FF0000954B900BF502080F31188BFF330
:104E40004F8FBFF36F8F00BF00BFFEE70FB1012090
:104E500000E0002050B900BF502080F31188BFF35C
:104E60004F8FBFF36F8F00BF00BFFEE72048006881
:104E700008B9012000E0002050B900BF502080F3A5
:104E80001188BFF34F8FBFF36F8F00BF00BFFEE7E6
:104E900000F046F9174806682068C5192068B04236
:104EA00007D92068A8420BD9B54209D94FF00109AA
:104EB00006E02068A84201D8B54201D94FF00109A7
:104EC0002560B9F1000F03D0A81B0021FEF7A2FF57
:104ED00001F064FA8046B8F1000F07D14FF080501E
:104EE00005490860BFF34F8FBFF36F8FBDE8F087B0
:104EF000800000205C00002004ED00E00349096808
:104F0000016003490968416070470000700000209B
:104F10005C00002001200149086070476C000020FF
:104F200070B504460D4654B900BF502080F3118877
:104F3000BFF34F8FBFF36F8F00BF00BFFEE7054881
:104F4000016818312046FFF7F5FD01212846FEF7DC
:104F500061FF70BD4800002070B505460E4614463E
:104F600055B900BF502080F31188BFF34F8FBFF3B6
:104F70006F8F00BF00BFFEE7064801681831284662
:104F8000FFF7F2FD0CB14FF0FF3621463046FEF739
:104F900041FF70BD480000202DE9F04706460F464E
:104FA00034464FF00109002E55D0206D50B900BF96
:104FB000502080F31188BFF34F8FBFF36F8F00BF76
:104FC00000BFFEE7E06CB84201D23D4600E0E56C70
:104FD000E06AA8423FD0206D01283CD11F480068FC
:104FE000844201D0012000E0002050B900BF5020D1
:104FF00080F31188BFF34F8FBFF36F8F00BF00BFE7
:10500000FEE7D4F82C80E562A06900F0004010B9FA
:10501000C5F13800A06108EB8801114A02EB81015B
:105020006069884201D1012000E0002098B1201D74
:10503000FFF744FD0B49E06A0968884202D9094933
:10504000E06A0860E16A01EB8101054A02EB810038
:10505000211DFFF789FDBDE8F08700004800002012
:10506000B00200206000002010B586B0002005903E
:10507000049003AA04A905A8FFF734FD0022DDE986
:1050800004101346CDE9002102901EA11F48039A87
:1050900000F0E2FD1E4908600846006808B10124DE
:1050A00000E00024012C02D101F0FAF90446012CA1
:1050B00015D100BF502080F31188BFF34F8FBFF38D
:1050C0006F8F00BF4FF0FF30124908600120124976
:1050D000086000201149086000F072F810E0601CC0
:1050E00008B1012000E0002050B900BF502080F33B
:1050F0001188BFF34F8FBFF36F8F00BF00BFFEE774
:1051000006B010BD49444C4500000000B541000800
:105110007C00002078000020640000205C0000205B
:1051200002480068401C0149086070478000002068
:105130001E48006818B101201D49086034E00020B5
:105140001B4908601B4801680CE051B900BF5020A2
:1051500080F31188BFF34F8FBFF36F8F00BF00BF85
:10516000FEE7491E01EB8100134A52F8200008B9FE
:10517000012000E000200028E7D101EB81020E4B66
:1051800003EB820042685268426000F10802436803
:10519000934202D14268526842604268D268074B2B
:1051A0001A600448016000BF7047000080000020C2
:1051B0006C00002060000020B002002048000020A9
:1051C0001CB53849084600780190FF200A46107047
:1051D0000846007800909DF8000000F0F0009DF86F
:1051E0000020904201D1012000E0002050B900BF12
:1051F000502080F31188BFF34F8FBFF36F8F00BF34
:1052000000BFFEE79DF8000000F05000264A107035
:105210000720264A106009E024480068401E234AFF
:1052200010609DF800004006000E00909DF8000000
:1052300000F080008028EFD01C480068C0F1070013
:10524000042801D1012000E0002050B900BF502007
:1052500080F31188BFF34F8FBFF36F8F00BF00BF84
:10526000FEE7124800680002104A106010460088ED
:1052700000F4E06010600B4A019810700C48006860
:1052800040F470000A4908600846006840F0704029
:105290000860FFF70FFD002006490860FAF786FF57
:1052A00000201CBD00E400E0C0000020C40000207D
:1052B00020ED00E0BC00002010B500BF502080F3BE
:1052C0001188BFF34F8FBFF36F8F00BF00F084FED4
:1052D00018B14FF080500449086000BF002080F3EF
:1052E000118800BF10BD000004ED00E02DE9F04181
:1052F00004460126002722460021012000F01CF868
:1053000005462846FEF76AFF2846BDE8F0812DE9EC
:10531000F84304460D4601274FF000082B460022B3
:1053200011460120009400F034F806463046FEF79E
:1053300055FF3046BDE8F8832DE9F84305460E4693
:1053400017460DB1012000E0002050B900BF5020E9
:1053500080F31188BFF34F8FBFF36F8F00BF00BF83
:10536000FEE705FB06F808F15000FFF77FFA044658
:1053700064B1A14609F15009002084F846003B467B
:105380004A46314628460094FEF737FF2046BDE8DE
:10539000F8832DE9F84380460E4617461D46DDF892
:1053A0002090B8F1000F01D0012000E0002050B99A
:1053B00000BF502080F31188BFF34F8FBFF36F8F72
:1053C00000BF00BFFEE70DB1012000E0002050B992
:1053D00000BF502080F31188BFF34F8FBFF36F8F52
:1053E00000BF00BFFEE707B10EB1012000E00020C2
:1053F00050B900BF502080F31188BFF34F8FBFF327
:105400006F8F00BF00BFFEE707B90EB9012000E0B3
:10541000002050B900BF502080F31188BFF34F8F98
:10542000BFF36F8F00BF00BFFEE7502000900098D1
:10543000502801D1012000E0002050B900BF5020C9
:1054400080F31188BFF34F8FBFF36F8F00BF00BF92
:10545000FEE700BF2C464CB1012084F846004B46C5
:105460003A46314640460094FEF7C7FE2046BDE866
:10547000F883000070B505460E462C4654B900BFAF
:10548000502080F31188BFF34F8FBFF36F8F00BFA1
:1054900000BFFEE7FFF774FBD4E90F12206801FBA1
:1054A0000200A0600020A06320686060E06B401EE6
:1054B000226C216800FB0211E160FF2084F84400A7
:1054C00084F845009EB9206908B9012000E0002059
:1054D000A8B904F1100000F015FF80B14FF0805022
:1054E00009490860BFF34F8FBFF36F8F07E004F1E6
:1054F0001000FFF70FFB04F12400FFF70BFBFFF791
:1055000069FB012070BD000004ED00E02DE9FF43C0
:1055100083B0064688461D464FF00009344654B90C
:1055200000BF502080F31188BFF34F8FBFF36F8F00
:1055300000BF00BFFEE7B8F1000F01D1206C08B931
:10554000012000E0002050B900BF502080F31188F6
:10555000BFF34F8FBFF36F8F00BF00BFFEE7022D79
:1055600002D1E06B012801D1012000E0002050B9F8
:1055700000BF502080F31188BFF34F8FBFF36F8FB0
:1055800000BF00BFFEE700F011FD08B9059808B99B
:10559000012000E0002050B900BF502080F31188A6
:1055A000BFF34F8FBFF36F8F00BF00BFFEE700BF99
:1055B000FFF7E6FAA06BE16B884201D3022D28D1F8
:1055C0002A4641462046FEF732FD0746606A08B982
:1055D000012000E0002068B904F1240000F092FEF0
:1055E00088B14FF0805032490860BFF34F8FBFF34E
:1055F0006F8F08E03FB14FF080502D490860BFF336
:105600004F8FBFF36F8FFFF7E5FA012007B0BDE8BA
:10561000F083059818B9FFF7DDFA0020F6E7B9F135
:10562000000F04D101A8FFF769FC4FF00109FFF753
:10563000D1FAFFF775FDFFF7A3FA94F94400401C77
:1056400010B9002084F8440094F94500401C10B9BA
:10565000002084F84500FFF7BDFA05A901A800F075
:1056600083FAF0B92046FEF7DEFEA0B104F1100087
:105670000599FFF755FC2046FFF7B9F800F08EFEBC
:10568000002895D14FF0805009490860BFF34F8F33
:10569000BFF36F8F8CE72046FFF7A9F800F07EFE7E
:1056A00086E72046FFF7A3F800F078FE0020ADE77C
:1056B00004ED00E02DE9F84F07468A4690461E4665
:1056C0003C4654B900BF502080F31188BFF34F8F80
:1056D000BFF36F8F00BF00BFFEE7BAF1000F01D12B
:1056E000206C08B9012000E0002050B900BF502014
:1056F00080F31188BFF34F8FBFF36F8F00BF00BFE0
:10570000FEE7022E02D1E06B012801D1012000E06A
:10571000002050B900BF502080F31188BFF34F8F95
:10572000BFF36F8F00BF00BFFEE7FFF7D7FA00BFE0
:105730005021EFF3118081F31188BFF34F8FBFF336
:105740006F8F00BF0546A06BE16B884201D3022E2C
:1057500025D194F945B0A06B0090324651462046C1
:10576000FEF765FC0BF1010088B9606A08B90120F9
:1057700000E0002050B904F1240000F0C3FD28B17E
:10578000B8F1000F02D00120C8F8000004E00BF1CE
:10579000010040B284F845004FF0010901E04FF0EC
:1057A000000900BF85F3118800BF4846BDE8F88FA7
:1057B00070B505462C4654B900BF502080F31188BF
:1057C000BFF34F8FBFF36F8F00BF00BFFEE700F046
:1057D000E7FBA16888420CD1E068401EE060E06809
:1057E00028B900231A4619462046FFF78FFE0126E6
:1057F00000E00026304670BD2DE9F74183B0054634
:105800000E464FF000082C4654B900BF502080F3DC
:105810001188BFF34F8FBFF36F8F00BF00BFFEE74C
:105820000EB9206C08B9012000E0002050B900BF7B
:10583000502080F31188BFF34F8FBFF36F8F00BFED
:1058400000BFFEE700F0B2FB08B9059808B90120D7
:1058500000E0002050B900BF502080F31188BFF352
:105860004F8FBFF36F8F00BF00BFFEE700BFFFF792
:1058700087F9A76BF7B131462046FEF7C3FB781EC8
:10588000A063206908B9012000E0002060B904F19C
:10589000100000F037FD38B14FF080502F490860FC
:1058A000BFF34F8FBFF36F8FFFF794F9012006B05E
:1058B000BDE8F081059818B9FFF78CF90020F6E7EC
:1058C000B8F1000F04D101A8FFF718FB4FF0010851
:1058D000FFF780F9FFF724FCFFF752F994F9440031
:1058E000401C10B9002084F8440094F94500401C85
:1058F00010B9002084F84500FFF76CF905A901A84C
:1059000000F032F9F0B92046FEF780FDA0B104F1B5
:1059100024000599FFF704FB2046FEF768FF00F01E
:105920003DFD0028A3D14FF080500C490860BFF323
:105930004F8FBFF36F8F9AE72046FEF758FF00F0B6
:105940002DFD94E72046FEF752FF00F027FD20468C
:10595000FEF75CFD00288AD00020A8E704ED00E0F7
:105960002DE9F34182B005464FF000082C46002691
:1059700054B900BF502080F31188BFF34F8FBFF39D
:105980006F8F00BF00BFFEE7206C08B9012000E068
:10599000002050B900BF502080F31188BFF34F8F13
:1059A000BFF36F8F00BF00BFFEE700F0FFFA08B93A
:1059B000039808B9012000E0002050B900BF502032
:1059C00080F31188BFF34F8FBFF36F8F00BF00BF0D
:1059D000FEE700BFFFF7D4F8A76BFFB1781EA06306
:1059E000206810B9FEF7E8FFA060206908B901201F
:1059F00000E0002060B904F1100000F083FC38B131
:105A00004FF0805043490860BFF34F8FBFF36F8F53
:105A1000FFF7E0F8012004B0BDE8F081039898B9E1
:105A20000EB9012000E0002050B900BF502080F3E3
:105A30001188BFF34F8FBFF36F8F00BF00BFFEE72A
:105A4000FFF7C8F80020E6E7B8F1000F04D1684678
:105A5000FFF754FA4FF00108FFF7BCF8FFF760FBBF
:105A6000FFF78EF894F94400401C10B9002084F828
:105A7000440094F94500401C10B9002084F845000A
:105A8000FFF7A8F803A9684600F06EF840BB20466F
:105A9000FEF7BCFCF0B1206838B9FFF771F8A068D8
:105AA00000F0DEFB0646FFF795F804F124000399A9
:105AB000FFF736FA2046FEF79AFE00F06FFC00284A
:105AC00088D14FF0805013490860BFF34F8FBFF368
:105AD0006F8F7FE72046FEF78AFE00F05FFC79E7D4
