:020000040800F2
:1000000068380020CD010008A13E0008AD2F00088F
:100010009D3E0008CD0D0008A94100080000000029
:100020000000000000000000000000006140000827
:10003000D10D000800000000B13E0008A9400008F2
:10004000E7010008E7010008E7010008E7010008F0
:10005000E7010008E7010008E7010008E7010008E0
:10006000E7010008E7010008E7010008E7010008D0
:10007000E7010008E7010008E7010008E7010008C0
:10008000E7010008E7010008E7010008E7010008B0
:10009000E7010008E7010008E7010008F50D000886
:1000A000E7010008E7010008E7010008E701000890
:1000B000E7010008E7010008CD400008E70100085B
:1000C000E7010008E7010008E7010008E701000870
:1000D000E7010008E7010008E7010008E701000860
:1000E000D50D0008E7010008E701000800F002F85C
:1000F00000F05DF814A696E8000CB244B344DA456B
:1001000001D100F054F8BAE80F000FA696E83000CD
:10011000A5EB040504EB0607AAEB0704A7F101070A
:100120004FEA15154FEA3414A4F10104AC4201D38F
:1001300000F03DF813F0010F18BFFB1A43F0010364
:1001400000F001F8DBE71847EC9B00000C9C000076
:10015000103A24BF78C878C1FAD8520724BF30C8F3
:1001600030C144BF04680C60704700007047000055
:100170000023002400250026103A28BF78C1FBD8B0
:10018000520728BF30C148BF0B607047662909F08D
:100190006A82002070471FB500F06AFC040000204E
:1001A000002108F0AFFCE0601FBD10B510BD00F0ED
:1001B00068FD1146FFF7EFFF04F028F900F086FD17
:1001C00003B4FFF7F2FF03BC00F04CFC0948804782
:1001D00009480047FEE7FEE7FEE7FEE7FEE7FEE729
:1001E000FEE7FEE7FEE7FEE704480549054A064B41
:1001F00070470000C9400008ED0000086832002088
:100200006838002068340020683400200FB41CB522
:10021000074B06AA7B4469460090059800F0BBFB9B
:100220000020694600F0CAFB1CBC5DF814FB00000E
:10023000A507000070B5044685690068C10601D5B0
:10024000302600E02026C00707D070BDD4E9012188
:1002500030469047206A401C20626D1EF6D570BD66
:1002600070B5044685690078C00707D170BDD4E930
:10027000012120209047206A401C20626D1EF6D587
:1002800070BD00002DE9F05F894604464FF0000A7A
:10029000DFF824B1FB44C0F820A02046E16888477D
:1002A00000287DD0252806D0D4E901219047206A76
:1002B000401C2062F1E700255F462046E168884740
:1002C0002028064607DB312E05D2B81910F8200C7D
:1002D00008B10543F1E7A80701D525F00405C4F8E6
:1002E0001CA00027C4F818A02A2E09D0304608F018
:1002F00001FC38B304EB8708303EC8F8186019E0F9
:1003000059F8041B204604EB87029161E168884795
:10031000012F064618D1E069002820DA25F02005D3
:100320001DE0D8F8180000EB800006EB40003038E4
:10033000C8F818002046E1688847064608F0DAFB4E
:100340000028EED1012F0AD02E2E08D12046E168D8
:1003500088477F1C0646022F45F02005C4DBA069B4
:10036000002803DA404245F00105A061E80701D00A
:1003700025F01005A6B1A6F14100192802D82036B3
:1003800045F400654A463146204625604D46FFF754
:10039000FDFE60B1012807D0ED1D25F0070000E04B
:1003A00007E000F1080978E705F1040975E7304630
:1003B0007AE7206ABDE8F09FD29300000EB50546AB
:1003C00014460E4613A000F009FB284600F006FB79
:1003D00016A000F003FB304600F000FB15A000F073
:1003E000FDFA00218DF80B100A210DF10A008DF89D
:1003F0000A1008E094FBF1F201FB124294FBF1F4C5
:10040000303200F8012D002CF4DC00F0E7FA00F0A7
:10041000DAFA00002A2A2A20617373657274696F00
:100420006E206661696C65643A2000002C20666964
:100430006C6520002C206C696E652000032A40F258
:10044000308010F0030C00F0158011F8013BBCF176
:10045000020F624498BF11F801CB00F8013B38BF8E
:1004600011F8013BA2F1040298BF00F801CB38BF9C
:1004700000F8013B11F0030300F0BA82083AC0F023
:10048000088051F8043B083A51F804CBA0E8081062
:10049000F5E7121D5CBF51F8043B40F8043BAFF395
:1004A0000080D20724BF11F8013B11F801CB48BFEF
:1004B00011F8012B24BF00F8013B00F801CB48BF25
:1004C00000F8012B704702F0FF0343EA032242EADF
:1004D000024200F024B84FF000020429C0F012805C
:1004E00010F0030C00F01B80CCF1040CBCF1020FE7
:1004F00018BF00F8012BA8BF20F8022BA1EB0C01BC
:1005000000F00DB85FEAC17C24BF00F8012B00F8B1
:10051000012B48BF00F8012B70474FF0000200B5D7
:10052000134694469646203922BFA0E80C50A0E816
:100530000C50B1F12001BFF4F7AF090728BFA0E8C4
:100540000C5048BF0CC05DF804EB890028BF40F890
:10055000042B08BF704748BF20F8022B11F0804FD2
:1005600018BF00F8012B70477047704770472DE99E
:10057000FF4F0C461E464FF0FF378BB0D2E900010B
:10058000DDF860800A908A46C1F30A5505B93D46F8
:10059000002108464FF00000BAF1000F00F44000BF
:1005A00005DA00EB80004FF4400101EA50004FEA09
:1005B0009059B9F1010F00DDB9460A9850EA4A0096
:1005C0000ED044F61050A5F2FF3545432F14B8F174
:1005D000000F1ED07542291E1EDDC9F100021CE06D
:1005E000B8F1010F4FF0000001D0302103E0F243D9
:1005F00005E02154401CB042FBDB304600220021C4
:1006000021540B99C1F80880C1E900200FB0BDE862
:10061000F08FBD1B6D1CDEE74A4600DA694206A872
:1006200000F0B0FA06AB93E8070003AB83E80700DD
:1006300050460A9907F082FE8DE80700A0F50050A9
:100640001F3800900398002D0ADD42F21F014A4630
:100650000844002303A90390684608F0EBF809E07A
:10066000A0F500504A461F38002303A903906846AE
:1006700008F0F5F88DE807000004000C03D04FF0F7
:10068000FF30410800E01046B8F1000F03D000220F
:10069000009215461EE0751E05D400F0EDF93032CB
:1006A00062556D1EF9D5B3460122084302D00022DF
:1006B0007F1C04E02078302801D100227F1E002A10
:1006C000099784D01DE0112D07DA00F0D5F93032FA
:1006D00062556D1C50EA0102F5D1084302D0009822
:1006E000C8B10EE00021681E05E0235C625C635423
:1006F0002254401E491C8142F7DBAB46A81B401E1A
:100700000990002004F80B000B98099AC0F80880A3
:10071000C0E9002B7AE711264FF0000857E72DE9D2
:10072000F04F88460446D21D22F0070191B0D1E96E
:100730000001CDE90A0108F0C9F902460B98C00F83
:1007400001D02D2007E02068810701D52B2002E091
:10075000202101EAC000032A099001D0072A05DB05
:1007600003464146204600F0CDF90BE12078800693
:1007700001D5E06900E00620B8F1650F814606D09A
:10078000B8F1660F18D0B8F1670F70D131E00020D2
:10079000B9F1110F009001DB112301E009F1010310
:1007A0000AAA01A90CA8FFF7E2FEDDE90C700026F9
:1007B00009F10105834647E001204B4600904FF0C8
:1007C00000470AAA01A90CA8FFF7D1FEDDE90DB088
:1007D0000C995D46002610B909F101000D18B9EB1E
:1007E000050003D4C0F1FF3609F10105A5EB0900AE
:1007F0002BE0B9F1010F01DA4FF001090020B9F146
:10080000110F0090484601DD112300E003460AAABB
:1008100001A90CA8FFF7ABFEDDE90C704D460026E0
:100820008346207800070AD4AB4500DA5D4601A86C
:10083000012D04DD411911F8011C302907D04F4565
:1008400002DA17F1040F04DA012082460FE06D1E70
:10085000EEE7002F02DCED1B3E4403E0781CA842CB
:1008600000DD7D1CB81B00F1010A4FF00047207825
:10087000000703D4AA4501DB4FF0FF3A0021B7F18E
:10088000004F0DF143088DF8431024D002202B2394
:10089000002F01DA7F422D230A21021EA0F1010060
:1008A00000DC5FB197FBF1FC97FBF1F201FB1C7CD4
:1008B00017460CF1300C08F801CDEEE7A8F1010065
:1008C00003702188090501D5452100E06521A0F1CB
:1008D000010800F8011C09980FA9A1EB0807FF1DEA
:1008E00000B10120411901EBEA70A1693844081AEE
:1008F000401EA0612078C00602D42046FFF79AFC73
:10090000099828B1D4E901219047206A401C20624F
:100910002078C00622D52046FFF78CFC1EE0002E72
:1009200004DBB34502DD01A8805D00E03020D4E99E
:1009300001219047206A401C2062761CAAF1010028
:100940005FEA000A0AD100F093F8C0680168405CD1
:10095000D4E901219047206A401C2062281EA5F19D
:100960000105DCDC07E0D4E9012118F8010B904710
:10097000206A401C2062381EA7F10107F3DC2046E4
:10098000FFF76EFC032011B041E6000001694A1C2C
:1009900002610878704700B58FB0CDE901310021C0
:1009A000059105497944CDE9031011466846FFF7E2
:1009B00069FC0FB000BD0000E5FFFFFF0A6802F808
:1009C000010B0A60704710B5002000F04DF9FFF7E9
:1009D000ECFBBDE81040012000F044B810B504461F
:1009E00002E0641C00F036F820780028F9D110BD30
:1009F00010B5203AC0F00B80B1E81850A0E81850AC
:100A0000B1E81850A0E81850203ABFF4F5AF5FEAFB
:100A1000027C24BFB1E81850A0E8185044BF18C9A0
:100A200018C0BDE810405FEA827C24BF51F8043B47
:100A300040F8043B08BF7047D20728BF31F8023B9B
:100A400048BF11F8012B28BF20F8023B48BF00F82F
:100A5000012B704708B569468DF800000320ABBE36
:100A600008BD000001491820ABBEFEE726000200C9
:100A7000004870474000002030B5B0F10A0271F123
:100A800000034FEA900E4EEA817EB0EB0E0061EB60
:100A900091014FEA101E4EEA017E10EB0E0041EB71
:100AA00011114FEA102E4EEA016E10EB0E0041EBD1
:100AB00011214FEA104E4EEA014E10EB0E0041EBB1
:100AC0001141401841F100014FEAD00040EA417065
:100AD0004FEAD1014FEA810444EA907410EB80059B
:100AE00044EB01046D1944EB0404521BA3414FF085
:100AF000000348BF0A3200D530BD401C41F100015F
:100B000030BD00002DE9F0411F4604460326016870
:100B1000072A01F4006004DB08B116A505E016A55C
:100B200003E008B115A500E015A521F01000206034
:100B3000A069C01EA0610FB1401EA0612046FFF752
:100B400079FB4FB1D4E9012138469047206A401C17
:100B50002062C01C206206E0206AFAE7D4E9012185
:100B600015F8010B9047761EF8D22046FFF778FB68
:100B7000BDE8F0814E414E006E616E00494E460068
:100B8000696E66002DE9F047814616468AB0354801
:100B900078440DC88DE80D0032487844801C03ACC1
:100BA0000DC884E80D0041F69B300844372190FBC6
:100BB000F1F290FBF1F5A5F1800501FB12041B3C5D
:100BC00002D56442012000E00020DFF898A08046B2
:100BD0000027FA44AAF1BE0A0EE0E0070AD0324626
:100BE000684607EB470101230AEB810107F037FE56
:100BF0008DE8070064107F1C002CEED1194F7F4454
:100C0000AE3F19E0E80715D007EB04100DF1180A04
:100C100090E80E008AE80E00C068F04201D19819F1
:100C200008903246012306A903A807F018FE03AB7B
:100C300083E807006D10641C002DE3D14FF0010321
:100C400032466946B8F1000F03A802D007F0F2FD62
:100C500001E007F004FEC9E90001C9F808200AB064
:100C6000BDE8F087648B000010B500F03DF8BDE8EA
:100C7000104000F034B80000004870472000002009
:100C800070477546FFF7F8FFAE46050069465346C4
:100C900020F00700854618B020B5FFF7A5FABDE89B
:100CA00020404FF000064FF000074FF000084FF0D3
:100CB000000BAC46ACE8C009ACE8C009ACE8C00920
:100CC000ACE8C00921F007018D46704710B5044615
:100CD000AFF300802046BDE81040FFF771BA00284E
:100CE00001D0FFF7BFBE704710B5002102A000F091
:100CF00053F8012010BD0000534947414252543A75
:100D00002041626E6F726D616C207465726D696EE8
:100D10006174696F6E0000004FF0013C50F8042BC5
:100D200051F8043B9A4221D1A2EB0C03934313EAFE
:100D3000CC1317D150F8042B51F8043B9A4215D12B
:100D4000A2EB0C03934313EACC130BD150F8042B02
:100D500051F8043B9A4209D1A2EB0C03934313EAE6
:100D6000CC13DBD04FF00000704700BFD01A01BA9F
:100D7000B1FA81F101F0180122FA01F0CB40DBB2A7
:100D8000C0B2C01AC1F120012CFA01F3D11A91436B
:100D900011EAC311E6D1704770B505460C460A202A
:100DA00000E06D1CFFF756FE35B128780028F8D119
:100DB00002E0641CFFF74EFE14B120780028F8D141
:100DC000BDE870400A20FFF745BE0000FEE70000C6
:100DD0007047000080B54FF4005000F0DBF84FF48E
:100DE000804000F0D7F84FF40040BDE8804000F0AC
:100DF000D1B800004FF4807000F0CCB8EFF3108051
:100E000072B600BFFEE70000B0B5044600F0DCF9A2
:100E1000054640F21500C2F200000078611C18BFC0
:100E2000044400BF00F0D0F9401BA042FAD3B0BD8B
:100E3000002908BF70472DE9F04F81B040F200490A
:100E400041F20042C4F20109C4F2010290424FF0A3
:100E500004024FF000046FF01F05A9F57E7708BF6C
:100E6000032200921BE000BF0246BBF5807F24BF37
:100E70000432AA4616680F2303FA0AF326EA03038C
:100E8000042606FA0AF633431360C26822EA0B020C
:100E9000C260013431FA04F205F1040554D0012294
:100EA00002FA04F616EA010BF3D024F0030640F62A
:100EB000000257F806C0C4F20102904213D040F677
:100EC0000042C4F2010290420AD041F20002C4F290
:100ED0000102DDF80080904208BF4FF0020804E0F4
:100EE0004FF0010801E04FF0000805F1200A0AF078
:100EF0000C060F2202FA06FE0CEA0E0208FA06F6AB
:100F0000B242B1D1D9F8002040F20C4322EA0B02E0
:100F1000C9F80020D9F80420C4F2010322EA0B0228
:100F2000C9F804201A68A60822EA0B021A60D9F848
:100F3000082022EA0B02C9F8082057F8262022EAE6
:100F40000E0247F826208FE701B0BDE8F04F70474A
:100F5000B0F5804F06DAB0F5807F0CD0B0F5005FB9
:100F600007D07047B0F5004F03D0B0F5804F18BFE1
:100F70007047282000E0172080B500F0C5FF40F240
:100F8000C400C2F2000000680121BDE8804003F007
:100F90007DBB000040F21441C4F201010A68024224
:100FA00014BF08607047FFF7D3BF00002DE9F04F72
:100FB00082B00E68002E00F0F78041F20042C4F2C9
:100FC0000102042340F2004E904208BF03234FF673
:100FD000FF7CC4F2010E009300240123C1F2100C27
:100FE0004FF0000A4FF000094AE041F20002C4F25B
:100FF0000102009F904208BF022704F00C030F2259
:101000009A402BEA020207FA03F34FEA9A051A43C1
:1010100046F825204E6840F20C45F202DEF8082022
:1010200054BF22EA080242EA0802C4F20105CEF8DF
:1010300008202A68B30254BF22EA080242EA0802E2
:101040002A60B303DEF8042054BF22EA080242EA11
:101050000802F303CEF80420DEF800204FF001036D
:1010600054BF22EA080242EA0802CEF800200E68C5
:101070000AF1010A36FA0AF204F1040400F094803D
:1010800003FA0AFB16EA0B08F1D04E68664511DC3C
:10109000122E51D8DFE806F0340A4946505050501D
:1010A000505050505050505050424D00D1F80C907C
:1010B00042E000BF4FF6FF72C1F2210296420FDC00
:1010C0000022C1F2110296421AD00022C1F212028D
:1010D000964215D00022C1F22102964210D02BE098
:1010E0000022C1F2220296420AD00022C1F231024D
:1010F000964205D00022C1F2320296421CD100BFB6
:101100008A6842B1012A14BFC0F814B0C0F810B008
:101110004FF0080910E04FF004090DE0CA6802F131
:10112000040909E04FF0000906E0CA6802F1080965
:1011300002E0CA6802F10C0902462646B8F5807F33
:1011400024BF0432203E17680F25B54027EA050565
:1011500009FA06F635431560CA79D2067FF587AFDE
:1011600041F21803C4F202031A68AEF57E7642F02B
:1011700001021A601A6802F001020192019A2AF033
:10118000030256F802B040F60002C4F20102904297
:1011900008D040F60042C4F2010290427FF425AF2D
:1011A00001272AE7002728E702B0BDE8F08F0000FA
:1011B0008068084018BF012070470000002A08BF5F
:1011C000090401617047000042F68850C2F2000035
:1011D00000687047002804BF0120704710B5242123
:1011E00080F83D10016804460A6822F001020A6096
:1011F00000F05AFD0020206484F83D00206384F84C
:101200003E0084F83C0010BD002804BF0120704758
:10121000F0B581B0044690F83D0028B9002084F86C
:101220003C00204600F06EFD242084F83D0020683C
:10123000016821F001010160016841F40041016091
:10124000016821F40041016000F0BAFF636848F2D0
:10125000A16CC0F2010C40F60011C0F23D016345E3
:101260003CBF48F28041C0F21E01884202D20120F8
:1012700001B0F0BD4DF68361C4F21B31A0FB011239
:101280002168970CD1F804E04FF496762EF03F05D4
:1012900045EA92454D60774348F638160D6AC0F22C
:1012A0004106A7FB067625F03F07634538BF960C3D
:1012B000721C3A430A62CA6948F2A0664CF6FF778C
:1012C000C0F20106B34222EA070C0AD801385A00DC
:1012D000B0FBF2F001306FF31F30042898BF0420F8
:1012E00020E0A2681927002A08BF032701385F43BE
:1012F000B0FBF7F701373F0509D052B119225A4325
:10130000B0FBF2F00422013062F31F3008E001204C
:1013100008E003EB4302B0FBF2F001306FF31F3043
:1013200040F4004040EA0C00C8610868D4E9072393
:1013300020F0C000104318430860886848F2FF326C
:1013400004F10C0790438CCF18431043A6698860C2
:10135000C86820F0FF0038433043C860086840F098
:101360000100086000202021206484F83D102063E3
:1013700084F83E0001B0F0BD2DE9F04782B09946F7
:10138000924688460446FFF71FFF94F83D10202937
:1013900009D105462068806910F0020008D194F850
:1013A0003C00012828D10226304602B0BDE8F08773
:1013B000012686EA500706E02068806910F00200E6
:1013C00086EA5007EBD0FFF7FFFE401B1A28F3D345
:1013D000206880698007EFD500202021206384F8F1
:1013E0003D1084F83E00216C41F020012164F90792
:1013F00084F83C00D3D1D6E70121206884F83C1062
:101400000168C90703D1016841F001010160016869
:1014100021F400610160212184F83D10102184F83D
:101420003E1000212164C4F824A0A4F82A90618D04
:1014300021850021CFF6FF71E162E16A11F5803F5D
:1014400018BF012924D1016841F48071016040690D
:10145000DDF8289010F0010037D180F0010609F185
:1014600001070AE020684169C90717D02068406970
:1014700010F0010080F0010627D1002FF6D0FFF711
:10148000A3FEB9F1000FEDD0401B4845EED9E9E7C6
:101490000829D8D0216B1229D5D0D8E700212022E5
:1014A000216384F83D2084F83E10226C42F0200233
:1014B0002264F20784F83C1007D000680126C005BA
:1014C00044BF4FF4007020646EE72069B0F5804F90
:1014D00001D1FE2125E0062000EAD8112068F03174
:1014E0000161416909071BD4416949053BD409F1F0
:1014F000010600BF66B1FFF767FEB9F1000F02D029
:10150000401B484504D920684069000740F1D1805C
:1015100020684169090703D441694905EAD522E0F9
:10152000FF21206801EA080101614169890730D47F
:101530004169490517D409F1010600BF66B1FFF7FB
:1015400043FEB9F1000F02D0401B484504D9206882
:101550004069800740F1AD8020684169890718D44F
:1015600041694905EAD5016841F4007101606FF4F1
:101570008061416100202021206384F83D1084F8BF
:101580003E00216C41F00401216484F83C000126F6
:101590000AE700260196206841690191806901905F
:1015A0000198208D002859D009F1010704E000BFFF
:1015B00020684069000663D5206850F8141F0906AA
:1015C0000DD40168490556D4002FF5D0FFF7FCFD76
:1015D000B9F1000FECD0401B4845EDD9E8E7D4F84D
:1015E00024E02268704610F8013B13616062608D50
:1015F00001386085B4F828C01046ACF1010323859A
:1016000050F8141F49070DD519040BD09EF801108E
:1016100011610EF102016162618D01396185ACF1E8
:1016200002012185016806E020684069400727D54E
:10163000206850F8141F49070DD4016849051AD4D1
:10164000002FF5D0FFF7C0FDB9F1000FECD0401B23
:101650004845EDD9E8E7208D0028ADD12068016824
:1016600041F400710160202084F83D0084F83E6060
:1016700084F83C6098E66FF480610160042000E02B
:10168000202000212022216384F83D2084F83E1090
:10169000226C1043206484F83C10206C042806D18E
:1016A00020680126016841F4007101607CE6012692
:1016B0007AE600202021206384F83D1084F83E0063
:1016C000216C41F020015FE72DE9F04F85B0044621
:1016D0000020984692468B460490FFF775FD94F8DB
:1016E0003D10202909D105462068806910F00200CC
:1016F00007D194F83C00012828D1022005B0BDE8AC
:10170000F08F012686EA500707E000BF2068806955
:1017100010F0020086EA5007EBD0FFF755FD401BA2
:101720001A28F3D3206880698007EFD50020202194
:10173000206384F83D1084F83E00216C41F02001C4
:101740002164F90784F83C00D3D1D6E7012122684F
:1017500084F83C101368DDE90F090E99DB0703D10B
:10176000136843F001031360136823F400631360EC
:10177000222284F83D20402284F83E200022226468
:1017800061626085608D594620850020CFF6FF702C
:10179000E062204652464346CDE9009501F00CFC3C
:1017A00018B1012005B0BDE8F08F208D022826D0A9
:1017B00001280ED0002838D100200390206841690C
:1017C0000391816903910399016841F400710160FB
:1017D00037E02068016821F480610160EFF3108038
:1017E00072B60020039020684169039181690391DA
:1017F0000399016841F40071016062B621E020683C
:10180000016841F400610160EFF3108072B60020BE
:1018100003902068416903918169039103990168EC
:1018200021F48061016062B60BE02068016841F438
:1018300080610160002103914169039180690390F7
:101840000398218D002900F0218140F210064FF00D
:10185000010A09F10107C2F200064FF023082068CF
:10186000032950F8142F1ED8022952D001296CD117
:1018700051060BD5F9E020684069400640F1268109
:10188000206850F8141F490600F1EF800168C9066E
:1018900000F10381FFF798FCB9F1000FEBD0401B7A
:1018A0004845EDD9E7E7510626D52068616A006909
:1018B0000870606A228D0130013A606222852168D9
:1018C000638D013B63854B695B0740F1DB8092B21E
:1018D000032A03D10A6822F480620A600969017050
:1018E000C7E000BF20684069400640F1EF802068F3
:1018F00050F8141F4906D8D40168C90600F1CD80FC
:10190000FFF762FCB9F1000FECD0401B4845EED95F
:10191000E8E712F0040046D18AEA900B0AE020685A
:10192000406940072ED52068406910F004008AEA1B
:10193000900B38D1002FF6D0FFF746FCB9F1000F1D
:10194000EDD0401B4845EED9E9E7B34612F004005C
:101950004FD18AEA90060AE020684069400738D5EE
:101960002068406910F004008AEA900641D1002FF7
:10197000F6D0FFF729FCB9F1000FEDD0401B484528
:10198000EED9E9E700212020216384F83D0084F8A6
:101990003E10206C40F0200020645FEACB7084F899
:1019A0003C107FF4FEAEEFF3108072B62068616ADF
:1019B000026842F40072026000690870606A218D5A
:1019C00001306062481E2085608D0138608562B6F6
:1019D0004BE000212020216384F83D0084F83E1074
:1019E000206C40F020002064F00784F83C107FF465
:1019F000D8AE20684BF289520168C1F2F84221F456
:101A000080610160EFF3108072B62068616A00693E
:101A10005E460870606A218D01300139606221855F
:101A2000618D01396185DBF80010C908A1FB021244
:101A3000110A01FB08F104910499013904910499F8
:101A4000B9B321684A695207F6D50A6842F40072B0
:101A50000A6009690170606A218D01306062481E68
:101A60002085608D0138608562B62068616A0069F2
:101A70000870606A218D01306062481E2085608D8B
:101A800001386085218D00297FF4E9AE202084F89B
:101A90003D00002084F83E0024E06FF0100101605A
:101AA00000202021206384F83D1084F83E00206C43
:101AB00016E000202021206384F83D1084F83E00C9
:101AC000206C40F02000206462B60AE00020202153
:101AD000206384F83D1084F83E00206C40F0200024
:101AE00020640120002184F83C1005B0BDE8F08F8F
:101AF0002DE9F04F83B0994692468B460446FFF796
:101B000063FB94F83D10202909D1054620688069BF
:101B100010F0020007D194F83C00012828D10220DF
:101B200003B0BDE8F08F012787EA500607E000BF49
:101B30002068806910F0020087EA5006EBD0FFF7BA
:101B400043FB401B1A28F3D3206880698007EFD538
:101B500000202021206384F83D1084F83E00216C91
:101B600041F020012164F10784F83C00D3D1D6E78D
:101B70000121226884F83C101368DDE90D080C99F6
:101B8000DB0703D1136843F001031360136823F4E8
:101B900000631360212284F83D20402284F83E2017
:101BA0000022226461626085608D59462085002094
:101BB000CFF6FF70E062204652464B46CDE90085E5
:101BC00001F032FB00286AD1208DC0B308F1010674
:101BD00004E000BF2068406900064BD5206850F83B
:101BE000141F09060DD4016849053ED4002EF5D016
:101BF000FFF7EAFAB8F1000FECD0401B4045EDD9F1
:101C0000E8E7606A2168034613F8012B0A61228D18
:101C10006362531E2385678D013F67854F697F0788
:101C20000AD51B0408D0437802300B616062901E15
:101C30002085608D01386085208D0028CED120461A
:101C400041462A4601F016FC08BB2068016841F4B1
:101C500000710160202084F83D00002084F83E00DF
:101C600084F83C0003B0BDE8F08F6FF48061016040
:101C7000042000E0202000212022216384F83D2060
:101C800084F83E10226C1043206484F83C10206CD1
:101C9000042804D12068016841F40071016001202A
:101CA00003B0BDE8F08F0000B0B5006845F2004118
:101CB000C4F2000188420DD045F60001C4F20001D3
:101CC000884218BFB0BD4FF400644FF480616FF4D8
:101CD000800003E0802440216FF4001041F21C02D8
:101CE000C4F20202136840F600451840C4F2010530
:101CF00010602846FFF79CF828462146BDE8B04012
:101D0000FFF796B810B586B0006845F60001C4F23A
:101D1000000188424FF00001CDE90411CDE9021124
:101D200027D045F20041C4F20001884245D141F27A
:101D30001804C4F20204206802A940F008002060E0
:101D4000206800F0080001900198C0200290122045
:101D500003900320059040F60040C4F20100FFF715
:101D600025F9606840F400106060606800F40010BD
:101D700021E041F21804C4F20204206802A940F0F4
:101D800008002060206800F00800019001984FF4DE
:101D900040600290122003900320059040F600401E
:101DA000C4F20100FFF702F9606840F4800060604F
:101DB000606800F480000190019806B010BD00003A
:101DC00040F2150042F68851C2F20000C2F2000152
:101DD00000780A68104408607047000080B542F23D
:101DE0000000C4F20200016841F01001016003200C
:101DF00000F0DAF80F2000F005F800F05DF80020A0
:101E000080BD0000B0B586B041F21C01C4F20201F1
:101E10000A68044642F004020A60096801A801F059
:101E2000040101910199694600F0A8F9049D002D73
:101E300018BF012500F0C4F94DF68361A840C4F233
:101E40001B31A0FB01014FF0FF3000EB914140F24C
:101E50004C2040F60002C2F20000C4F2000240F240
:101E6000E7330025C0E90021C0E90253056185611F
:101E700000F0ACFB08B106B0B0BD40F24C20C2F29D
:101E8000000000F02FFC0028F5D105461E2000F0D0
:101E90004DF80F2C0CD81E202146002200F058F8D7
:101EA00040F21800C2F200000460284606B0B0BD3F
:101EB000012006B0B0BD000080B582B041F218002C
:101EC000C4F202000168002241F0010101600168D2
:101ED00001F0010101910199416841F08051416097
:101EE00040680F2100F08050009000986FF00100D2
:101EF00000F02EF80420C4F201000168022262F30F
:101F00001A61016002B080BD002848BF704700F030
:101F10001F01012202FA01F11C2202EAD0004EF256
:101F20008022CEF20002815070470000002848BF96
:101F3000704700F01F01012202FA01F11C2202EA9F
:101F4000D0004EF20012CEF2000281507047000025
:101F500010B54EF60C5CCEF2000CDCF80030C3F38A
:101F6000022E8EF00704042C28BF0424BEF10303C4
:101F70004FF0FF3E0EFA04F438BF0023A14399400E
:101F80000EFA03F39A43114300F1604200F00F038D
:101F9000090102F56442043B6344002848BF03F191
:101FA0000C02117010BD00004EF60C51CEF2000173
:101FB0000A684FF6FF031A4060F30A2242F080607D
:101FC00040F0FD7008607047002804BF0120704792
:101FD0002DE9F04381B042F20008C4F20208044641
:101FE000D8F800000D4600F0070081420CD9D8F85F
:101FF000000020F007002843C8F80000D8F80000CF
:1020000000F00700A8426BD1206841F20409810763
:10201000C4F2020917D5410705D5D9F8001041F4DB
:10202000E061C9F80010010705D5D9F8001041F4A6
:102030006051C9F80010D9F80010A26821F0F00131
:102040001143C9F80010C00741D1D8F8000000F0D2
:10205000070085420CD2D8F8000020F00700284382
:10206000C8F80000D8F8000000F00700A84237D1F7
:102070002068410707D5D9F80010E26821F4E06133
:102080001143C9F80010000708D5D9F800002169EC
:1020900020F4605040EAC100C9F80000D9F80020DF
:1020A00002F00C00082841F20020C0F27A0049D169
:1020B00049F29473C2F38341C0F60003595CD20322
:1020C00034D440F60010C0F23D0048433AE0606866
:1020D00059F8041C022807D0012824D1890305D40B
:1020E000012001B0BDE8F0838901F9D5D9F80010CD
:1020F00021F003010843C9F80000FFF765F8064620
:1021000041F28837D9F80000616800F00C00B0EBAC
:10211000810F9AD0FFF758F8801BB842F2D90320FC
:1021200001B0BDE8F0838907DAD5DFE7D9F80020F0
:1021300049F22873C2F34042C0F600039A5C484358
:10214000B0FBF2F0D9F8001049F21072C1F303119C
:10215000C0F60002515C40F2100220FA01F140F298
:102160001800C2F200000068C2F200021160FFF71E
:1021700049FE002001B0BDE8F08300000F2202609C
:1021800041F20402C4F20202136803F00303436045
:10219000136803F0F0038360136803F4E063C36023
:1021A00012684FF4E06303EAD202026142F20000D7
:1021B000C4F20200006800F00700086070470000E9
:1021C00040F2100041F20401C2F20000C4F2020128
:1021D0000068096849F22072C1F30221C0F60002CA
:1021E000515CC8407047000040F2100041F2040109
:1021F000C2F20000C4F202010068096849F22072CC
:10220000C1F3C221C0F60002515CC8407047000013
:10221000002804BF012070472DE9F04182B0044638
:10222000007841F20006C007C4F2020647D0706889
:1022300000F00C00042808D1306880033FD56068A6
:10224000E8BB012002B0BDE8F081706800F00C002E
:10225000082802D17068C003EED4656830682DB1DB
:10226000B5F5A02F09D0B5F5803F0AD020F4803015
:102270003060306820F4802005E040F48020306039
:10228000306840F480303060FEF79EFF002D054638
:1022900012D000BF3068800311D4FEF795FF401BB9
:1022A0006428F7D916E100BFFEF78EFF401B6428B3
:1022B0004FF0030000F2D88030688003F4D4207817
:1022C000800719D5706810F00C0F07D0706800F007
:1022D0000C00082827D17068C00324D43068800718
:1022E00003D52069012840F0A6803068616920F09C
:1022F000F80040EAC1003060207800074ED5A069A0
:1023000038B30020C4F242200121C0F88014FEF747
:102310005BFF0546706A80072DD4FEF755FF401B12
:102320000228F7D9D6E02069002840F20000C4F264
:10233000422000F0A88001210160FEF745FF05461C
:1023400030688007D1D4FEF73FFF401B0228F7D941
:10235000C0E00020C4F242200021C0F88014FEF743
:1023600033FF0546706A800718D5FEF72DFF401B26
:102370000228F7D9AEE040F21000C2F20000006877
:1023800044F6D351C1F26201A0FB0101480A019059
:1023900000BF0198411E00280191F9D12078400723
:1023A00017D4E5698DB1706800F00C00082846D19B
:1023B000012D40D07068216A00F480328A423AD1FF
:1023C000616A00F47010884235D1002002B0BDE887
:1023D000F081F0695FEAC00808D4F06940F08050ED
:1023E000F061F06900F080500090009847F200071B
:1023F000C4F200073868C0050FD4386840F4807014
:102400003860FEF7E1FE05463868C00505D4FEF7E2
:10241000DBFE401B6428F7D95CE0E568306A1DB13B
:10242000052D41D0012D43D020F001003062306AEB
:1024300020F004003EE0012002B0BDE8F08100275A
:10244000C4F2422700203866FEF7BEFE022D054684
:102450000ED100BF3068800153D5FEF7B5FE401B9A
:1024600002284FF00300F5D902B0BDE8F08100BFAB
:1024700030688001A9D5FEF7A7FE401B02284FF067
:102480000300F5D9F0E700210160FEF79DFE054647
:10249000306880077FF530AFFEF796FE401B0228BC
:1024A0004FF00300F4D9DFE740F004003062306AF7
:1024B00040F001003062FEF787FE002D054641F234
:1024C000883712D0306A800712D4FEF77DFE401B99
:1024D000B842F7D9032002B0BDE8F081FEF774FEE0
:1024E000401BB8424FF00300BED8306A8007F5D4D5
:1024F000B8F1000F3FF555AFF06920F08050F06162
:102500004FE7206AB0F5803F05D17168A26821F4D9
:102510000031114371607168626A21F474111143D2
:102520000843706001203866FEF74EFE044600BF87
:10253000306880013FF549AFFEF746FE001B0228D8
:102540004FF00300F4D98FE7704700007047000098
:1025500090F83C20012A4FF0020234D010B501233C
:1025600080F83C3080F83D200268D2F804E0D2F8D0
:1025700008C00C682EF07003234340F2FF74C4F2CD
:102580000004A242536005DCB2F1804F0ED040F24D
:10259000004307E042F60043C4F201039A4205D02B
:1025A00040F60003C4F200039A4204D149682CF0BB
:1025B0008003194391600121002280F83D1080F8CA
:1025C0003C20BDE81040104670470000002804BFC2
:1025D0000120704710B590F83D1031B9002180F806
:1025E0003C10044600F066F82046022180F83D10B9
:1025F000016840F2FF740B68C4F2000442F6004C1C
:10260000A142C4F2010C05DCB1F1804F0AD040F2C6
:10261000004203E0614505D040F60002C4F200022A
:10262000914203D1826823F070031343A14205DC79
:10263000B1F1804F0AD040F2004203E0614505D07D
:1026400040F60002C4F20002914203D1026923F471
:1026500040731343846923F08002D0F804E0C36818
:10266000224361450A60CB62C1F828E002D1426989
:10267000CCF8302001224A610B69DB0703D00B69DB
:1026800023F001030B6180F8462080F83E2080F89B
:102690003F2080F8402080F8412080F8422080F8D8
:1026A000432080F8442080F8452080F83D20002019
:1026B00010BD0000006842F60041C4F201018842EA
:1026C00018BF704781B041F21800C4F202000168DF
:1026D00041F400610160006800F40060009000981F
:1026E00001B0704790F83D1001291CBF01207047D0
:1026F000022180F83D10006840F2FF72C168C4F208
:102700000002904241F00101C16005DCB0F1804F50
:102710000ED040F2004107E042F60041C4F2010150
:10272000884205D040F60001C4F20001884206D17B
:10273000816801F00701062904BF00207047016885
:1027400041F00101016000207047000090F83C203A
:10275000012A4FF002026ED080B5012380F83C3090
:1027600080F83D20D0F800C04FF67772DCF80830D2
:1027700023EA0202CCF808200B684F2B28DC1F2B21
:1027800044DD202B45D0302B43D0402B40F0AC8093
:10279000D1F804E0C968DCF82030DCF8202022F011
:1027A0000102CCF82020DCF8182022F0F00242EAE6
:1027B000011123F00A0242EA0E02CCF81810CCF8FC
:1027C0002020DCF8081041F0470121F0300127E01B
:1027D0006F2B32DDB3F5005F73D0B3F5805F21D08E
:1027E000702B40F08180D1E901E3C968DCF8082052
:1027F00043EA0E0322F47F4243EA01211143CCF85D
:102800000810DCF8081041F0770109E00BB1102B3B
:102810006AD1DCF8081021F07001194341F007017A
:10282000CCF808100022012180F83D10002180F82A
:102830003C10BDE8804010467047502B21D0602BE3
:1028400052D1D1F804E0C968DCF82030DCF820204F
:1028500022F01002CCF82020DCF8182022F470427C
:1028600042EA013123F0A00242EA0E12CCF818101D
:10287000CCF82020DCF8081041F0670121F01001AD
:10288000CEE7D1F804E0C968DCF82030DCF820207D
:1028900022F00102CCF82020DCF8182022F0F0020F
:1028A00042EA011123F00A0242EA0E02CCF81810A3
:1028B000CCF82020DCF8081041F0570121F020016D
:1028C000AEE7D1E901E3C968DCF8082043EA0E036A
:1028D00022F47F4243EA01211143CCF80810DCF8CE
:1028E000081041F480419BE701229CE770470000FB
:1028F00070B504460068C5680669B10716D515F0BD
:10290000020113D06FF0020101610121217780697A
:10291000800703D02046FFF7E9FF05E0204600F0DE
:102920008DF8204600F02AFA00202077700718D58D
:1029300015F0040015D020686FF004010161022138
:102940002177806910F4407F03D02046FFF7CEFF47
:1029500005E0204600F072F8204600F00FFA002053
:102960002077300717D515F0080014D020686FF0D5
:102970000801016104212177C069800703D0204646
:10298000FFF7B4FF05E0204600F058F8204600F0BD
:10299000F5F900202077F00618D515F0100015D0B5
:1029A00020686FF01001016108212177C06910F4DF
:1029B000407F03D02046FFF799FF05E0204600F056
:1029C0003DF8204600F0DAF900202077F00718BF24
:1029D00015F0010002D1300609D412E020686FF032
:1029E00001010161204600F027FA300609D515F0F3
:1029F000800006D020686FF0800101612046FFF75B
:102A0000A3FD700609D515F0400006D020686FF0D0
:102A100040010161204600F019FAB00658BF70BDB0
:102A200015F0200008D021686FF0200220460A61CE
:102A3000BDE87040FFF78ABD70BD00007047000020
:102A400090F83C30012B04BF022070474FEAB202DD
:102A50000123032A80F83C3000F2EC802DE9F0419C
:102A6000DFE802F002A63B76036842F600451C6AE6
:102A70001A6AC4F2010522F001021A621A46D3F85A
:102A800004C052F818EF8E6824F00204AB4244EA06
:102A9000060405D1CE6824F00C0426F00406344365
:102AA0000E68AB4206D1D1E905582CF440772F438C
:102AB00047EA080C2EF073073743C3F804C09F6140
:102AC0004F6809695F631C629F6947F008079F614F
:102AD0009F6927F004079F61A6E0036842F600455E
:102AE0001C6A1A6AC4F2010522F480721A621A463C
:102AF000D3F804C052F81CEF8E6824F40074AB4283
:102B000044EA062407D1CE6840F2FF47360224F497
:102B10004064BE4334430E68AB4206D1D1E9055749
:102B20002CF4405C3D434CEA051C2EF07307374300
:102B3000C3F804C0DF614F680969DF631C62DF69A5
:102B400047F00807DF61DF6927F00407DF616BE00A
:102B5000036842F60047D3F820C01A6AC4F201079E
:102B600022F480521A621A465C6852F81C5FD1F84F
:102B700000E08E68BB4204D14F6924F4804444EAEB
:102B800087142CF4005747EA063725F4E64646EA50
:102B90000E265C60DE614E6809691E641F62DF6993
:102BA00047F40067DF61DF6927F48067DF613AE09F
:102BB000036842F600451C6A1A6AC4F2010522F055
:102BC00010021A621A46D3F804C052F818EF8E6841
:102BD00024F02004AB4244EA061407D1CE686FF01B
:102BE000400724F0C00407EA061634430E68AB42DF
:102BF00006D1D1E905572CF4406C3D434CEA850CD5
:102C00002EF4E64747EA0627C3F804C09F614F68E1
:102C100009699F631C629F6947F400679F619F6910
:102C200027F480679F61090213681943002311602C
:102C3000BDE8F041002180F83C10184670470000C4
:102C4000002804BF0120704710B590F83D1031B93D
:102C5000002180F83C10044600F066F8204602216E
:102C600080F83D10016840F2FF740B68C4F2000464
:102C700042F6004CA142C4F2010C05DCB1F1804FD8
:102C80000AD040F2004203E0614505D040F6000260
:102C9000C4F20002914203D1826823F0700313430F
:102CA000A14205DCB1F1804F0AD040F2004203E0BE
:102CB000614505D040F60002C4F20002914203D102
:102CC000026923F440731343846923F08002D0F82F
:102CD00004E0C368224361450A60CB62C1F828E082
:102CE00002D14269CCF8302001224A610B69DB072E
:102CF00003D00B6923F001030B6180F8462080F8B4
:102D00003E2080F83F2080F8402080F8412080F865
:102D1000422080F8432080F8442080F8452080F845
:102D20003D20002010BD000082B0006840F200414C
:102D3000C4F20001884211D0B0F1804F1BD141F2A2
:102D40001C00C4F20200016841F00101016000684A
:102D500000F001000190019802B0704741F21C00A0
:102D6000C4F20200016841F002010160006800F055
:102D700002000090009802B0704700007047000009
:102D80004122082908BF4022042908BF3F22002908
:102D900008BF3E22825C012A1CBF0120704702222C
:102DA00041B1082909D0042914BF80F8412080F8D6
:102DB0003F2004E080F83E2001E080F840200068D9
:102DC00001F01F010122036A8A4023EA0201016225
:102DD000036A42F64441C4F201011A43A1F14403DB
:102DE0009842026203D10A6842F400420A6040F24B
:102DF000FF71C4F20001884205DCB0F1804F0ED0B3
:102E000040F2004107E042F60041C4F2010188426D
:102E100005D040F60001C4F20001884206D1816865
:102E200001F00701062904BF00207047016841F046
:102E30000101016000207047006840F60001C4F203
:102E40000001884218BF7047FEF7BABF7047000004
:102E5000002804BF0120704710B5044690F84100D7
:102E600028B9002084F84000204600F061F82420B2
:102E700084F841002068D4E90212C36823F40053A7
:102E8000C360036923F440531A430261D4E9042365
:102E90001143C268194341F20C639A431143C16064
:102EA0004169A26921F44071114343F60002C4F262
:102EB00001029042416102D0FFF782F901E0FFF781
:102EC00093F9D4E90023192148439900B0FBF1F0AC
:102ED00048F21F5CC5F2EB1CA0FB0C314FF69C7353
:102EE0004909C0F6FF7301FB0300322303EB001016
:102EF000A0FB0C03F02000EA531000EB0110C3F319
:102F00004311084490601069202120F49040106122
:102F1000506920F02A005061D06840F40050D06021
:102F20000020606484F8411084F84210606310BD92
:102F300070B586B040F60004C4F201040068A4F540
:102F40004441002688420596CDE90366029601D0E9
:102F500006B070BD41F21800C4F20200416802AD33
:102F600041F400314160416801F40031019101995F
:102F7000016841F0040101600068294600F0040086
:102F800001900198042002900220039003200590F4
:102F90002046FEF70BF80820CDE902062046294618
:102FA0000496FEF703F806B070BD0000FEE70000CF
:102FB000012000F031BA00002DE9F04F83B0044643
:102FC0000068DDF834B00C9E0768994647F48067C6
:102FD00007600768904647F48073036040698A463B
:102FE00010F001002AD180F00107751C0BE000BF32
:102FF00020684069C00711D02068406910F00100C6
:1030000080F001071AD1002DF6D0FEF7DDF8002E72
:10301000EED0A0EB0B00B042EED9E9E70020202172
:10302000206384F83D1084F83E00216C41F02001BB
:103030002164F90784F83C0040F0B78020680AF06A
:10304000FE0AC0F810A0416989072CD441694905DE
:1030500014D4771C5FB1FEF7B7F81EB1A0EB0B00DC
:10306000B04204D920684069800740F1D1802068CF
:103070004169890717D441694905EBD5016841F4D5
:10308000007101606FF480614161002020212063A4
:1030900084F83D1084F83E00216C41F00401216465
:1030A00084F83C00B0E000200290206850F8141F23
:1030B0000291416802910299016809061AD4771CAD
:1030C0000AE000BF20684069000640F1888020685F
:1030D00050F8141F09060DD40168490551D4002F7A
:1030E000F5D0FEF771F8002EECD0A0EB0B00B0424B
:1030F000EDD9E7E72068B9F1010F21D04FEA182197
:10310000016150F8141F090619D4771C09E000BFAB
:1031100020684069000662D5206850F8141F09062F
:103120000DD4016849052CD4002FF5D0FEF74CF8DA
:10313000002EEDD0A0EB0B00B042EDD9E8E72068FF
:103140005FFA88F10161206850F8141F09061DD448
:10315000771C08E020684069000640D5206850F8D8
:10316000141F090612D4016849050AD4002FF5D0AE
:10317000FEF72AF8002EEDD0A0EB0B00B042EDD9FF
:10318000E8E76FF480610160042029E020680022F4
:103190000168334641F48071016020464FF001110F
:1031A000CDF800B000F0A0F950B120680068C0056B
:1031B00044BF4FF400702064032003B0BDE8F08FDB
:1031C00025684AF001070221C0F20101204632467B
:1031D0005B462F6103B0BDE8F04F00F0C9B9202075
:1031E00000212022216384F83D2084F83E10226CC7
:1031F0001043206484F83C10206C042804D120681B
:10320000016841F400710160012003B0BDE8F08F56
:1032100000202021206384F83D1084F83E00216CBA
:1032200041F020013BE700002DE9F04F81B004465A
:10323000006890460268DDF82CA042F480720260BB
:1032400040690A9E994610F001008B4634D180F007
:103250000105771C0BE000BF20684069C00711D052
:103260002068406910F0010080F0010524D1002F92
:10327000F6D0FDF7A9FF002EEED0A0EB0A00B04279
:10328000EED9E9E700202021206384F83D1084F87E
:103290003E00216C41F020012164E90784F83C00E4
:1032A0000AD020680068C00544BF4FF40070206455
:1032B000032001B0BDE8F08F20680BF0FE01016132
:1032C000416989072DD44169490515D4751C00BF92
:1032D0005DB1FDF779FF1EB1A0EB0A00B04204D941
:1032E00020684069800740F18C8020684169890727
:1032F00017D441694905EBD5016841F400710160BB
:103300006FF48061416100202021206384F83D102A
:1033100084F83E00216C41F00401216484F83C00F3
:103320006BE000200090206850F8141F0091416865
:10333000009100990168090619D4751C09E000BFC5
:1033400020684069000643D5206850F8141F09061C
:103350000DD4016849052ED4002DF5D0FDF734FFBA
:10336000002EEDD0A0EB0A00B042EDD9E8E72068CE
:10337000B9F1010F25D04FEA1821016150F8141F4F
:1033800009061DD4751C08E02068406900061FD599
:10339000206850F8141F090612D4016849050AD4A0
:1033A000002DF5D0FDF710FF002EEDD0A0EB0A00A8
:1033B000B042EDD9E8E76FF480610160042008E0D5
:1033C00020685FFA88F10161002001B0BDE8F08F4C
:1033D000202000212022216384F83D2084F83E1023
:1033E000226C1043206484F83C10206C042804D123
:1033F0002068016841F400710160012001B0BDE85E
:10340000F08F00202021206384F83D1084F83E00D6
:10341000216C41F0200180E710B501280CD0C8B91B
:1034200040F65404C2F20004206810B100F04CF9D8
:1034300090B14FF0FF3010BD40F22010C2F20000FA
:10344000FDF7C8FE4FF480604FF4006100F0D2F841
:1034500000F0B2FB002010BD2068FDF7BBFE40204D
:10346000802100F0C7F800F085FB00F087F900200C
:1034700010BD0000F0B581B004460068154650F854
:10348000143F5A0718D40E464F1C08E020684069C4
:10349000400719D5206850F8141F49070CD401685B
:1034A00049050CD4002FF5D0FDF78EFE002EEDD08F
:1034B000401BB042EED9E9E7002001B0F0BD6FF447
:1034C00080610160042000E020200021202221638F
:1034D00084F83D2084F83E10226C1043206484F868
:1034E0003C10012001B0F0BD2DE9F047DDF820804F
:1034F00099461646044601F47F0018278DB203F161
:10350000010AB0F5803F08BF142708E02068C059C1
:103510002840401BB0FA80F04009864218D020684D
:10352000C0592840401BB0FA80F0400986420CD1B7
:10353000BAF1000FF3D0FDF747FEB9F1000FE5D067
:10354000A0EB08004845EAD9E0E70020BDE8F08795
:1035500000202021206384F83D1084F83E00216C77
:1035600041F02001216484F83C000120BDE8F0878F
:103570002DE9F04104460068984643698FB203EA9A
:103580000701B94202D10020BDE8F0814169490537
:1035900017D41646551C00BF5DB1FDF715FE1EB1D0
:1035A000A0EB0800B04204D9206840693840B84216
:1035B0001ED1206841693940B942E4D041694905CA
:1035C000EAD5016841F4007101606FF480614161E6
:1035D000042000212022216384F83D2084F83E103D
:1035E000226C10432064012084F83C10BDE8F08177
:1035F0002020EEE7F0B585B00646112040F60045E4
:1036000002900120C4F201050390022001AF0C4694
:103610000490284639460196FDF7C8FC28463946ED
:103620000194FDF7C3FC284621460122FDF7C6FDA3
:10363000092700BF284631460022FDF7BFFD0120C3
:10364000FDF7E2FB284631460122FDF7B7FD0120D8
:10365000FDF7DAFB013FEDD1284621460022002785
:10366000FDF7ACFD00970098092805DC00980130B3
:10367000009000980A28F9DB284631460122FDF720
:103680009DFD00970098092806DC00BF00980130D6
:10369000009000980A28F9DB284621460122FDF710
:1036A0008DFD002000900098092805DC009801306D
:1036B000009000980A28F9DB05B0F0BD40F65401EF
:1036C000C2F200010860704740F28000C2F20000C0
:1036D0000068002804BF0020704780B50A2100F070
:1036E00051FF002818BF4FF0FF3080BD2DE9F04199
:1036F00084B0012836D840F65407C2F200073C686F
:1037000084B320B10520C0B204B0BDE8F081002B25
:103710004FF00400F7D00A9F002FF4D01D460E464C
:103720009046FFF7D1FF08B10120ECE74FF0050C00
:103730002046314642460123CDE90057CDF808C066
:10374000FDF7C2FF044600F019F8032C08D8E0008A
:1037500040F20021C0B2C0F2011121FA00F0D2E71C
:103760000220D0E749F6C00049F6CF01C0F60000BC
:10377000C0F600013722FCF721FE000040F2800075
:10378000C2F200000068002808BF704700F060BF68
:103790002DE9F04184B0012836D840F65407C2F232
:1037A00000073C6884B320B10520C0B204B0BDE876
:1037B000F081002B4FF00400F7D00A9F002FF4D0C7
:1037C0001D460E469046FFF77FFF08B10120ECE74B
:1037D0004FF0050C2046314642460123CDE9005703
:1037E000CDF808C0FEF784F90446FFF7C7FF032CA5
:1037F00008D8E00040F20021C0B2C0F2011121FA65
:1038000000F0D2E70220D0E749F6C00049F6CF0128
:10381000C0F60000C0F600011822FCF7CFFD000042
:10382000B0B582B004460020ADF80600080A8DF855
:1038300006008DF8071002250DF1060320468021B1
:1038400005220095FFF7A4FF08B102B0B0BD42F217
:103850004170ADF806000DF10603204680210022DC
:103860000095FFF795FF02B0B0BD0000F0B583B042
:10387000064600204FF00407ADF80A00E2B10D46FD
:1038800008460021144605F0C3FCA8B902270DF133
:103890000A033046802104220097FFF727FF0746DE
:1038A00050B9BDF80A00C0BA05F01CFD0146284613
:1038B00005F098FD00272060384603B0F0BD0000F9
:1038C000F0B583B0064600204FF00407ADF80A00BB
:1038D000E2B10D4608460021144605F099FCA8B94E
:1038E00002270DF10A033046802102220097FFF7DC
:1038F000FDFE074650B9BDF80A00C0BA05F0F2FC5B
:103900000146284605F06EFD00272060384603B0CA
:10391000F0BD000000061CBF0220704710B540F249
:103920001400C2F20000002102240170002040F2C5
:10393000AA61FFF775FF012803D1002CA4F101044F
:10394000F4D1002818BF012010BD000070B50C464E
:1039500005460226002029462246FFF787FF012858
:1039600003D1002EA6F10106F4D1002818BF0120D2
:1039700070BD000070B50C460546022600202946A1
:103980002246FFF79DFF012803D1002EA6F1010674
:10399000F4D1002818BF012070BD000080B549F2A5
:1039A0006070C0F6000000F00FFE40F2C001C2F2ED
:1039B0000001086049F22C70C0F6000000F004FE1F
:1039C00040F28001C2F20001086044F2A10049F215
:1039D000A472C0F60000C0F60002002100F0F2FE62
:1039E00040F2C801C2F20001086044F2AD2049F281
:1039F0007072C0F60000C0F60002002100F0E2FE86
:103A000040F2C401C2F20001086044F2AD1049F274
:103A10003C72C0F60000C0F60002002100F0D2FEA9
:103A200040F28C01C2F20001086045F2593049F2BF
:103A3000EC72C0F60000C0F60002002100F0C2FEE9
:103A400040F65C01C2F20001086045F2E94049F627
:103A50001002C0F60000C0F60002002100F0B2FE25
:103A600040F66001C2F20001086045F2492049F2C7
:103A7000C872C0F60000C0F60002002100F0A2FEED
:103A800040F65801C2F20001086080BD2DE9F04700
:103A900086B04FF0000841F21800CDE90488CDE966
:103AA0000288C4F20200016840F6000441F01001EF
:103AB00001600168C4F2010401F010010191019953
:103AC000016804F5006641F02001016001680122EF
:103AD00001F020010191019901684FF4005541F076
:103AE000040101600168012701F0040101910199BD
:103AF000016841F00801016000684FF4005100F0D6
:103B00000800019001983046FDF758FB20464FF41D
:103B1000007100224FF40079FDF750FB02A880E805
:103B2000A00102AD4FF0020A30462946CDF814A09C
:103B3000FDF73CFA4FF4604000260290C1F22106E6
:103B400004F580602946CDE90367FDF72FFA4FF4AD
:103B5000807002A9C1C120462946FDF727FA2046F8
:103B60002946CDE90297CDE9048AFDF71FFA06B090
:103B7000BDE8F08780B540F2CC0045F20041C2F2CA
:103B80000000C4F2000148F2A06200234FF4804C10
:103B9000C0F2010280E80E00C0E9033CC0E9053331
:103BA000C0E90733FDF730FB002808BF80BDBDE842
:103BB0008040FDF723B9000080B540F2201045F6A3
:103BC0000001C2F20000C4F2000148F2A06200232A
:103BD0004FF4804CC0F2010280E80E00C0E9033CC3
:103BE000C0E90533C0E90733FDF70EFB002808BF25
:103BF00080BDBDE88040FDF701B9000080B586B00A
:103C000040F2741042F600420021C2F20000C4F2F9
:103C1000010211234FF6FF7CCDE90411CDE9021119
:103C2000CDE90011C0E90023C0E9021CC0E904117C
:103C30008161FEF7CBFC002818BFFDF7DFF84FF4D9
:103C40008050029040F27410C2F2000002A9FEF708
:103C50007DFD002818BFFDF7D1F80020CDE9000058
:103C600040F27410C2F200006946FEF771FC0028B1
:103C700018BFFDF7C3F806B080BD0000B0B590B026
:103C800040F2BC100024C2F200004FF0804140F22C
:103C9000E7330994CDE90744CDE90544CDE9034470
:103CA000CDE90144032280E81600C0E903348461B1
:103CB000FEF7C6FF002818BFFDF7A0F840F2BC10C1
:103CC000C2F2000008A9CDE90844FEF741FC002833
:103CD00018BFFDF793F8602040F2BC14019040F249
:103CE000A930C2F200040290002501A9204600225A
:103CF00003950595FEF7A4FE002818BFFDF77EF892
:103D0000206840F20041C4F2000188420F95CDE9DD
:103D10000D550C9511D0B0F1804F27D141F218000C
:103D2000C4F20200016841F004010160006800F083
:103D300004000B900B9801200DE041F21800C4F232
:103D40000200016841F004010160006800F0040015
:103D50000B900B9840200C9002200D900F9040F695
:103D60000000C4F201000CA9FDF720F910B0B0BDAD
:103D700070B590B040F2004540F20420C4F2000556
:103D80000024C2F20000032140F2E7320994CDE999
:103D90000744CDE90544CDE90344CDE90144C0E938
:103DA0000051C0E9024204618461FEF749FF002826
:103DB00018BFFDF723F840F20420C2F2000008A962
:103DC000CDE90844FEF7C4FB002818BFFDF716F83C
:103DD000602040F2042401904FF4A270C2F200046B
:103DE0000290002601A92046002203960596FEF7C0
:103DF00027FE002818BFFDF701F82068CDE90E6600
:103E0000A8420D960C9611D0B0F1804F25D141F209
:103E10001800C4F20200016841F00401016000686A
:103E200000F004000B900B9801200DE041F2180007
:103E3000C4F20200016841F004010160006800F072
:103E400004000B900B9840200C9002200D900F90D6
:103E500005F582300CA9FDF7A9F810B070BD00007F
:103E600080B540F2942044F20041C2F20000C4F256
:103E7000000100234FF00C0C4FF4E13280E80E00FB
:103E8000C0E90333C0E905C3C361FEF7E1FF0028C1
:103E900008BF80BDBDE88040FCF7B0BFFEE7000072
:103EA000FEE700000000000000000000000000002D
:103EB000EFF30980BFF36F8F0D4B1A6820E9F00F05
:103EC00010602DE908404FF0500080F3118803F096
:103ED00011F84FF0000080F31188BDE80840196820
:103EE0000868B0E8F00F80F30988BFF36F8F704760
:103EF000DC03002070B5022832D205460E46084683
:103F00004FF07E51144605F08AF988BB0021C4F2B7
:103F10007811304605F083F950B32046002105F0B2
:103F200077F968BB0021C4F22011204605F070F932
:103F300030B340F29001C2F200010020C1E902005A
:103F4000C1E90400C1E906004FF001300122086216
:103F50000020C1E90A52C1E9006481F8242070BD43
:103F600049F634010AA0C0F600011622FCF726FA31
:103F700049F6340112A0C0F600011722FCF71EFA20
:103F800049F6340118A0C0F600011822FCF716FA11
:103F90005F656E5F737461203D3D205057525F45F1
:103FA0004E5F4F4646207C7C205F656E5F73746178
:103FB000203D3D205057525F454E5F4F4E00000060
:103FC0005F7365745F766F6C203E3D20312E3066E6
:103FD000202626205F7365745F766F6C203C20314D
:103FE000352E3566000000005F7365745F6375727F
:103FF000203E20302E3066202626205F7365745FB9
:10400000637572203C3D2031302E30660000000088
:1040100040F2C000C2F200000068002804BF002087
:10402000704780B5052100F0ADFA002818BF4FF0A9
:10403000FF3080BD40F2C000C2F2000000680028DE
:1040400004BF0020704780B500F002FB002818BFB5
:104050004FF0FF3080BD00000000000000000000B5
:10406000074B19680868B0E8F00F80F30988BFF3C0
:104070006F8F4FF0000080F311884EF00D0E7047E7
:10408000DC03002080B540F2CC00C2F20000FFF754
:1040900015FB002080BD00000020FFF7BDB9000027
:1040A000012000F02DFAFBE780B54EF21000CEF2B1
:1040B0000000006803F044FE012808BF80BDBDE891
:1040C000804002F0CDBF00007047000040F24C205D
:1040D000C2F20000FEF70CBCB0B582B00022ADF811
:1040E000062051B10D4602240DF1060390210094E3
:1040F000FFF7FCFA20B102B0B0BD042002B0B0BDA1
:10410000BDF8060000BA001505F0ECF84FF0765146
:1041100005F068F90021CCF22021044605F07FF873
:1041200000284FF00300E6D10021C4F248312046B8
:1041300005F060F801460320002904BF2C60002030
:1041400002B0B0BDB0B50446022500BF0020214634
:10415000FFF7C2FF012803D1002DA5F10105F5D11C
:10416000002818BF0120B0BD40F27411C2F2000156
:10417000096800224A620A6842F001020A6000BF30
:104180004A6A8242FCD3086A41F21112104200D0FE
:104190007047086A40F24442104218BF70470868EE
:1041A00020F0010008607047FEE7000082B003F0D5
:1041B000DBFD002640F2C00940F2900440F2E42BFF
:1041C000C4F2C0064FF4FA77C2F20009C2F200044A
:1041D000C2F2000B0DF10408019003E040461421E7
:1041E00002F0AEFCD9F8000070B1052100F0CAF968
:1041F000002818BF4FF0FF3048B14FF0000ABAF165
:10420000000FEBD03AE000BF00200028F5D1A06AF3
:1042100001280AD140F2DC204FF0000AC2F200006F
:10422000C0F800A0CBF800A001E04FF0010AA5689B
:104230000021284604F0E5FF48B940F2DC204FF0A9
:10424000000AC2F20000C0F800A0CBF800A094F869
:104250002100266848B940F2DC204FF0000AC2F283
:104260000000C0F800A0CBF800A0D9F8000000289A
:1042700018BF00F0EDF9BAF1000FAFD03046294673
:1042800000F000FB384487B240F20420C2F2000084
:10429000B7F5487F28BF4FF448770068B7F5967F99
:1042A00098BF4FF49677476398E7000040F6000404
:1042B000C4F2010440F2C00540F2900B40F2000845
:1042C00040F20009C2F20005C2F2000B04F5006AD8
:1042D00004F58066CBF68078C4F270190BE000BF5D
:1042E00020464FF40071FCF763FF2868052100F0B9
:1042F00049F9002851D0782000F002F9012000216E
:104300004FF0FF3200F000FA142000F0F9F82046D8
:104310004FF48071FCF74CFF0028E1D030464FF499
:104320000051FCF745FF30464FF48041FCF740FF59
:1043300000BB2868002849D0052100F023F9002897
:1043400018BF4FF0FF30A8B9DBF80000414604F079
:10435000E1FE4FF07E51074604F061FF002818BFD0
:104360004FF07E572868CBF80070002818BF00F087
:104370006FF900BF30464FF40041FCF719FF0028E9
:10438000B9D1286830B3052100F0FCF8002818BF27
:104390004FF0FF300028AED120E0DBF828204FF4AA
:1043A0000071B2FA82F047092046002A18BF0122A4
:1043B000FCF704FF50464FF400513A46FCF7FEFE6E
:1043C0002868CBF8287000F043F994E70020002813
:1043D000D0D1B9E7002000287FF48DAFDBF80000D2
:1043E0004FF07E5104F096FE4946074604F002FF66
:1043F00000281CBF0027C4F270172868CBF8007093
:1044000000283FF478AF00F023F974E790B0FDF78F
:10441000E5FC06AC20462821FCF77FF80120069039
:104420000A904FF4E01000254FF4803102260F90DF
:1044300020460595CDE90355CDE90155CDE9071590
:10444000CDE90D61FDF7E4FE18B1EFF3108072B60F
:10445000FEE70F20CDE901064FF48060CDE90405A9
:1044600001A802210395FDF7AFFD20B1EFF3108005
:1044700072B600BFFEE7FFF709FBFFF77BFBFFF714
:10448000FDFBFFF775FCFFF7EBFCFFF795FBFFF774
:10449000B5FB172005210022FDF75AFD1720FDF777
:1044A00045FD282005210022FDF752FD2820FDF7BB
:1044B0003DFDFFF7E7FD40F66400C2F2000001F0A9
:1044C000C3F840F2BC10C2F200000021FEF758FC15
:1044D00040F20420C2F200000021FEF751FC00214E
:1044E0000022C4F2C001C4F220120120FFF702FD35
:1044F00000F016F8FFF752FA00F026F8FEE7000089
:10450000EFF3058100291CBF6FF0050070470028FC
:1045100004BF0020704780B502F0BCFA002080BDC7
:10452000EFF3058000281CBF6FF00500704740F2D4
:104530008800C2F200000168002911BF4FF0FF306F
:104540000121016000207047EFF3058000281CBFA7
:104550006FF00500704740F28800C2F20000016869
:1045600001291CBF4FF0FF30704780B54EF61F5138
:10457000CEF2000100220A700221016002F060FC0C
:10458000002080BDEFF30582002A1CBF6FF00500FC
:104590007047024630F0010004BF6FF0030070471F
:1045A00010B50C46D20702D103F06AF801E003F01F
:1045B00053F9012804BF002010BD6FF00100002C4A
:1045C00008BF6FF0020010BD70B5EFF30581D1B9DF
:1045D000002814BF45680025290714D4A8B1D0E9E4
:1045E0000212B1B14F2A4FF000024FF0000188BF14
:1045F0000122A2B959B10646E8070CBF01200420E8
:1046000002F046FD13E0002070BD012104E000240B
:104610000FE0B2FA82F149090022002AEAD081684B
:104620000646E8070CBF0120042002F069FD04469D
:10463000304634B1002814BF01680021204602F042
:10464000F1F9E8071CBF002C44F00104204670BDBE
:10465000EFF3058100291CBF6FF00500704701468C
:1046600030F0010004BF6FF00300704780B5C90748
:1046700005D100210022002302F002FE01E002F039
:1046800009FF013818BF6FF0020080BDB0B584B0DB
:1046900040B3B1F1FF3F25DD4FF0FF320392EFF35E
:1046A00005821AB300250DF1080C012200230295A2
:1046B0000446CDF800C003F09DFA03AB204600216C
:1046C0000022009503F096FA0298D0B14EF60450FD
:1046D000CEF200004FF080510160BFF34F8FBFF367
:1046E0006F8F0EE06FF0030003900AE001220023B9
:1046F000044603F0F9F903AB20460021002203F041
:10470000F3F9039804B0B0BD2DE9F04F83B09246A1
:10471000EFF305822AB16FF00506304603B0BDE81D
:10472000F08F0546002840D44FF0000B880758BF93
:10473000AB460C4603F018FB6FF001084FEAC47952
:10474000544600260190BAF1000F08BF6FF002082E
:1047500003E000BF4646002FDFD00020594602AAE2
:10476000234603F0BFFB07460128F3D1029806EA6F
:10477000050140EA0106B9F1000F06EA050005D17E
:10478000D8B9BAF1000F06D117E000BFA84218BF90
:10479000BAF1000F0CD003F0E7FA0199401A241A7D
:1047A0004FF0000038BF0446D5E76FF00306B4E7CA
:1047B000A84218BF6FF00206AFE7002808BF6FF0ED
:1047C0000206AAE770B584B00B46002100280391C9
:1047D000EFF3058150D000294ED142B3D2F818E052
:1047E000BEF1000F08BF4FF0180EBEF1380F1BD8F6
:1047F0001179C90718D15569946811684FEA950C69
:10480000002D08BF4FF0400C44B1D6685C2E04D395
:104810001669002E18BF002D20D10CB9D468C4B180
:10482000002500245DB91DE0002004B070BD012406
:1048300000214FF0180E4FF0400C002595B1946800
:1048400012690294CDE900E2624603F0D7F80390C2
:1048500012E01469B4FA84F46409EEE70024012537
:10486000002DECD144B103AC1FFA8CF2CDE900E489
:1048700003F056F8012802D1039804B070BD00205F
:10488000E5E700002DE9F04F81B004F077FE8346A4
:1048900040F20800C2F20000D0F8008040F20C00A4
:1048A000C2F200002BF000454CF6CD410668C3F67D
:1048B0004C51284604F0ACFC40F2DC24C2F2000467
:1048C00020B92168584604F025FC206000272068A4
:1048D000C4F2FA37394604F09BFC002808BF276071
:1048E00000272068CCF2FA37394604F08AFC002809
:1048F00028464FF07E5108BF276004F07BFC00285B
:1049000040F2E420C2F200000168584618BF464653
:1049100004F034FE40F20401C2F200010A6821688A
:104920008246104604F05EFD07463046594604F0C4
:1049300059FD394604F0EEFB04F0C0FB804640F21E
:104940000000C2F20000026889465046114604F099
:1049500049FD04F0B3FB064640F2E020C2F200003D
:1049600000680F4604F0AAFB4CF6CD424CF6CC434F
:10497000CCF6CC42C3F6EC7304F0B4F949F69A12C3
:1049800049F6991305460C46C9F69912C3F6B97350
:104990003046394604F0A6F92A46234604F0FAF8D0
:1049A00042464B4604F0F6F804F0C2F840F2E0212B
:1049B000C2F20001C1F800A040F2E421C2F20001FD
:1049C000C1F800B004F072FC01B0BDE8F08F000047
:1049D0002DE9F047044601F031FF42F68C50C2F257
:1049E0000000016840F2DC3701310160C2F20007CB
:1049F000396843F2202A40F2F436C2F2000AC2F2C9
:104A0000000651B1DAF8000000283ED13868E16AAA
:104A1000C06A884298BF3C6037E03C60006801286B
:104A200033D10025701901F0CDFE1435B5F58C6F2A
:104A3000F8D143F28418C2F20008404601F0C2FEE9
:104A400043F29819C2F20009484601F0BBFE43F256
:104A5000CC10C2F2000001F0B5FE43F24020C2F2D9
:104A6000000001F0AFFE43F22C20C2F2000001F082
:104A7000A9FE40F2E430C2F20000C0F8008040F22B
:104A8000EC30C2F20000C0F8009042F69850C2F23A
:104A90000000016801310160616442F69C51C2F27C
:104AA0000001E06A0A68904288BF086000EB80005D
:104AB00006EB8000211D01F0B3FE01F0E3FEDAF801
:104AC000000088B13868E16AC06A884228BFBDE842
:104AD000F0874EF60450CEF200004FF08051016096
:104AE000BFF34F8FBFF36F8FBDE8F08770B582B013
:104AF00001F0A4FE43F25826C2F20006306850BB13
:104B000043F25814C2F20004204601F05BFE43F267
:104B10006C15C2F20005284601F054FE40F2E03068
:104B2000C2F20000046040F2F030C2F2000040F235
:104B3000E82240F2883305600025C2F20002C2F28A
:104B400000030A201021009502F02CFB306010B108
:104B500003A101F067FF02B0BDE8704001F092BE12
:104B6000546D72510000000042F6905540F2F43A44
:104B70004EF6045843F2402742F68C56C2F2000526
:104B8000C2F2000ACEF200084FF08059C2F20007CC
:104B9000C2F2000603E000BF204601F08BFE286849
:104BA000C8B101F04BFEF868C468201D01F0DCFDBF
:104BB00030680138306028680138286001F062FEF2
:104BC00094F859000228EAD00128E5D070B9206B8A
:104BD00001F070FEE0E7DAF800000228DFD3C8F841
:104BE0000090BFF34F8FBFF36F8FD8E74FF05000A7
:104BF00080F31188BFF36F8FBFF34F8FFEE7000084
:104C000006480068006880F3088862B661B6BFF3A2
:104C10004F8FBFF36F8F00DF00BF000008ED00E093
:104C20002DE9F04F85B0824603F09EF840F2D83966
:104C3000C2F20009D9F800100546884249D240F274
:104C4000E034C2F2000420680168002943D043F236
:104C5000582BC2F2000B08E07860206831463F61B3
:104C600001F0C0FD20680168A9B3C068C768D0F82A
:104C700000803E1D304601F077FD396A384688478E
:104C800097F828004007EDD5B86940444045E3D87F
:104C90008FB3DBF8000078B10020CDE9010803975D
:104CA00003F04EF8DBF8000001A90022002302F017
:104CB000E7FA0028D6D102E000200028D2D14FF038
:104CC000500080F31188BFF36F8FBFF34F8F00BF89
:104CD000FEE7002007E040F2F031C2F200010A686E
:104CE000086001202260CAF800002846C9F8005078
:104CF00005B0BDE8F08F4FF0500080F31188BFF38E
:104D00006F8FBFF34F8F00BFFEE7000081B0002020
:104D1000009040F21C00C2F2000000684FF0500109
:104D200081F31188BFF36F8FBFF34F8F013001D034
:104D3000FEE700BF00980028FCD001B070470000DB
:104D40008AB040F2E03B40F2F03A43F25825C2F21A
:104D5000000B02ACC2F2000AC2F200050DF1040918
:104D6000DBF8000007681FB1C068D0F8008001E0E0
:104D70004FF0000802F0B6F82046FFF751FF029905
:104D800011B103F007FA83E0E7B180451AD856461F
:104D9000824603F0FFF9DBF80000C068C76807F13E
:104DA000040B584601F0E0FC97F8280041070CD4AA
:104DB00040F2E03B00F0FA00C2F2000B87F8280056
:104DC000B2465CE0B7B100221AE0B9693F6101EB7D
:104DD00008005045786029D9C24501D2404533D2F8
:104DE00040F2E032C2F2000210685946934601F0E8
:104DF000F9FCE5E7DAF800100968B1FA81F14A092F
:104E00002B68A8EB0001184601F020FE03F0C2F960
:104E100000283DD14EF60450CEF200004FF08051F4
:104E20000160BFF34F8FBFF36F8F31E0AAEB080033
:104E3000884209D230685946B24601F0D3FC40F2AC
:104E4000E03BC2F2000B1AE0002F00F0C28028689D
:104E5000B24660B10020CDE90608089702F070FF65
:104E6000286806A90022002302F00AFA00E00020C8
:104E700040F2E03BC2F2000B002800F0B480396A37
:104E80003846884704E0DBF8000001F0ABFC00BFC7
:104E900028682146002202F01FFB00283FF460AF83
:104EA0000298B0F1FF3F03DCDDE90320059990474C
:104EB00002980028ECD4049F786910B1381D01F0E5
:104EC00053FC4846FFF7ACFE02990929E0D8DFE819
:104ED00001F00505054F395605054F3997F828109B
:104EE000039ABE6941F0010187F82810B3183946CA
:104EF00041F8043F83423F6104D99042C3D29342B8
:104F000003D2C0E7801AB0422DD3396A38468847A9
:104F100097F828004007BBD5002F50D02868B0B3C1
:104F20000398B969089708440021CDE9061002F0FA
:104F300007FF286806A90022002302F0A1F9002833
:104F4000A6D128E097F8281041F00102039987F8CC
:104F50002820B96149B30A18394641F8042F824222
:104F60003F613FF690AFDAF8000001F03BFC8FE7BD
:104F700097F8280000F0FE0087F8280088E797F8E7
:104F800028008107F6D4384601F094FC80E7002021
:104F900000287FF47DAF4FF0500080F31188BFF3FD
:104FA0006F8FBFF34F8F00BFFEE74FF0500080F3CD
:104FB0001188BFF36F8FBFF34F8F00BFFEE74FF035
:104FC000500080F31188BFF36F8FBFF34F8F00BF86
:104FD000FEE74FF0500080F31188BFF36F8FBFF3EF
:104FE0004F8F00BFFEE74FF0500080F31188BFF3F2
:104FF0006F8FBFF34F8F00BFFEE70000F0B581B0A9
:10500000044601F01BFC94F94560012E0FDB04F10E
:10501000240500BF286850B1284603F073F8002823
:1050200018BF01F013FE70B2013E0128F2DCFF262A
:1050300084F8456001F026FC01F000FC94F944700E
:10504000012F0EDB04F11005286850B1284603F04B
:1050500059F8002818BF01F0F9FD78B2013F012886
:10506000F2DC84F8446001B0BDE8F04001F00ABC15
:10507000F0B581B0044601F035FF40F2E831C2F2EC
:1050800000010868002843F28010C2F2000003D03B
:10509000B4F1FF3F2CDD2DE040F68252C2F2000257
:1050A000D31D560702F5005618BF23F0070243F23E
:1050B0002423C2F200030025C3E9002526F00703DC
:1050C000A3F108060E6043E90255B31A0E68C2E95F
:1050D000006343F2B412C2F20002136043F2AC1256
:1050E000C2F20002136001220270B4F1FF3F01DC42
:1050F0000278C2BB3CB162071ABF24F0070202F17A
:105100001004083400E0002443F2AC1EC2F2000E8A
:10511000DEF80020631E934225D243F22423C2F21C
:1051200000031E687568A54207D200BF326822B12D
:10513000556833461646A542F8D30A68964212D0FF
:10514000D3F800C037682A1B112A1F603FD33319D8
:105150005D0719D04FF0500080F31188BFF36F8FB7
:10516000BFF34F8FFEE7002403F014F8600708D068
:105170004FF0500080F31188BFF36F8FBFF34F8F54
:10518000FEE7204601B0F0BD43F22425C2F200053F
:105190005A6074602C462D689D42FBD36268A71844
:1051A0009F4203D15B681A44234662605A689F1885
:1051B000AF4201D0294606E009688D4203D0D5E907
:1051C00000152A445A609C42196018BF236043F2BC
:1051D000B4117268DEF80030C2F200010C689A1A4D
:1051E000A242CEF8002038BF0A60007843F2C01215
:1051F0007168C2F20002002818BF41F00041136834
:1052000000200CF10804C6E90001581C1060ABE74F
:1052100040F2DC30C2F20000016819B101680A6D89
:1052200001320A6500687047034644F60D50C0F627
:1052300000004FF0807C21F0010103E90310A3F18D
:10524000400043F8202C704788B000200790CDE93B
:105250000500CDE9030002F087FD40F2C00940F6E9
:1052600064054FF0010802ACC2F20009C2F2000569
:10527000029007E00521FFF785F9002818BF4FF0DD
:10528000FF3050B12046C82101F05AFCD9F8000087
:105290000028EFD100200028F4D1D9F8000040F216
:1052A0009001C2F20001D1E90067002818BFFFF7A2
:1052B000CFF9284600F0E4F949F6FC012846C0F68B
:1052C000000100F0D7FA5FEAC8700ED012200190FA
:1052D000304649F65C083E4649F64E074FF00A0B49
:1052E000C0F60008C0F600070CE00A20019038461E
:1052F00049F64E0849F65C074FF0120BC0F600085D
:10530000C0F6000703F0DAFE0DF10C0A02460B4668
:1053100050464146FAF77AFF40F66405C2F20005AE
:10532000284600215A4653464FF0000800F04EFA36
:10533000304603F0C3FE02460B4650463946FAF7A4
:1053400065FF019A28460021534600F03FFA28469F
:1053500000F086FA96E7000088B002F005FD40F202
:10536000C0090490C2F20009002400274FF0000B8E
:1053700000204FF0000800250290CDE900000390C6
:1053800004A8142101F0DCFBD9F8000050B305217A
:10539000FFF7F8F8002818BF4FF0FF3088B940F247
:1053A0009001C2F2000191F8210091F820B0029022
:1053B000D9F8000091F822100028019118BFFFF7DA
:1053C00047F9BBF1010F30D1019801280ED107A890
:1053D000FEF7B8FE00900028039818BF0130039034
:1053E00006E000BF00200028EBD1D8E703200090A2
:1053F0000298012816D141F26F20C3F6032005A9B7
:10540000FEF7A4FA054600284DF20A70C3F6A32061
:1054100006A918BF0137FEF7ADFA8046002818BF6D
:10542000013402E04FF003080325D9F8000048B129
:105430000521FFF7A7F8002818BF4FF0FF3000281C
:105440009ED102E0002000289AD10398052808DBAD
:1054500040F290000022C2F200000021039180F887
:105460002220042CA246C8BF4FF0000A042F3E465B
:10547000C8BF0026042CD8BF052F06DB40F29001E0
:105480000020C2F2000181F8210002F06DFC0099B9
:1054900079B1B8F1000F16D0F5B1D9F80000544633
:1054A000002837463FF46CAFFFF7D2F85446374632
:1054B00066E7079940F29002C2F200021161D061E2
:1054C000B8F1000FE8D1069940F29002C2F2000252
:1054D00091605061002DE0D1059940F29002C2F236
:1054E0000002D1609061D8E784B002F03DFC40F248
:1054F000C00540F2900603ACC2F20005C2F20006FD
:10550000039007E00521FFF73DF8002818BF4FF092
:10551000FF3048B12046C82101F012FB286800285E
:10552000F0D100200028F5D196F8220096F821A0AD
:10553000C7B25AEA070006BF4FF0000B86F820B04A
:1055400096F820B096F82480B8F1000F06BF4FF00F
:10555000000986F8239096F823902868002818BF41
:10556000FFF776F8BBF1000F20D0BAF1000F26D07C
:10557000BFB3B9F1000F3DD0B8F1000F08BFB9F1CA
:10558000010F07D140F66400C2F2000000F05CF8A1
:105590004FF001082868A0B30521FEF7F3FF0028AB
:1055A00018BF4FF0FF300028B4D12EE0FEF774FD95
:1055B000002808BF4FF0010BBAF1000FD8D140F21C
:1055C0008400C2F200000199007821F0FF01084434
:1055D0000190FEF79FF9002808BF4FF0010A002F45
:1055E000C7D102A8FEF7AEFD002808BF0127B9F118
:1055F000000FC1D1FDF7DCFC002808BF4FF0010906
:10560000BAE7002000287FF485AFBBF1010F08BF87
:1056100086F820B0BAF1010F08BF86F821A0012F4B
:1056200008BF86F82270B9F1010F08BF86F82390F1
:10563000B8F1010F08BF86F82480286800283FF4DD
:1056400069AFFFF705F865E710B549F6F00146F2D6
:10565000812246F2B963C0F60001C0F60002C0F62E
:105660000003044600F0A8F9204600F0B1FD2046F2
:10567000002100F0B9FD2046BDE81040AFF30080E6
:1056800080B5016890F83820097C406B5143C9000F
:10569000FAF721FF80BD00002DE9F047002B00F054
:1056A000888090F88C70002F00F08380089C022B7B
:1056B00005D3032C3ED0022C01D1C91A013114F0BC
:1056C000010A3CD1B0F84C6097B2B74271D3B0F840
:1056D0004E60B7426DD2B0F848E0B0F84A408EB2A2
:1056E000F71875461FFA87F9A64238BF0D46B94527
:1056F00008BF0D461FFA85F8A6423D4638BF651E15
:10570000B94508BF4D46AEB2A0454FF000074FF077
:10571000000528BF0127764598BF01252F4347D1B3
:10572000F04588BFC646A64238BF3446A4EB0E03F8
:1057300071463DE0D21A013214F0010AC2D0B0F82D
:1057400048608FB2B74234D3B0F84A60B74228BF3E
:10575000BDE8F087B0F84CE0B0F84E4096B2F718CC
:1057600075461FFA87F9A64238BF1546B94508BFE6
:1057700015461FFA85F8A6423D4638BF651EB94555
:1057800008BF4D46AEB2A0454FF000074FF00005F0
:1057900028BF0127764598BF01252F4308D1F04542
:1057A00088BFC646A64238BF3446A4EB0E037246F5
:1057B0000FB1BDE8F087076B89B2D7F808C092B285
:1057C0009BB2CDF820A0BDE8F047604746F2312CEF
:1057D000C0F6000CC0F804C000F046B910B5B0F82F
:1057E0004E40DDF808C0B0F84CE0A2420BD2624552
:1057F0004FF000024FF0000488BF0122F44588BF3B
:10580000012422430AE062454FF000024FF00004F9
:1058100088BF0122F44588BF01242240002A04BF2A
:10582000002010BDB0F84A20B0F8480091420BD2D9
:10583000002299424FF0000188BF0121834288BFB6
:10584000012241EA020010BD002299424FF00001FE
:1058500088BF0121834288BF012201EA020010BDF6
:1058600010B5044600F012FC2046BDE8104000F0E0
:10587000B5BC0000B0B50446806D88426CD0A1650F
:1058800008780D4684F87400487884F875008878A4
:1058900084F87600C87884F87700087984F878006E
:1058A000487984F87900887984F87A00C87984F88E
:1058B0007B00087A84F87C00487A84F87D00887A36
:1058C00084F87E00C87A84F87F00087B84F8800022
:1058D000487B84F88100887B84F88200C87B84F848
:1058E0008300087C84F884000846112100F074FBD2
:1058F000A4F886002846132100F06EFBA4F8880067
:105900002846152100F068FBA4F88A0025B394F816
:105910008D1094F9812094F98200002984F88E205A
:1059200084F88F0008BFB0BD012908D194F9831015
:105930008A42B8BF84F88E1094F9841008E094F974
:105940007E3094F980100B449342C8BF84F88E30A7
:105950008842C8BF84F88F10B0BD000045F64131C1
:10596000C0F60001C1657047B0B50446049884F8DC
:10597000382040F20112A4F8922002680025C4E900
:105980000B302046A56584F8395084F86D5084F8B2
:10599000915084F88D50616390470020CFF6FF70DE
:1059A000216B206560654968204688472046FFF7DF
:1059B000D5FF84F87050B0BD70B582B01C46134658
:1059C0000D4646F2895146F23142C0F60001C0F65A
:1059D00000020646009400F00DFC0DF1070000F0F7
:1059E0004DFB9DF8072045F6E1730146C0F6000324
:1059F00030460095FFF7B8FF02B070BD022B0AD009
:105A0000012B05D0002B14BF1044084480B270470E
:105A1000801A80B27047401A80B27047022B0AD0B9
:105A2000012B05D0002B14BF401A104480B27047E0
:105A3000084480B27047801A80B2704780B5B0F8D1
:105A40003EC0DDF808E0A2EB0C02D0F82CC092B208
:105A5000CDF808E0BDE8804060470000DDF800C0F8
:105A6000CDF800C0FFF7EABF2DE9F04F81B01F4627
:105A700092460D4606464FF6FF7800F071FE7268BA
:105A8000397830469047404553D0A8F101017C1C3D
:105A90004FF000091FFA81FB07E08144726814F897
:105AA000011B30469047404545D087B25F45F5D051
:105AB00096F870205046032A29461AD8DFE802F0EB
:105AC0000214080FF16D304688475044294610E013
:105AD000F16D30468847AAEB0000294609E0F16DD8
